{
  "address": "0xCf7Ed3AccA5a467e9e704C703E8D87F634fB0Fc9",
  "abi": [
    {
      "inputs": [],
      "name": "NeedsMoreThanZero",
      "type": "error"
    },
    {
      "inputs": [],
      "name": "NeedsToBeActive",
      "type": "error"
    },
    {
      "inputs": [],
      "name": "NeedsToBeBorrower",
      "type": "error"
    },
    {
      "inputs": [],
      "name": "NeedsToBeLender",
      "type": "error"
    },
    {
      "inputs": [],
      "name": "TransferFailed",
      "type": "error"
    },
    {
      "anonymous": false,
      "inputs": [
        {
          "indexed": true,
          "internalType": "address",
          "name": "borrower",
          "type": "address"
        },
        {
          "indexed": true,
          "internalType": "uint256",
          "name": "id",
          "type": "uint256"
        },
        {
          "indexed": true,
          "internalType": "uint256",
          "name": "amount",
          "type": "uint256"
        }
      ],
      "name": "Activate",
      "type": "event"
    },
    {
      "anonymous": false,
      "inputs": [
        {
          "indexed": true,
          "internalType": "address",
          "name": "borrower",
          "type": "address"
        },
        {
          "indexed": true,
          "internalType": "uint256",
          "name": "id",
          "type": "uint256"
        },
        {
          "indexed": true,
          "internalType": "uint256",
          "name": "amount",
          "type": "uint256"
        }
      ],
      "name": "AddCollateral",
      "type": "event"
    },
    {
      "anonymous": false,
      "inputs": [
        {
          "indexed": true,
          "internalType": "address",
          "name": "lender",
          "type": "address"
        },
        {
          "indexed": true,
          "internalType": "address",
          "name": "borrower",
          "type": "address"
        },
        {
          "indexed": true,
          "internalType": "uint256",
          "name": "id",
          "type": "uint256"
        }
      ],
      "name": "Closed",
      "type": "event"
    },
    {
      "anonymous": false,
      "inputs": [
        {
          "indexed": true,
          "internalType": "address",
          "name": "borrower",
          "type": "address"
        },
        {
          "indexed": false,
          "internalType": "uint256",
          "name": "remainingValue",
          "type": "uint256"
        }
      ],
      "name": "Liquidate",
      "type": "event"
    },
    {
      "anonymous": false,
      "inputs": [
        {
          "indexed": true,
          "internalType": "address",
          "name": "previousOwner",
          "type": "address"
        },
        {
          "indexed": true,
          "internalType": "address",
          "name": "newOwner",
          "type": "address"
        }
      ],
      "name": "OwnershipTransferred",
      "type": "event"
    },
    {
      "anonymous": false,
      "inputs": [
        {
          "indexed": true,
          "internalType": "address",
          "name": "lender",
          "type": "address"
        },
        {
          "indexed": true,
          "internalType": "uint256",
          "name": "id",
          "type": "uint256"
        },
        {
          "indexed": true,
          "internalType": "uint256",
          "name": "amount",
          "type": "uint256"
        }
      ],
      "name": "Propose",
      "type": "event"
    },
    {
      "anonymous": false,
      "inputs": [
        {
          "indexed": false,
          "internalType": "address",
          "name": "sender",
          "type": "address"
        },
        {
          "indexed": false,
          "internalType": "uint256",
          "name": "amount",
          "type": "uint256"
        }
      ],
      "name": "Received",
      "type": "event"
    },
    {
      "anonymous": false,
      "inputs": [
        {
          "indexed": true,
          "internalType": "address",
          "name": "lender",
          "type": "address"
        },
        {
          "indexed": true,
          "internalType": "uint256",
          "name": "id",
          "type": "uint256"
        },
        {
          "indexed": true,
          "internalType": "uint256",
          "name": "amount",
          "type": "uint256"
        }
      ],
      "name": "Repaid",
      "type": "event"
    },
    {
      "anonymous": false,
      "inputs": [
        {
          "indexed": true,
          "internalType": "address",
          "name": "borrower",
          "type": "address"
        },
        {
          "indexed": true,
          "internalType": "uint256",
          "name": "id",
          "type": "uint256"
        },
        {
          "indexed": true,
          "internalType": "uint256",
          "name": "amount",
          "type": "uint256"
        }
      ],
      "name": "Repay",
      "type": "event"
    },
    {
      "anonymous": false,
      "inputs": [
        {
          "indexed": true,
          "internalType": "address",
          "name": "borrower",
          "type": "address"
        },
        {
          "indexed": true,
          "internalType": "uint256",
          "name": "id",
          "type": "uint256"
        },
        {
          "indexed": true,
          "internalType": "uint256",
          "name": "amount",
          "type": "uint256"
        }
      ],
      "name": "WithdrawCollateral",
      "type": "event"
    },
    {
      "inputs": [],
      "name": "LIQUIDATION_THRESHOLD",
      "outputs": [
        {
          "internalType": "uint256",
          "name": "",
          "type": "uint256"
        }
      ],
      "stateMutability": "view",
      "type": "function"
    },
    {
      "inputs": [
        {
          "internalType": "uint256",
          "name": "id",
          "type": "uint256"
        },
        {
          "internalType": "uint256",
          "name": "amount",
          "type": "uint256"
        }
      ],
      "name": "activate",
      "outputs": [],
      "stateMutability": "payable",
      "type": "function"
    },
    {
      "inputs": [
        {
          "internalType": "uint256",
          "name": "id",
          "type": "uint256"
        },
        {
          "internalType": "uint256",
          "name": "amount",
          "type": "uint256"
        }
      ],
      "name": "addCollateral",
      "outputs": [],
      "stateMutability": "payable",
      "type": "function"
    },
    {
      "inputs": [
        {
          "internalType": "uint256",
          "name": "id",
          "type": "uint256"
        }
      ],
      "name": "close",
      "outputs": [],
      "stateMutability": "nonpayable",
      "type": "function"
    },
    {
      "inputs": [
        {
          "internalType": "uint256",
          "name": "amount",
          "type": "uint256"
        }
      ],
      "name": "getEthValueFromToken",
      "outputs": [
        {
          "internalType": "uint256",
          "name": "",
          "type": "uint256"
        }
      ],
      "stateMutability": "view",
      "type": "function"
    },
    {
      "inputs": [
        {
          "internalType": "uint256",
          "name": "id",
          "type": "uint256"
        }
      ],
      "name": "getMinReqCollateral",
      "outputs": [
        {
          "internalType": "uint256",
          "name": "",
          "type": "uint256"
        }
      ],
      "stateMutability": "view",
      "type": "function"
    },
    {
      "inputs": [
        {
          "internalType": "address",
          "name": "account",
          "type": "address"
        },
        {
          "internalType": "uint256",
          "name": "amount",
          "type": "uint256"
        }
      ],
      "name": "mint",
      "outputs": [],
      "stateMutability": "nonpayable",
      "type": "function"
    },
    {
      "inputs": [],
      "name": "owner",
      "outputs": [
        {
          "internalType": "address",
          "name": "",
          "type": "address"
        }
      ],
      "stateMutability": "view",
      "type": "function"
    },
    {
      "inputs": [
        {
          "internalType": "uint256",
          "name": "amount",
          "type": "uint256"
        },
        {
          "internalType": "uint256",
          "name": "duration",
          "type": "uint256"
        },
        {
          "internalType": "uint256",
          "name": "rate",
          "type": "uint256"
        }
      ],
      "name": "propose",
      "outputs": [
        {
          "internalType": "uint256",
          "name": "id",
          "type": "uint256"
        }
      ],
      "stateMutability": "nonpayable",
      "type": "function"
    },
    {
      "inputs": [],
      "name": "renounceOwnership",
      "outputs": [],
      "stateMutability": "nonpayable",
      "type": "function"
    },
    {
      "inputs": [
        {
          "internalType": "uint256",
          "name": "id",
          "type": "uint256"
        },
        {
          "internalType": "uint256",
          "name": "amount",
          "type": "uint256"
        }
      ],
      "name": "repay",
      "outputs": [],
      "stateMutability": "nonpayable",
      "type": "function"
    },
    {
      "inputs": [
        {
          "internalType": "address",
          "name": "",
          "type": "address"
        },
        {
          "internalType": "uint256",
          "name": "",
          "type": "uint256"
        }
      ],
      "name": "s_accountToIDs",
      "outputs": [
        {
          "internalType": "uint256",
          "name": "",
          "type": "uint256"
        }
      ],
      "stateMutability": "view",
      "type": "function"
    },
    {
      "inputs": [
        {
          "internalType": "uint256",
          "name": "",
          "type": "uint256"
        }
      ],
      "name": "s_idToAgreement",
      "outputs": [
        {
          "internalType": "uint256",
          "name": "deposit",
          "type": "uint256"
        },
        {
          "internalType": "uint256",
          "name": "collateral",
          "type": "uint256"
        },
        {
          "internalType": "uint256",
          "name": "repaidAmt",
          "type": "uint256"
        },
        {
          "internalType": "uint256",
          "name": "futureValue",
          "type": "uint256"
        },
        {
          "internalType": "uint256",
          "name": "start",
          "type": "uint256"
        },
        {
          "internalType": "uint256",
          "name": "duration",
          "type": "uint256"
        },
        {
          "internalType": "uint256",
          "name": "rate",
          "type": "uint256"
        },
        {
          "internalType": "enum Status",
          "name": "status",
          "type": "uint8"
        },
        {
          "internalType": "address payable",
          "name": "lender",
          "type": "address"
        },
        {
          "internalType": "address payable",
          "name": "borrower",
          "type": "address"
        }
      ],
      "stateMutability": "view",
      "type": "function"
    },
    {
      "inputs": [],
      "name": "s_lenderToken",
      "outputs": [
        {
          "internalType": "contract IToken",
          "name": "",
          "type": "address"
        }
      ],
      "stateMutability": "view",
      "type": "function"
    },
    {
      "inputs": [],
      "name": "s_numIDs",
      "outputs": [
        {
          "internalType": "uint256",
          "name": "",
          "type": "uint256"
        }
      ],
      "stateMutability": "view",
      "type": "function"
    },
    {
      "inputs": [],
      "name": "s_priceFeed",
      "outputs": [
        {
          "internalType": "contract AggregatorV3Interface",
          "name": "",
          "type": "address"
        }
      ],
      "stateMutability": "view",
      "type": "function"
    },
    {
      "inputs": [
        {
          "internalType": "address",
          "name": "token",
          "type": "address"
        },
        {
          "internalType": "address",
          "name": "priceFeed",
          "type": "address"
        }
      ],
      "name": "setLenderToken",
      "outputs": [],
      "stateMutability": "nonpayable",
      "type": "function"
    },
    {
      "inputs": [
        {
          "internalType": "address",
          "name": "newOwner",
          "type": "address"
        }
      ],
      "name": "transferOwnership",
      "outputs": [],
      "stateMutability": "nonpayable",
      "type": "function"
    },
    {
      "inputs": [
        {
          "internalType": "uint256",
          "name": "id",
          "type": "uint256"
        },
        {
          "internalType": "uint256",
          "name": "amount",
          "type": "uint256"
        }
      ],
      "name": "withdrawCollateral",
      "outputs": [],
      "stateMutability": "nonpayable",
      "type": "function"
    },
    {
      "stateMutability": "payable",
      "type": "receive"
    }
  ],
  "transactionHash": "0xdfa666bfc58ab98c0fbc143ade1337cfd61e0085ccf475371059366d3a3a549d",
  "args": [],
  "numDeployments": 1,
  "solcInputHash": "49818a67b38e9de24632cf4cd2fa931b",
  "bytecode": "0x60806040523480156200001157600080fd5b5060016000819055506200003a6200002e6200004060201b60201c565b6200004860201b60201c565b6200010e565b600033905090565b6000600160009054906101000a900473ffffffffffffffffffffffffffffffffffffffff16905081600160006101000a81548173ffffffffffffffffffffffffffffffffffffffff021916908373ffffffffffffffffffffffffffffffffffffffff1602179055508173ffffffffffffffffffffffffffffffffffffffff168173ffffffffffffffffffffffffffffffffffffffff167f8be0079c531659141344cd1fd0a4f28419497f9722a3daafe3b4186f6b6457e060405160405180910390a35050565b61315d806200011e6000396000f3fe6080604052600436106101185760003560e01c80638da5cb5b116100a0578063a8f35adf11610064578063a8f35adf146103dd578063d35b0adc146103f9578063d51ac14414610436578063d8aed14514610461578063f2fde38b1461048a57610158565b80638da5cb5b146102fa5780638ea8f83c1461032557806390a8ae9b146103415780639bf9e7151461036c578063a32d1968146103b257610158565b806340376d56116100e757806340376d561461021757806340c10f19146102545780635177e3421461027d578063715018a6146102ba578063767a7b05146102d157610158565b8063030fdffb1461015d5780630aebeb4e1461019a5780630ec3b027146101c35780631f9ff79d146101ee57610158565b36610158577f88a5966d370b9919b20f3e2c13ff65706f196a4e32cc2c12bf57088f88525874333460405161014e929190612888565b60405180910390a1005b600080fd5b34801561016957600080fd5b50610184600480360381019061017f919061257e565b6104b3565b60405161019191906129a7565b60405180910390f35b3480156101a657600080fd5b506101c160048036038101906101bc919061257e565b6106e8565b005b3480156101cf57600080fd5b506101d8610abb565b6040516101e591906128b1565b60405180910390f35b3480156101fa57600080fd5b50610215600480360381019061021091906124dd565b610ae1565b005b34801561022357600080fd5b5061023e600480360381019061023991906125e3565b610be3565b60405161024b91906129a7565b60405180910390f35b34801561026057600080fd5b5061027b60048036038101906102769190612519565b611061565b005b34801561028957600080fd5b506102a4600480360381019061029f9190612519565b6110f4565b6040516102b191906129a7565b60405180910390f35b3480156102c657600080fd5b506102cf611125565b005b3480156102dd57600080fd5b506102f860048036038101906102f391906125a7565b6111ad565b005b34801561030657600080fd5b5061030f61163a565b60405161031c919061280d565b60405180910390f35b61033f600480360381019061033a91906125a7565b611664565b005b34801561034d57600080fd5b5061035661197b565b60405161036391906129a7565b60405180910390f35b34801561037857600080fd5b50610393600480360381019061038e919061257e565b611980565b6040516103a99a999897969594939291906129c2565b60405180910390f35b3480156103be57600080fd5b506103c7611a21565b6040516103d491906129a7565b60405180910390f35b6103f760048036038101906103f291906125a7565b611a27565b005b34801561040557600080fd5b50610420600480360381019061041b919061257e565b611c6b565b60405161042d91906129a7565b60405180910390f35b34801561044257600080fd5b5061044b611e47565b60405161045891906128cc565b60405180910390f35b34801561046d57600080fd5b50610488600480360381019061048391906125a7565b611e6d565b005b34801561049657600080fd5b506104b160048036038101906104ac91906124b4565b61225b565b005b600080600660009054906101000a900473ffffffffffffffffffffffffffffffffffffffff1673ffffffffffffffffffffffffffffffffffffffff1663feaf968c6040518163ffffffff1660e01b815260040160a06040518083038186803b15801561051e57600080fd5b505afa158015610532573d6000803e3d6000fd5b505050506040513d601f19601f820116820180604052508101906105569190612632565b5050509150506000600660009054906101000a900473ffffffffffffffffffffffffffffffffffffffff1673ffffffffffffffffffffffffffffffffffffffff1663313ce5676040518163ffffffff1660e01b815260040160206040518083038186803b1580156105c657600080fd5b505afa1580156105da573d6000803e3d6000fd5b505050506040513d601f19601f820116820180604052508101906105fe91906126a9565b90506000600560009054906101000a900473ffffffffffffffffffffffffffffffffffffffff1673ffffffffffffffffffffffffffffffffffffffff1663313ce5676040518163ffffffff1660e01b815260040160206040518083038186803b15801561066a57600080fd5b505afa15801561067e573d6000803e3d6000fd5b505050506040513d601f19601f820116820180604052508101906106a291906126a9565b905082818360126106b39190612ac5565b6106bd9190612d2c565b600a6106c99190612b80565b866106d49190612c9e565b6106de9190612afc565b9350505050919050565b6002600054141561072e576040517f08c379a000000000000000000000000000000000000000000000000000000000815260040161072590612987565b60405180910390fd5b6002600081905550803373ffffffffffffffffffffffffffffffffffffffff166002600083815260200190815260200160002060070160019054906101000a900473ffffffffffffffffffffffffffffffffffffffff1673ffffffffffffffffffffffffffffffffffffffff16146107d2576040517f3a7d412400000000000000000000000000000000000000000000000000000000815260040160405180910390fd5b816002600381111561080d577f4e487b7100000000000000000000000000000000000000000000000000000000600052602160045260246000fd5b6002600083815260200190815260200160002060070160009054906101000a900460ff166003811115610869577f4e487b7100000000000000000000000000000000000000000000000000000000600052602160045260246000fd5b146108a0576040517f9206086a00000000000000000000000000000000000000000000000000000000815260040160405180910390fd5b6000600260008581526020019081526020016000209050600081600301549050808260020154146108fa577f4e487b7100000000000000000000000000000000000000000000000000000000600052600160045260246000fd5b6000600560009054906101000a900473ffffffffffffffffffffffffffffffffffffffff1673ffffffffffffffffffffffffffffffffffffffff1663a9059cbb8460070160019054906101000a900473ffffffffffffffffffffffffffffffffffffffff16846040518363ffffffff1660e01b815260040161097d929190612828565b602060405180830381600087803b15801561099757600080fd5b505af11580156109ab573d6000803e3d6000fd5b505050506040513d601f19601f820116820180604052508101906109cf9190612555565b905080610a08576040517f90b8ec1800000000000000000000000000000000000000000000000000000000815260040160405180910390fd5b858360080160009054906101000a900473ffffffffffffffffffffffffffffffffffffffff1673ffffffffffffffffffffffffffffffffffffffff168460070160019054906101000a900473ffffffffffffffffffffffffffffffffffffffff1673ffffffffffffffffffffffffffffffffffffffff167f62d095e2c4513ab737ede7cbd30334eccb10424cbc543ebb5c458b5174cddcd560405160405180910390a45050505050600160008190555050565b600660009054906101000a900473ffffffffffffffffffffffffffffffffffffffff1681565b610ae9612353565b73ffffffffffffffffffffffffffffffffffffffff16610b0761163a565b73ffffffffffffffffffffffffffffffffffffffff1614610b5d576040517f08c379a0000000000000000000000000000000000000000000000000000000008152600401610b5490612947565b60405180910390fd5b81600560006101000a81548173ffffffffffffffffffffffffffffffffffffffff021916908373ffffffffffffffffffffffffffffffffffffffff16021790555080600660006101000a81548173ffffffffffffffffffffffffffffffffffffffff021916908373ffffffffffffffffffffffffffffffffffffffff1602179055505050565b600060026000541415610c2b576040517f08c379a0000000000000000000000000000000000000000000000000000000008152600401610c2290612987565b60405180910390fd5b6002600081905550836000811415610c6f576040517ff45911f000000000000000000000000000000000000000000000000000000000815260040160405180910390fd5b60006103e885856103e8610c839190612a6f565b88610c8e9190612c9e565b610c989190612c9e565b610ca29190612afc565b9050600060405180610140016040528088815260200160008152602001600081526020018381526020016000815260200187815260200186815260200160006003811115610d19577f4e487b7100000000000000000000000000000000000000000000000000000000600052602160045260246000fd5b81526020013373ffffffffffffffffffffffffffffffffffffffff168152602001600073ffffffffffffffffffffffffffffffffffffffff1681525090506000600560009054906101000a900473ffffffffffffffffffffffffffffffffffffffff1673ffffffffffffffffffffffffffffffffffffffff166323b872dd33308b6040518463ffffffff1660e01b8152600401610db893929190612851565b602060405180830381600087803b158015610dd257600080fd5b505af1158015610de6573d6000803e3d6000fd5b505050506040513d601f19601f82011682018060405250810190610e0a9190612555565b905080610e43576040517f90b8ec1800000000000000000000000000000000000000000000000000000000815260040160405180910390fd5b60046000815480929190610e5690612e8a565b919050555060045494508160026000878152602001908152602001600020600082015181600001556020820151816001015560408201518160020155606082015181600301556080820151816004015560a0820151816005015560c0820151816006015560e08201518160070160006101000a81548160ff02191690836003811115610f0b577f4e487b7100000000000000000000000000000000000000000000000000000000600052602160045260246000fd5b02179055506101008201518160070160016101000a81548173ffffffffffffffffffffffffffffffffffffffff021916908373ffffffffffffffffffffffffffffffffffffffff1602179055506101208201518160080160006101000a81548173ffffffffffffffffffffffffffffffffffffffff021916908373ffffffffffffffffffffffffffffffffffffffff160217905550905050600360003373ffffffffffffffffffffffffffffffffffffffff1673ffffffffffffffffffffffffffffffffffffffff16815260200190815260200160002085908060018154018082558091505060019003906000526020600020016000909190919091505587853373ffffffffffffffffffffffffffffffffffffffff167ffcb5913d5cff8e37667ef76381030e4118bc2091969ecf14726dd959e0e15c0760405160405180910390a45050505060016000819055509392505050565b600560009054906101000a900473ffffffffffffffffffffffffffffffffffffffff1673ffffffffffffffffffffffffffffffffffffffff166340c10f1983836040518363ffffffff1660e01b81526004016110be929190612888565b600060405180830381600087803b1580156110d857600080fd5b505af11580156110ec573d6000803e3d6000fd5b505050505050565b6003602052816000526040600020818154811061111057600080fd5b90600052602060002001600091509150505481565b61112d612353565b73ffffffffffffffffffffffffffffffffffffffff1661114b61163a565b73ffffffffffffffffffffffffffffffffffffffff16146111a1576040517f08c379a000000000000000000000000000000000000000000000000000000000815260040161119890612947565b60405180910390fd5b6111ab600061235b565b565b600260005414156111f3576040517f08c379a00000000000000000000000000000000000000000000000000000000081526004016111ea90612987565b60405180910390fd5b6002600081905550813373ffffffffffffffffffffffffffffffffffffffff166002600083815260200190815260200160002060080160009054906101000a900473ffffffffffffffffffffffffffffffffffffffff1673ffffffffffffffffffffffffffffffffffffffff1614611297576040517fc0e58a0500000000000000000000000000000000000000000000000000000000815260040160405180910390fd5b8160008114156112d3576040517ff45911f000000000000000000000000000000000000000000000000000000000815260040160405180910390fd5b600060026000868152602001908152602001600020905060008160070160009054906101000a900460ff169050600082600101549050600061131488611c6b565b905060016003811115611350577f4e487b7100000000000000000000000000000000000000000000000000000000600052602160045260246000fd5b836003811115611389577f4e487b7100000000000000000000000000000000000000000000000000000000600052602160045260246000fd5b14156113e15780878361139c9190612cf8565b116113dc576040517f08c379a00000000000000000000000000000000000000000000000000000000081526004016113d390612967565b60405180910390fd5b61150f565b6002600381111561141b577f4e487b7100000000000000000000000000000000000000000000000000000000600052602160045260246000fd5b836003811115611454577f4e487b7100000000000000000000000000000000000000000000000000000000600052602160045260246000fd5b14806114cf5750600380811115611494577f4e487b7100000000000000000000000000000000000000000000000000000000600052602160045260246000fd5b8360038111156114cd577f4e487b7100000000000000000000000000000000000000000000000000000000600052602160045260246000fd5b145b61150e576040517f08c379a000000000000000000000000000000000000000000000000000000000815260040161150590612907565b60405180910390fd5b5b868460010160008282546115239190612cf8565b9250508190555060008460080160009054906101000a900473ffffffffffffffffffffffffffffffffffffffff1673ffffffffffffffffffffffffffffffffffffffff166108fc899081150290604051600060405180830381858888f193505050509050806115be576040517f90b8ec1800000000000000000000000000000000000000000000000000000000815260040160405180910390fd5b87898660080160009054906101000a900473ffffffffffffffffffffffffffffffffffffffff1673ffffffffffffffffffffffffffffffffffffffff167f627a692d5a03ab34732c0d2aa319f3ecdebdc4528f383eabcb25441dc0a70cfb60405160405180910390a45050505050505060016000819055505050565b6000600160009054906101000a900473ffffffffffffffffffffffffffffffffffffffff16905090565b600260005414156116aa576040517f08c379a00000000000000000000000000000000000000000000000000000000081526004016116a190612987565b60405180910390fd5b60026000819055503460008114156116ee576040517ff45911f000000000000000000000000000000000000000000000000000000000815260040160405180910390fd5b813414611730576040517f08c379a0000000000000000000000000000000000000000000000000000000008152600401611727906128e7565b60405180910390fd5b61173983611c6b565b821161177a576040517f08c379a000000000000000000000000000000000000000000000000000000000815260040161177190612967565b60405180910390fd5b6000600260008581526020019081526020016000209050428160040181905550338160080160006101000a81548173ffffffffffffffffffffffffffffffffffffffff021916908373ffffffffffffffffffffffffffffffffffffffff16021790555060018160070160006101000a81548160ff0219169083600381111561182b577f4e487b7100000000000000000000000000000000000000000000000000000000600052602160045260246000fd5b02179055508281600101819055506000600560009054906101000a900473ffffffffffffffffffffffffffffffffffffffff1673ffffffffffffffffffffffffffffffffffffffff1663a9059cbb3384600001546040518363ffffffff1660e01b815260040161189c929190612888565b602060405180830381600087803b1580156118b657600080fd5b505af11580156118ca573d6000803e3d6000fd5b505050506040513d601f19601f820116820180604052508101906118ee9190612555565b905080611927576040517f90b8ec1800000000000000000000000000000000000000000000000000000000815260040160405180910390fd5b83853373ffffffffffffffffffffffffffffffffffffffff167fbd91f62af1740ef6fd0b373ce523c11845b4c4699f80233ee0092bfd0a222ccf60405160405180910390a450505060016000819055505050565b605081565b60026020528060005260406000206000915090508060000154908060010154908060020154908060030154908060040154908060050154908060060154908060070160009054906101000a900460ff16908060070160019054906101000a900473ffffffffffffffffffffffffffffffffffffffff16908060080160009054906101000a900473ffffffffffffffffffffffffffffffffffffffff1690508a565b60045481565b60026000541415611a6d576040517f08c379a0000000000000000000000000000000000000000000000000000000008152600401611a6490612987565b60405180910390fd5b60026000819055508160016003811115611ab0577f4e487b7100000000000000000000000000000000000000000000000000000000600052602160045260246000fd5b6002600083815260200190815260200160002060070160009054906101000a900460ff166003811115611b0c577f4e487b7100000000000000000000000000000000000000000000000000000000600052602160045260246000fd5b14611b43576040517f9206086a00000000000000000000000000000000000000000000000000000000815260040160405180910390fd5b816000811415611b7f576040517ff45911f000000000000000000000000000000000000000000000000000000000815260040160405180910390fd5b823414611bc1576040517f08c379a0000000000000000000000000000000000000000000000000000000008152600401611bb8906128e7565b60405180910390fd5b600060026000868152602001908152602001600020905083816001016000828254611bec9190612a6f565b9250508190555083858260080160009054906101000a900473ffffffffffffffffffffffffffffffffffffffff1673ffffffffffffffffffffffffffffffffffffffff167fe3f4fa74d049cf7d64965afd6ce83c826cd313cec824ecfb9aacf36886090b4960405160405180910390a450505060016000819055505050565b6000806002600084815260200190815260200160002060405180610140016040529081600082015481526020016001820154815260200160028201548152602001600382015481526020016004820154815260200160058201548152602001600682015481526020016007820160009054906101000a900460ff166003811115611d1e577f4e487b7100000000000000000000000000000000000000000000000000000000600052602160045260246000fd5b6003811115611d56577f4e487b7100000000000000000000000000000000000000000000000000000000600052602160045260246000fd5b81526020016007820160019054906101000a900473ffffffffffffffffffffffffffffffffffffffff1673ffffffffffffffffffffffffffffffffffffffff1673ffffffffffffffffffffffffffffffffffffffff1681526020016008820160009054906101000a900473ffffffffffffffffffffffffffffffffffffffff1673ffffffffffffffffffffffffffffffffffffffff1673ffffffffffffffffffffffffffffffffffffffff1681525050905060006064605060c8611e1a9190612cf8565b611e2784606001516104b3565b611e319190612c9e565b611e3b9190612afc565b90508092505050919050565b600560009054906101000a900473ffffffffffffffffffffffffffffffffffffffff1681565b60026000541415611eb3576040517f08c379a0000000000000000000000000000000000000000000000000000000008152600401611eaa90612987565b60405180910390fd5b60026000819055508160016003811115611ef6577f4e487b7100000000000000000000000000000000000000000000000000000000600052602160045260246000fd5b6002600083815260200190815260200160002060070160009054906101000a900460ff166003811115611f52577f4e487b7100000000000000000000000000000000000000000000000000000000600052602160045260246000fd5b14611f89576040517f9206086a00000000000000000000000000000000000000000000000000000000815260040160405180910390fd5b816000811415611fc5576040517ff45911f000000000000000000000000000000000000000000000000000000000815260040160405180910390fd5b6000600260008681526020019081526020016000209050600081600301549050600082600201549050818682611ffb9190612a6f565b111561201057808261200d9190612cf8565b95505b858360020160008282546120249190612a6f565b9250508190555081836002015414156120f45760028360070160006101000a81548160ff02191690836003811115612085577f4e487b7100000000000000000000000000000000000000000000000000000000600052602160045260246000fd5b021790555081878460070160019054906101000a900473ffffffffffffffffffffffffffffffffffffffff1673ffffffffffffffffffffffffffffffffffffffff167f1b8cd61ed43bec7c6bdad3a18ffee613f99c853d16c50678d248d879e1b4343860405160405180910390a45b6000600560009054906101000a900473ffffffffffffffffffffffffffffffffffffffff1673ffffffffffffffffffffffffffffffffffffffff166323b872dd33308a6040518463ffffffff1660e01b815260040161215593929190612851565b602060405180830381600087803b15801561216f57600080fd5b505af1158015612183573d6000803e3d6000fd5b505050506040513d601f19601f820116820180604052508101906121a79190612555565b9050806121e0576040517f90b8ec1800000000000000000000000000000000000000000000000000000000815260040160405180910390fd5b86888560080160009054906101000a900473ffffffffffffffffffffffffffffffffffffffff1673ffffffffffffffffffffffffffffffffffffffff167f77c6871227e5d2dec8dadd5354f78453203e22e669cd0ec4c19d9a8c5edb31d060405160405180910390a450505050505060016000819055505050565b612263612353565b73ffffffffffffffffffffffffffffffffffffffff1661228161163a565b73ffffffffffffffffffffffffffffffffffffffff16146122d7576040517f08c379a00000000000000000000000000000000000000000000000000000000081526004016122ce90612947565b60405180910390fd5b600073ffffffffffffffffffffffffffffffffffffffff168173ffffffffffffffffffffffffffffffffffffffff161415612347576040517f08c379a000000000000000000000000000000000000000000000000000000000815260040161233e90612927565b60405180910390fd5b6123508161235b565b50565b600033905090565b6000600160009054906101000a900473ffffffffffffffffffffffffffffffffffffffff16905081600160006101000a81548173ffffffffffffffffffffffffffffffffffffffff021916908373ffffffffffffffffffffffffffffffffffffffff1602179055508173ffffffffffffffffffffffffffffffffffffffff168173ffffffffffffffffffffffffffffffffffffffff167f8be0079c531659141344cd1fd0a4f28419497f9722a3daafe3b4186f6b6457e060405160405180910390a35050565b6000813590506124308161309d565b92915050565b600081519050612445816130b4565b92915050565b60008151905061245a816130cb565b92915050565b60008135905061246f816130e2565b92915050565b600081519050612484816130e2565b92915050565b60008151905061249981613110565b92915050565b6000815190506124ae816130f9565b92915050565b6000602082840312156124c657600080fd5b60006124d484828501612421565b91505092915050565b600080604083850312156124f057600080fd5b60006124fe85828601612421565b925050602061250f85828601612421565b9150509250929050565b6000806040838503121561252c57600080fd5b600061253a85828601612421565b925050602061254b85828601612460565b9150509250929050565b60006020828403121561256757600080fd5b600061257584828501612436565b91505092915050565b60006020828403121561259057600080fd5b600061259e84828501612460565b91505092915050565b600080604083850312156125ba57600080fd5b60006125c885828601612460565b92505060206125d985828601612460565b9150509250929050565b6000806000606084860312156125f857600080fd5b600061260686828701612460565b935050602061261786828701612460565b925050604061262886828701612460565b9150509250925092565b600080600080600060a0868803121561264a57600080fd5b60006126588882890161248a565b95505060206126698882890161244b565b945050604061267a88828901612475565b935050606061268b88828901612475565b925050608061269c8882890161248a565b9150509295509295909350565b6000602082840312156126bb57600080fd5b60006126c98482850161249f565b91505092915050565b6126db81612dfa565b82525050565b6126ea81612d72565b82525050565b6126f981612d60565b82525050565b61270881612e0c565b82525050565b61271781612e30565b82525050565b61272681612e54565b82525050565b6000612739600d83612a5e565b915061274482612f6d565b602082019050919050565b600061275c601983612a5e565b915061276782612f96565b602082019050919050565b600061277f602683612a5e565b915061278a82612fbf565b604082019050919050565b60006127a2602083612a5e565b91506127ad8261300e565b602082019050919050565b60006127c5601583612a5e565b91506127d082613037565b602082019050919050565b60006127e8601f83612a5e565b91506127f382613060565b602082019050919050565b61280781612dcd565b82525050565b600060208201905061282260008301846126f0565b92915050565b600060408201905061283d60008301856126d2565b61284a60208301846127fe565b9392505050565b600060608201905061286660008301866126f0565b61287360208301856126f0565b61288060408301846127fe565b949350505050565b600060408201905061289d60008301856126f0565b6128aa60208301846127fe565b9392505050565b60006020820190506128c660008301846126ff565b92915050565b60006020820190506128e1600083018461270e565b92915050565b600060208201905081810360008301526129008161272c565b9050919050565b600060208201905081810360008301526129208161274f565b9050919050565b6000602082019050818103600083015261294081612772565b9050919050565b6000602082019050818103600083015261296081612795565b9050919050565b60006020820190508181036000830152612980816127b8565b9050919050565b600060208201905081810360008301526129a0816127db565b9050919050565b60006020820190506129bc60008301846127fe565b92915050565b6000610140820190506129d8600083018d6127fe565b6129e5602083018c6127fe565b6129f2604083018b6127fe565b6129ff606083018a6127fe565b612a0c60808301896127fe565b612a1960a08301886127fe565b612a2660c08301876127fe565b612a3360e083018661271d565b612a416101008301856126e1565b612a4f6101208301846126e1565b9b9a5050505050505050505050565b600082825260208201905092915050565b6000612a7a82612dcd565b9150612a8583612dcd565b9250827fffffffffffffffffffffffffffffffffffffffffffffffffffffffffffffffff03821115612aba57612ab9612ed3565b5b828201905092915050565b6000612ad082612dd7565b9150612adb83612dd7565b92508260ff03821115612af157612af0612ed3565b5b828201905092915050565b6000612b0782612dcd565b9150612b1283612dcd565b925082612b2257612b21612f02565b5b828204905092915050565b6000808291508390505b6001851115612b7757808604811115612b5357612b52612ed3565b5b6001851615612b625780820291505b8081029050612b7085612f60565b9450612b37565b94509492505050565b6000612b8b82612dcd565b9150612b9683612dd7565b9250612bc37fffffffffffffffffffffffffffffffffffffffffffffffffffffffffffffffff8484612bcb565b905092915050565b600082612bdb5760019050612c97565b81612be95760009050612c97565b8160018114612bff5760028114612c0957612c38565b6001915050612c97565b60ff841115612c1b57612c1a612ed3565b5b8360020a915084821115612c3257612c31612ed3565b5b50612c97565b5060208310610133831016604e8410600b8410161715612c6d5782820a905083811115612c6857612c67612ed3565b5b612c97565b612c7a8484846001612b2d565b92509050818404811115612c9157612c90612ed3565b5b81810290505b9392505050565b6000612ca982612dcd565b9150612cb483612dcd565b9250817fffffffffffffffffffffffffffffffffffffffffffffffffffffffffffffffff0483118215151615612ced57612cec612ed3565b5b828202905092915050565b6000612d0382612dcd565b9150612d0e83612dcd565b925082821015612d2157612d20612ed3565b5b828203905092915050565b6000612d3782612dd7565b9150612d4283612dd7565b925082821015612d5557612d54612ed3565b5b828203905092915050565b6000612d6b82612dad565b9050919050565b6000612d7d82612dad565b9050919050565b60008115159050919050565b6000819050612d9e82613089565b919050565b6000819050919050565b600073ffffffffffffffffffffffffffffffffffffffff82169050919050565b6000819050919050565b600060ff82169050919050565b600069ffffffffffffffffffff82169050919050565b6000612e0582612e66565b9050919050565b6000612e1782612e1e565b9050919050565b6000612e2982612dad565b9050919050565b6000612e3b82612e42565b9050919050565b6000612e4d82612dad565b9050919050565b6000612e5f82612d90565b9050919050565b6000612e7182612e78565b9050919050565b6000612e8382612dad565b9050919050565b6000612e9582612dcd565b91507fffffffffffffffffffffffffffffffffffffffffffffffffffffffffffffffff821415612ec857612ec7612ed3565b5b600182019050919050565b7f4e487b7100000000000000000000000000000000000000000000000000000000600052601160045260246000fd5b7f4e487b7100000000000000000000000000000000000000000000000000000000600052601260045260246000fd5b7f4e487b7100000000000000000000000000000000000000000000000000000000600052602160045260246000fd5b60008160011c9050919050565b7f45544820213d20616d6f756e7400000000000000000000000000000000000000600082015250565b7f41677265656d656e74206e6f7420736574746c65642079657400000000000000600082015250565b7f4f776e61626c653a206e6577206f776e657220697320746865207a65726f206160008201527f6464726573730000000000000000000000000000000000000000000000000000602082015250565b7f4f776e61626c653a2063616c6c6572206973206e6f7420746865206f776e6572600082015250565b7f4e6f7420656e6f75676820636f6c6c61746572616c0000000000000000000000600082015250565b7f5265656e7472616e637947756172643a207265656e7472616e742063616c6c00600082015250565b6004811061309a57613099612f31565b5b50565b6130a681612d60565b81146130b157600080fd5b50565b6130bd81612d84565b81146130c857600080fd5b50565b6130d481612da3565b81146130df57600080fd5b50565b6130eb81612dcd565b81146130f657600080fd5b50565b61310281612dd7565b811461310d57600080fd5b50565b61311981612de4565b811461312457600080fd5b5056fea2646970667358221220c072c19a922ab78fedbc9ed8130ef0634e7ced202b42fb1c60337094ae3526e664736f6c63430008040033",
  "devdoc": {
    "kind": "dev",
    "methods": {
      "owner()": {
        "details": "Returns the address of the current owner."
      },
      "renounceOwnership()": {
        "details": "Leaves the contract without owner. It will not be possible to call `onlyOwner` functions anymore. Can only be called by the current owner. NOTE: Renouncing ownership will leave the contract without an owner, thereby removing any functionality that is only available to the owner."
      },
      "transferOwnership(address)": {
        "details": "Transfers ownership of the contract to a new account (`newOwner`). Can only be called by the current owner."
      }
    },
    "version": 1
  },
  "userdoc": {
    "kind": "user",
    "methods": {},
    "version": 1
  },
  "storageLayout": {
    "storage": [
      {
        "astId": 311,
        "contract": "contracts/Exchange.sol:Exchange",
        "label": "_status",
        "offset": 0,
        "slot": "0",
        "type": "t_uint256"
      },
      {
        "astId": 111,
        "contract": "contracts/Exchange.sol:Exchange",
        "label": "_owner",
        "offset": 0,
        "slot": "1",
        "type": "t_address"
      },
      {
        "astId": 1244,
        "contract": "contracts/Exchange.sol:Exchange",
        "label": "s_idToAgreement",
        "offset": 0,
        "slot": "2",
        "type": "t_mapping(t_uint256,t_struct(Agreement)1225_storage)"
      },
      {
        "astId": 1249,
        "contract": "contracts/Exchange.sol:Exchange",
        "label": "s_accountToIDs",
        "offset": 0,
        "slot": "3",
        "type": "t_mapping(t_address,t_array(t_uint256)dyn_storage)"
      },
      {
        "astId": 1251,
        "contract": "contracts/Exchange.sol:Exchange",
        "label": "s_numIDs",
        "offset": 0,
        "slot": "4",
        "type": "t_uint256"
      },
      {
        "astId": 1254,
        "contract": "contracts/Exchange.sol:Exchange",
        "label": "s_lenderToken",
        "offset": 0,
        "slot": "5",
        "type": "t_contract(IToken)2544"
      },
      {
        "astId": 1257,
        "contract": "contracts/Exchange.sol:Exchange",
        "label": "s_priceFeed",
        "offset": 0,
        "slot": "6",
        "type": "t_contract(AggregatorV3Interface)84"
      }
    ],
    "types": {
      "t_address": {
        "encoding": "inplace",
        "label": "address",
        "numberOfBytes": "20"
      },
      "t_address_payable": {
        "encoding": "inplace",
        "label": "address payable",
        "numberOfBytes": "20"
      },
      "t_array(t_uint256)dyn_storage": {
        "base": "t_uint256",
        "encoding": "dynamic_array",
        "label": "uint256[]",
        "numberOfBytes": "32"
      },
      "t_contract(AggregatorV3Interface)84": {
        "encoding": "inplace",
        "label": "contract AggregatorV3Interface",
        "numberOfBytes": "20"
      },
      "t_contract(IToken)2544": {
        "encoding": "inplace",
        "label": "contract IToken",
        "numberOfBytes": "20"
      },
      "t_enum(Status)1203": {
        "encoding": "inplace",
        "label": "enum Status",
        "numberOfBytes": "1"
      },
      "t_mapping(t_address,t_array(t_uint256)dyn_storage)": {
        "encoding": "mapping",
        "key": "t_address",
        "label": "mapping(address => uint256[])",
        "numberOfBytes": "32",
        "value": "t_array(t_uint256)dyn_storage"
      },
      "t_mapping(t_uint256,t_struct(Agreement)1225_storage)": {
        "encoding": "mapping",
        "key": "t_uint256",
        "label": "mapping(uint256 => struct Agreement)",
        "numberOfBytes": "32",
        "value": "t_struct(Agreement)1225_storage"
      },
      "t_struct(Agreement)1225_storage": {
        "encoding": "inplace",
        "label": "struct Agreement",
        "members": [
          {
            "astId": 1205,
            "contract": "contracts/Exchange.sol:Exchange",
            "label": "deposit",
            "offset": 0,
            "slot": "0",
            "type": "t_uint256"
          },
          {
            "astId": 1207,
            "contract": "contracts/Exchange.sol:Exchange",
            "label": "collateral",
            "offset": 0,
            "slot": "1",
            "type": "t_uint256"
          },
          {
            "astId": 1209,
            "contract": "contracts/Exchange.sol:Exchange",
            "label": "repaidAmt",
            "offset": 0,
            "slot": "2",
            "type": "t_uint256"
          },
          {
            "astId": 1211,
            "contract": "contracts/Exchange.sol:Exchange",
            "label": "futureValue",
            "offset": 0,
            "slot": "3",
            "type": "t_uint256"
          },
          {
            "astId": 1213,
            "contract": "contracts/Exchange.sol:Exchange",
            "label": "start",
            "offset": 0,
            "slot": "4",
            "type": "t_uint256"
          },
          {
            "astId": 1215,
            "contract": "contracts/Exchange.sol:Exchange",
            "label": "duration",
            "offset": 0,
            "slot": "5",
            "type": "t_uint256"
          },
          {
            "astId": 1217,
            "contract": "contracts/Exchange.sol:Exchange",
            "label": "rate",
            "offset": 0,
            "slot": "6",
            "type": "t_uint256"
          },
          {
            "astId": 1220,
            "contract": "contracts/Exchange.sol:Exchange",
            "label": "status",
            "offset": 0,
            "slot": "7",
            "type": "t_enum(Status)1203"
          },
          {
            "astId": 1222,
            "contract": "contracts/Exchange.sol:Exchange",
            "label": "lender",
            "offset": 1,
            "slot": "7",
            "type": "t_address_payable"
          },
          {
            "astId": 1224,
            "contract": "contracts/Exchange.sol:Exchange",
            "label": "borrower",
            "offset": 0,
            "slot": "8",
            "type": "t_address_payable"
          }
        ],
        "numberOfBytes": "288"
      },
      "t_uint256": {
        "encoding": "inplace",
        "label": "uint256",
        "numberOfBytes": "32"
      }
    }
  }
}