{
  "address": "0xCf7Ed3AccA5a467e9e704C703E8D87F634fB0Fc9",
  "abi": [
    {
      "inputs": [],
      "name": "NeedsMoreThanZero",
      "type": "error"
    },
    {
      "inputs": [],
      "name": "NeedsToBeActive",
      "type": "error"
    },
    {
      "inputs": [],
      "name": "NeedsToBeBorrower",
      "type": "error"
    },
    {
      "inputs": [],
      "name": "NeedsToBeLender",
      "type": "error"
    },
    {
      "inputs": [],
      "name": "TransferFailed",
      "type": "error"
    },
    {
      "anonymous": false,
      "inputs": [
        {
          "indexed": true,
          "internalType": "address",
          "name": "borrower",
          "type": "address"
        },
        {
          "indexed": true,
          "internalType": "uint256",
          "name": "id",
          "type": "uint256"
        },
        {
          "indexed": true,
          "internalType": "uint256",
          "name": "amount",
          "type": "uint256"
        }
      ],
      "name": "Activate",
      "type": "event"
    },
    {
      "anonymous": false,
      "inputs": [
        {
          "indexed": true,
          "internalType": "address",
          "name": "borrower",
          "type": "address"
        },
        {
          "indexed": true,
          "internalType": "uint256",
          "name": "id",
          "type": "uint256"
        },
        {
          "indexed": true,
          "internalType": "uint256",
          "name": "amount",
          "type": "uint256"
        }
      ],
      "name": "AddCollateral",
      "type": "event"
    },
    {
      "anonymous": false,
      "inputs": [
        {
          "indexed": true,
          "internalType": "address",
          "name": "lender",
          "type": "address"
        },
        {
          "indexed": true,
          "internalType": "address",
          "name": "borrower",
          "type": "address"
        },
        {
          "indexed": true,
          "internalType": "uint256",
          "name": "id",
          "type": "uint256"
        }
      ],
      "name": "Closed",
      "type": "event"
    },
    {
      "anonymous": false,
      "inputs": [
        {
          "indexed": true,
          "internalType": "address",
          "name": "borrower",
          "type": "address"
        },
        {
          "indexed": false,
          "internalType": "uint256",
          "name": "remainingValue",
          "type": "uint256"
        }
      ],
      "name": "Liquidate",
      "type": "event"
    },
    {
      "anonymous": false,
      "inputs": [
        {
          "indexed": true,
          "internalType": "address",
          "name": "previousOwner",
          "type": "address"
        },
        {
          "indexed": true,
          "internalType": "address",
          "name": "newOwner",
          "type": "address"
        }
      ],
      "name": "OwnershipTransferred",
      "type": "event"
    },
    {
      "anonymous": false,
      "inputs": [
        {
          "indexed": true,
          "internalType": "address",
          "name": "lender",
          "type": "address"
        },
        {
          "indexed": true,
          "internalType": "uint256",
          "name": "id",
          "type": "uint256"
        },
        {
          "indexed": true,
          "internalType": "uint256",
          "name": "amount",
          "type": "uint256"
        }
      ],
      "name": "Propose",
      "type": "event"
    },
    {
      "anonymous": false,
      "inputs": [
        {
          "indexed": false,
          "internalType": "address",
          "name": "sender",
          "type": "address"
        },
        {
          "indexed": false,
          "internalType": "uint256",
          "name": "amount",
          "type": "uint256"
        }
      ],
      "name": "Received",
      "type": "event"
    },
    {
      "anonymous": false,
      "inputs": [
        {
          "indexed": true,
          "internalType": "address",
          "name": "lender",
          "type": "address"
        },
        {
          "indexed": true,
          "internalType": "uint256",
          "name": "id",
          "type": "uint256"
        },
        {
          "indexed": true,
          "internalType": "uint256",
          "name": "amount",
          "type": "uint256"
        }
      ],
      "name": "Repaid",
      "type": "event"
    },
    {
      "anonymous": false,
      "inputs": [
        {
          "indexed": true,
          "internalType": "address",
          "name": "borrower",
          "type": "address"
        },
        {
          "indexed": true,
          "internalType": "uint256",
          "name": "id",
          "type": "uint256"
        },
        {
          "indexed": true,
          "internalType": "uint256",
          "name": "amount",
          "type": "uint256"
        }
      ],
      "name": "Repay",
      "type": "event"
    },
    {
      "anonymous": false,
      "inputs": [
        {
          "indexed": true,
          "internalType": "address",
          "name": "borrower",
          "type": "address"
        },
        {
          "indexed": true,
          "internalType": "uint256",
          "name": "id",
          "type": "uint256"
        },
        {
          "indexed": true,
          "internalType": "uint256",
          "name": "amount",
          "type": "uint256"
        }
      ],
      "name": "WithdrawCollateral",
      "type": "event"
    },
    {
      "inputs": [],
      "name": "LIQUIDATION_THRESHOLD",
      "outputs": [
        {
          "internalType": "uint256",
          "name": "",
          "type": "uint256"
        }
      ],
      "stateMutability": "view",
      "type": "function"
    },
    {
      "inputs": [
        {
          "internalType": "uint256",
          "name": "id",
          "type": "uint256"
        },
        {
          "internalType": "uint256",
          "name": "amount",
          "type": "uint256"
        }
      ],
      "name": "activate",
      "outputs": [],
      "stateMutability": "payable",
      "type": "function"
    },
    {
      "inputs": [
        {
          "internalType": "uint256",
          "name": "id",
          "type": "uint256"
        },
        {
          "internalType": "uint256",
          "name": "amount",
          "type": "uint256"
        }
      ],
      "name": "addCollateral",
      "outputs": [],
      "stateMutability": "payable",
      "type": "function"
    },
    {
      "inputs": [
        {
          "internalType": "uint256",
          "name": "id",
          "type": "uint256"
        }
      ],
      "name": "close",
      "outputs": [],
      "stateMutability": "nonpayable",
      "type": "function"
    },
    {
      "inputs": [
        {
          "internalType": "uint256",
          "name": "amount",
          "type": "uint256"
        }
      ],
      "name": "getEthValueFromToken",
      "outputs": [
        {
          "internalType": "uint256",
          "name": "",
          "type": "uint256"
        }
      ],
      "stateMutability": "view",
      "type": "function"
    },
    {
      "inputs": [
        {
          "internalType": "uint256",
          "name": "id",
          "type": "uint256"
        }
      ],
      "name": "getMinReqCollateral",
      "outputs": [
        {
          "internalType": "uint256",
          "name": "",
          "type": "uint256"
        }
      ],
      "stateMutability": "view",
      "type": "function"
    },
    {
      "inputs": [
        {
          "internalType": "address",
          "name": "account",
          "type": "address"
        },
        {
          "internalType": "uint256",
          "name": "amount",
          "type": "uint256"
        }
      ],
      "name": "mint",
      "outputs": [],
      "stateMutability": "nonpayable",
      "type": "function"
    },
    {
      "inputs": [],
      "name": "owner",
      "outputs": [
        {
          "internalType": "address",
          "name": "",
          "type": "address"
        }
      ],
      "stateMutability": "view",
      "type": "function"
    },
    {
      "inputs": [
        {
          "internalType": "uint256",
          "name": "amount",
          "type": "uint256"
        },
        {
          "internalType": "uint256",
          "name": "duration",
          "type": "uint256"
        },
        {
          "internalType": "uint256",
          "name": "rate",
          "type": "uint256"
        }
      ],
      "name": "propose",
      "outputs": [
        {
          "internalType": "uint256",
          "name": "id",
          "type": "uint256"
        }
      ],
      "stateMutability": "nonpayable",
      "type": "function"
    },
    {
      "inputs": [],
      "name": "renounceOwnership",
      "outputs": [],
      "stateMutability": "nonpayable",
      "type": "function"
    },
    {
      "inputs": [
        {
          "internalType": "uint256",
          "name": "id",
          "type": "uint256"
        },
        {
          "internalType": "uint256",
          "name": "amount",
          "type": "uint256"
        }
      ],
      "name": "repay",
      "outputs": [],
      "stateMutability": "nonpayable",
      "type": "function"
    },
    {
      "inputs": [
        {
          "internalType": "address",
          "name": "",
          "type": "address"
        },
        {
          "internalType": "uint256",
          "name": "",
          "type": "uint256"
        }
      ],
      "name": "s_accountToIDs",
      "outputs": [
        {
          "internalType": "uint256",
          "name": "",
          "type": "uint256"
        }
      ],
      "stateMutability": "view",
      "type": "function"
    },
    {
      "inputs": [
        {
          "internalType": "uint256",
          "name": "",
          "type": "uint256"
        }
      ],
      "name": "s_idToAgreement",
      "outputs": [
        {
          "internalType": "uint256",
          "name": "deposit",
          "type": "uint256"
        },
        {
          "internalType": "uint256",
          "name": "collateral",
          "type": "uint256"
        },
        {
          "internalType": "uint256",
          "name": "repaidAmt",
          "type": "uint256"
        },
        {
          "internalType": "uint256",
          "name": "futureValue",
          "type": "uint256"
        },
        {
          "internalType": "uint256",
          "name": "start",
          "type": "uint256"
        },
        {
          "internalType": "uint256",
          "name": "duration",
          "type": "uint256"
        },
        {
          "internalType": "uint256",
          "name": "rate",
          "type": "uint256"
        },
        {
          "internalType": "enum Status",
          "name": "status",
          "type": "uint8"
        },
        {
          "internalType": "address payable",
          "name": "lender",
          "type": "address"
        },
        {
          "internalType": "address payable",
          "name": "borrower",
          "type": "address"
        }
      ],
      "stateMutability": "view",
      "type": "function"
    },
    {
      "inputs": [],
      "name": "s_lenderToken",
      "outputs": [
        {
          "internalType": "contract IToken",
          "name": "",
          "type": "address"
        }
      ],
      "stateMutability": "view",
      "type": "function"
    },
    {
      "inputs": [],
      "name": "s_numIDs",
      "outputs": [
        {
          "internalType": "uint256",
          "name": "",
          "type": "uint256"
        }
      ],
      "stateMutability": "view",
      "type": "function"
    },
    {
      "inputs": [],
      "name": "s_priceFeed",
      "outputs": [
        {
          "internalType": "contract AggregatorV3Interface",
          "name": "",
          "type": "address"
        }
      ],
      "stateMutability": "view",
      "type": "function"
    },
    {
      "inputs": [
        {
          "internalType": "address",
          "name": "token",
          "type": "address"
        },
        {
          "internalType": "address",
          "name": "priceFeed",
          "type": "address"
        }
      ],
      "name": "setLenderToken",
      "outputs": [],
      "stateMutability": "nonpayable",
      "type": "function"
    },
    {
      "inputs": [
        {
          "internalType": "address",
          "name": "newOwner",
          "type": "address"
        }
      ],
      "name": "transferOwnership",
      "outputs": [],
      "stateMutability": "nonpayable",
      "type": "function"
    },
    {
      "inputs": [
        {
          "internalType": "uint256",
          "name": "id",
          "type": "uint256"
        },
        {
          "internalType": "uint256",
          "name": "amount",
          "type": "uint256"
        }
      ],
      "name": "withdrawCollateral",
      "outputs": [],
      "stateMutability": "nonpayable",
      "type": "function"
    },
    {
      "stateMutability": "payable",
      "type": "receive"
    }
  ],
  "transactionHash": "0x5d9b9ae6d4564935d6b072f5a7ba8b1fb11112e667274c4dbdfe83683962f69d",
  "args": [],
  "numDeployments": 1,
  "solcInputHash": "44c3a8ec557a809c977182606f276b9b",
  "bytecode": "0x60806040523480156200001157600080fd5b5060016000819055506200003a6200002e6200004060201b60201c565b6200004860201b60201c565b6200010e565b600033905090565b6000600160009054906101000a900473ffffffffffffffffffffffffffffffffffffffff16905081600160006101000a81548173ffffffffffffffffffffffffffffffffffffffff021916908373ffffffffffffffffffffffffffffffffffffffff1602179055508173ffffffffffffffffffffffffffffffffffffffff168173ffffffffffffffffffffffffffffffffffffffff167f8be0079c531659141344cd1fd0a4f28419497f9722a3daafe3b4186f6b6457e060405160405180910390a35050565b6131b0806200011e6000396000f3fe6080604052600436106101185760003560e01c80638da5cb5b116100a0578063a8f35adf11610064578063a8f35adf146103dd578063d35b0adc146103f9578063d51ac14414610436578063d8aed14514610461578063f2fde38b1461048a57610158565b80638da5cb5b146102fa5780638ea8f83c1461032557806390a8ae9b146103415780639bf9e7151461036c578063a32d1968146103b257610158565b806340376d56116100e757806340376d561461021757806340c10f19146102545780635177e3421461027d578063715018a6146102ba578063767a7b05146102d157610158565b8063030fdffb1461015d5780630aebeb4e1461019a5780630ec3b027146101c35780631f9ff79d146101ee57610158565b36610158577f88a5966d370b9919b20f3e2c13ff65706f196a4e32cc2c12bf57088f88525874333460405161014e9291906128db565b60405180910390a1005b600080fd5b34801561016957600080fd5b50610184600480360381019061017f91906125d1565b6104b3565b60405161019191906129fa565b60405180910390f35b3480156101a657600080fd5b506101c160048036038101906101bc91906125d1565b6106e8565b005b3480156101cf57600080fd5b506101d8610b0e565b6040516101e59190612904565b60405180910390f35b3480156101fa57600080fd5b5061021560048036038101906102109190612530565b610b34565b005b34801561022357600080fd5b5061023e60048036038101906102399190612636565b610c36565b60405161024b91906129fa565b60405180910390f35b34801561026057600080fd5b5061027b6004803603810190610276919061256c565b6110b4565b005b34801561028957600080fd5b506102a4600480360381019061029f919061256c565b611147565b6040516102b191906129fa565b60405180910390f35b3480156102c657600080fd5b506102cf611178565b005b3480156102dd57600080fd5b506102f860048036038101906102f391906125fa565b611200565b005b34801561030657600080fd5b5061030f61168d565b60405161031c9190612860565b60405180910390f35b61033f600480360381019061033a91906125fa565b6116b7565b005b34801561034d57600080fd5b506103566119ce565b60405161036391906129fa565b60405180910390f35b34801561037857600080fd5b50610393600480360381019061038e91906125d1565b6119d3565b6040516103a99a99989796959493929190612a15565b60405180910390f35b3480156103be57600080fd5b506103c7611a74565b6040516103d491906129fa565b60405180910390f35b6103f760048036038101906103f291906125fa565b611a7a565b005b34801561040557600080fd5b50610420600480360381019061041b91906125d1565b611cbe565b60405161042d91906129fa565b60405180910390f35b34801561044257600080fd5b5061044b611e9a565b604051610458919061291f565b60405180910390f35b34801561046d57600080fd5b50610488600480360381019061048391906125fa565b611ec0565b005b34801561049657600080fd5b506104b160048036038101906104ac9190612507565b6122ae565b005b600080600660009054906101000a900473ffffffffffffffffffffffffffffffffffffffff1673ffffffffffffffffffffffffffffffffffffffff1663feaf968c6040518163ffffffff1660e01b815260040160a06040518083038186803b15801561051e57600080fd5b505afa158015610532573d6000803e3d6000fd5b505050506040513d601f19601f820116820180604052508101906105569190612685565b5050509150506000600660009054906101000a900473ffffffffffffffffffffffffffffffffffffffff1673ffffffffffffffffffffffffffffffffffffffff1663313ce5676040518163ffffffff1660e01b815260040160206040518083038186803b1580156105c657600080fd5b505afa1580156105da573d6000803e3d6000fd5b505050506040513d601f19601f820116820180604052508101906105fe91906126fc565b90506000600560009054906101000a900473ffffffffffffffffffffffffffffffffffffffff1673ffffffffffffffffffffffffffffffffffffffff1663313ce5676040518163ffffffff1660e01b815260040160206040518083038186803b15801561066a57600080fd5b505afa15801561067e573d6000803e3d6000fd5b505050506040513d601f19601f820116820180604052508101906106a291906126fc565b905082818360126106b39190612b18565b6106bd9190612d7f565b600a6106c99190612bd3565b866106d49190612cf1565b6106de9190612b4f565b9350505050919050565b6002600054141561072e576040517f08c379a0000000000000000000000000000000000000000000000000000000008152600401610725906129da565b60405180910390fd5b6002600081905550803373ffffffffffffffffffffffffffffffffffffffff166002600083815260200190815260200160002060070160019054906101000a900473ffffffffffffffffffffffffffffffffffffffff1673ffffffffffffffffffffffffffffffffffffffff16146107d2576040517f3a7d412400000000000000000000000000000000000000000000000000000000815260040160405180910390fd5b816002600381111561080d577f4e487b7100000000000000000000000000000000000000000000000000000000600052602160045260246000fd5b6002600083815260200190815260200160002060070160009054906101000a900460ff166003811115610869577f4e487b7100000000000000000000000000000000000000000000000000000000600052602160045260246000fd5b146108a0576040517f9206086a00000000000000000000000000000000000000000000000000000000815260040160405180910390fd5b6000600260008581526020019081526020016000209050600081600301549050808260020154146108fa577f4e487b7100000000000000000000000000000000000000000000000000000000600052600160045260246000fd5b6000600560009054906101000a900473ffffffffffffffffffffffffffffffffffffffff1673ffffffffffffffffffffffffffffffffffffffff1663a9059cbb8460070160019054906101000a900473ffffffffffffffffffffffffffffffffffffffff16846040518363ffffffff1660e01b815260040161097d92919061287b565b602060405180830381600087803b15801561099757600080fd5b505af11580156109ab573d6000803e3d6000fd5b505050506040513d601f19601f820116820180604052508101906109cf91906125a8565b905080610a08576040517f90b8ec1800000000000000000000000000000000000000000000000000000000815260040160405180910390fd5b858360080160009054906101000a900473ffffffffffffffffffffffffffffffffffffffff1673ffffffffffffffffffffffffffffffffffffffff168460070160019054906101000a900473ffffffffffffffffffffffffffffffffffffffff1673ffffffffffffffffffffffffffffffffffffffff167f62d095e2c4513ab737ede7cbd30334eccb10424cbc543ebb5c458b5174cddcd560405160405180910390a460038360070160006101000a81548160ff02191690836003811115610af9577f4e487b7100000000000000000000000000000000000000000000000000000000600052602160045260246000fd5b02179055505050505050600160008190555050565b600660009054906101000a900473ffffffffffffffffffffffffffffffffffffffff1681565b610b3c6123a6565b73ffffffffffffffffffffffffffffffffffffffff16610b5a61168d565b73ffffffffffffffffffffffffffffffffffffffff1614610bb0576040517f08c379a0000000000000000000000000000000000000000000000000000000008152600401610ba79061299a565b60405180910390fd5b81600560006101000a81548173ffffffffffffffffffffffffffffffffffffffff021916908373ffffffffffffffffffffffffffffffffffffffff16021790555080600660006101000a81548173ffffffffffffffffffffffffffffffffffffffff021916908373ffffffffffffffffffffffffffffffffffffffff1602179055505050565b600060026000541415610c7e576040517f08c379a0000000000000000000000000000000000000000000000000000000008152600401610c75906129da565b60405180910390fd5b6002600081905550836000811415610cc2576040517ff45911f000000000000000000000000000000000000000000000000000000000815260040160405180910390fd5b60006103e885856103e8610cd69190612ac2565b88610ce19190612cf1565b610ceb9190612cf1565b610cf59190612b4f565b9050600060405180610140016040528088815260200160008152602001600081526020018381526020016000815260200187815260200186815260200160006003811115610d6c577f4e487b7100000000000000000000000000000000000000000000000000000000600052602160045260246000fd5b81526020013373ffffffffffffffffffffffffffffffffffffffff168152602001600073ffffffffffffffffffffffffffffffffffffffff1681525090506000600560009054906101000a900473ffffffffffffffffffffffffffffffffffffffff1673ffffffffffffffffffffffffffffffffffffffff166323b872dd33308b6040518463ffffffff1660e01b8152600401610e0b939291906128a4565b602060405180830381600087803b158015610e2557600080fd5b505af1158015610e39573d6000803e3d6000fd5b505050506040513d601f19601f82011682018060405250810190610e5d91906125a8565b905080610e96576040517f90b8ec1800000000000000000000000000000000000000000000000000000000815260040160405180910390fd5b60046000815480929190610ea990612edd565b919050555060045494508160026000878152602001908152602001600020600082015181600001556020820151816001015560408201518160020155606082015181600301556080820151816004015560a0820151816005015560c0820151816006015560e08201518160070160006101000a81548160ff02191690836003811115610f5e577f4e487b7100000000000000000000000000000000000000000000000000000000600052602160045260246000fd5b02179055506101008201518160070160016101000a81548173ffffffffffffffffffffffffffffffffffffffff021916908373ffffffffffffffffffffffffffffffffffffffff1602179055506101208201518160080160006101000a81548173ffffffffffffffffffffffffffffffffffffffff021916908373ffffffffffffffffffffffffffffffffffffffff160217905550905050600360003373ffffffffffffffffffffffffffffffffffffffff1673ffffffffffffffffffffffffffffffffffffffff16815260200190815260200160002085908060018154018082558091505060019003906000526020600020016000909190919091505587853373ffffffffffffffffffffffffffffffffffffffff167ffcb5913d5cff8e37667ef76381030e4118bc2091969ecf14726dd959e0e15c0760405160405180910390a45050505060016000819055509392505050565b600560009054906101000a900473ffffffffffffffffffffffffffffffffffffffff1673ffffffffffffffffffffffffffffffffffffffff166340c10f1983836040518363ffffffff1660e01b81526004016111119291906128db565b600060405180830381600087803b15801561112b57600080fd5b505af115801561113f573d6000803e3d6000fd5b505050505050565b6003602052816000526040600020818154811061116357600080fd5b90600052602060002001600091509150505481565b6111806123a6565b73ffffffffffffffffffffffffffffffffffffffff1661119e61168d565b73ffffffffffffffffffffffffffffffffffffffff16146111f4576040517f08c379a00000000000000000000000000000000000000000000000000000000081526004016111eb9061299a565b60405180910390fd5b6111fe60006123ae565b565b60026000541415611246576040517f08c379a000000000000000000000000000000000000000000000000000000000815260040161123d906129da565b60405180910390fd5b6002600081905550813373ffffffffffffffffffffffffffffffffffffffff166002600083815260200190815260200160002060080160009054906101000a900473ffffffffffffffffffffffffffffffffffffffff1673ffffffffffffffffffffffffffffffffffffffff16146112ea576040517fc0e58a0500000000000000000000000000000000000000000000000000000000815260040160405180910390fd5b816000811415611326576040517ff45911f000000000000000000000000000000000000000000000000000000000815260040160405180910390fd5b600060026000868152602001908152602001600020905060008160070160009054906101000a900460ff169050600082600101549050600061136788611cbe565b9050600160038111156113a3577f4e487b7100000000000000000000000000000000000000000000000000000000600052602160045260246000fd5b8360038111156113dc577f4e487b7100000000000000000000000000000000000000000000000000000000600052602160045260246000fd5b1415611434578087836113ef9190612d4b565b1161142f576040517f08c379a0000000000000000000000000000000000000000000000000000000008152600401611426906129ba565b60405180910390fd5b611562565b6002600381111561146e577f4e487b7100000000000000000000000000000000000000000000000000000000600052602160045260246000fd5b8360038111156114a7577f4e487b7100000000000000000000000000000000000000000000000000000000600052602160045260246000fd5b148061152257506003808111156114e7577f4e487b7100000000000000000000000000000000000000000000000000000000600052602160045260246000fd5b836003811115611520577f4e487b7100000000000000000000000000000000000000000000000000000000600052602160045260246000fd5b145b611561576040517f08c379a00000000000000000000000000000000000000000000000000000000081526004016115589061295a565b60405180910390fd5b5b868460010160008282546115769190612d4b565b9250508190555060008460080160009054906101000a900473ffffffffffffffffffffffffffffffffffffffff1673ffffffffffffffffffffffffffffffffffffffff166108fc899081150290604051600060405180830381858888f19350505050905080611611576040517f90b8ec1800000000000000000000000000000000000000000000000000000000815260040160405180910390fd5b87898660080160009054906101000a900473ffffffffffffffffffffffffffffffffffffffff1673ffffffffffffffffffffffffffffffffffffffff167f627a692d5a03ab34732c0d2aa319f3ecdebdc4528f383eabcb25441dc0a70cfb60405160405180910390a45050505050505060016000819055505050565b6000600160009054906101000a900473ffffffffffffffffffffffffffffffffffffffff16905090565b600260005414156116fd576040517f08c379a00000000000000000000000000000000000000000000000000000000081526004016116f4906129da565b60405180910390fd5b6002600081905550346000811415611741576040517ff45911f000000000000000000000000000000000000000000000000000000000815260040160405180910390fd5b813414611783576040517f08c379a000000000000000000000000000000000000000000000000000000000815260040161177a9061293a565b60405180910390fd5b61178c83611cbe565b82116117cd576040517f08c379a00000000000000000000000000000000000000000000000000000000081526004016117c4906129ba565b60405180910390fd5b6000600260008581526020019081526020016000209050428160040181905550338160080160006101000a81548173ffffffffffffffffffffffffffffffffffffffff021916908373ffffffffffffffffffffffffffffffffffffffff16021790555060018160070160006101000a81548160ff0219169083600381111561187e577f4e487b7100000000000000000000000000000000000000000000000000000000600052602160045260246000fd5b02179055508281600101819055506000600560009054906101000a900473ffffffffffffffffffffffffffffffffffffffff1673ffffffffffffffffffffffffffffffffffffffff1663a9059cbb3384600001546040518363ffffffff1660e01b81526004016118ef9291906128db565b602060405180830381600087803b15801561190957600080fd5b505af115801561191d573d6000803e3d6000fd5b505050506040513d601f19601f8201168201806040525081019061194191906125a8565b90508061197a576040517f90b8ec1800000000000000000000000000000000000000000000000000000000815260040160405180910390fd5b83853373ffffffffffffffffffffffffffffffffffffffff167fbd91f62af1740ef6fd0b373ce523c11845b4c4699f80233ee0092bfd0a222ccf60405160405180910390a450505060016000819055505050565b605081565b60026020528060005260406000206000915090508060000154908060010154908060020154908060030154908060040154908060050154908060060154908060070160009054906101000a900460ff16908060070160019054906101000a900473ffffffffffffffffffffffffffffffffffffffff16908060080160009054906101000a900473ffffffffffffffffffffffffffffffffffffffff1690508a565b60045481565b60026000541415611ac0576040517f08c379a0000000000000000000000000000000000000000000000000000000008152600401611ab7906129da565b60405180910390fd5b60026000819055508160016003811115611b03577f4e487b7100000000000000000000000000000000000000000000000000000000600052602160045260246000fd5b6002600083815260200190815260200160002060070160009054906101000a900460ff166003811115611b5f577f4e487b7100000000000000000000000000000000000000000000000000000000600052602160045260246000fd5b14611b96576040517f9206086a00000000000000000000000000000000000000000000000000000000815260040160405180910390fd5b816000811415611bd2576040517ff45911f000000000000000000000000000000000000000000000000000000000815260040160405180910390fd5b823414611c14576040517f08c379a0000000000000000000000000000000000000000000000000000000008152600401611c0b9061293a565b60405180910390fd5b600060026000868152602001908152602001600020905083816001016000828254611c3f9190612ac2565b9250508190555083858260080160009054906101000a900473ffffffffffffffffffffffffffffffffffffffff1673ffffffffffffffffffffffffffffffffffffffff167fe3f4fa74d049cf7d64965afd6ce83c826cd313cec824ecfb9aacf36886090b4960405160405180910390a450505060016000819055505050565b6000806002600084815260200190815260200160002060405180610140016040529081600082015481526020016001820154815260200160028201548152602001600382015481526020016004820154815260200160058201548152602001600682015481526020016007820160009054906101000a900460ff166003811115611d71577f4e487b7100000000000000000000000000000000000000000000000000000000600052602160045260246000fd5b6003811115611da9577f4e487b7100000000000000000000000000000000000000000000000000000000600052602160045260246000fd5b81526020016007820160019054906101000a900473ffffffffffffffffffffffffffffffffffffffff1673ffffffffffffffffffffffffffffffffffffffff1673ffffffffffffffffffffffffffffffffffffffff1681526020016008820160009054906101000a900473ffffffffffffffffffffffffffffffffffffffff1673ffffffffffffffffffffffffffffffffffffffff1673ffffffffffffffffffffffffffffffffffffffff1681525050905060006064605060c8611e6d9190612d4b565b611e7a84606001516104b3565b611e849190612cf1565b611e8e9190612b4f565b90508092505050919050565b600560009054906101000a900473ffffffffffffffffffffffffffffffffffffffff1681565b60026000541415611f06576040517f08c379a0000000000000000000000000000000000000000000000000000000008152600401611efd906129da565b60405180910390fd5b60026000819055508160016003811115611f49577f4e487b7100000000000000000000000000000000000000000000000000000000600052602160045260246000fd5b6002600083815260200190815260200160002060070160009054906101000a900460ff166003811115611fa5577f4e487b7100000000000000000000000000000000000000000000000000000000600052602160045260246000fd5b14611fdc576040517f9206086a00000000000000000000000000000000000000000000000000000000815260040160405180910390fd5b816000811415612018576040517ff45911f000000000000000000000000000000000000000000000000000000000815260040160405180910390fd5b600060026000868152602001908152602001600020905060008160030154905060008260020154905081868261204e9190612ac2565b11156120635780826120609190612d4b565b95505b858360020160008282546120779190612ac2565b9250508190555081836002015414156121475760028360070160006101000a81548160ff021916908360038111156120d8577f4e487b7100000000000000000000000000000000000000000000000000000000600052602160045260246000fd5b021790555081878460070160019054906101000a900473ffffffffffffffffffffffffffffffffffffffff1673ffffffffffffffffffffffffffffffffffffffff167f1b8cd61ed43bec7c6bdad3a18ffee613f99c853d16c50678d248d879e1b4343860405160405180910390a45b6000600560009054906101000a900473ffffffffffffffffffffffffffffffffffffffff1673ffffffffffffffffffffffffffffffffffffffff166323b872dd33308a6040518463ffffffff1660e01b81526004016121a8939291906128a4565b602060405180830381600087803b1580156121c257600080fd5b505af11580156121d6573d6000803e3d6000fd5b505050506040513d601f19601f820116820180604052508101906121fa91906125a8565b905080612233576040517f90b8ec1800000000000000000000000000000000000000000000000000000000815260040160405180910390fd5b86888560080160009054906101000a900473ffffffffffffffffffffffffffffffffffffffff1673ffffffffffffffffffffffffffffffffffffffff167f77c6871227e5d2dec8dadd5354f78453203e22e669cd0ec4c19d9a8c5edb31d060405160405180910390a450505050505060016000819055505050565b6122b66123a6565b73ffffffffffffffffffffffffffffffffffffffff166122d461168d565b73ffffffffffffffffffffffffffffffffffffffff161461232a576040517f08c379a00000000000000000000000000000000000000000000000000000000081526004016123219061299a565b60405180910390fd5b600073ffffffffffffffffffffffffffffffffffffffff168173ffffffffffffffffffffffffffffffffffffffff16141561239a576040517f08c379a00000000000000000000000000000000000000000000000000000000081526004016123919061297a565b60405180910390fd5b6123a3816123ae565b50565b600033905090565b6000600160009054906101000a900473ffffffffffffffffffffffffffffffffffffffff16905081600160006101000a81548173ffffffffffffffffffffffffffffffffffffffff021916908373ffffffffffffffffffffffffffffffffffffffff1602179055508173ffffffffffffffffffffffffffffffffffffffff168173ffffffffffffffffffffffffffffffffffffffff167f8be0079c531659141344cd1fd0a4f28419497f9722a3daafe3b4186f6b6457e060405160405180910390a35050565b600081359050612483816130f0565b92915050565b60008151905061249881613107565b92915050565b6000815190506124ad8161311e565b92915050565b6000813590506124c281613135565b92915050565b6000815190506124d781613135565b92915050565b6000815190506124ec81613163565b92915050565b6000815190506125018161314c565b92915050565b60006020828403121561251957600080fd5b600061252784828501612474565b91505092915050565b6000806040838503121561254357600080fd5b600061255185828601612474565b925050602061256285828601612474565b9150509250929050565b6000806040838503121561257f57600080fd5b600061258d85828601612474565b925050602061259e858286016124b3565b9150509250929050565b6000602082840312156125ba57600080fd5b60006125c884828501612489565b91505092915050565b6000602082840312156125e357600080fd5b60006125f1848285016124b3565b91505092915050565b6000806040838503121561260d57600080fd5b600061261b858286016124b3565b925050602061262c858286016124b3565b9150509250929050565b60008060006060848603121561264b57600080fd5b6000612659868287016124b3565b935050602061266a868287016124b3565b925050604061267b868287016124b3565b9150509250925092565b600080600080600060a0868803121561269d57600080fd5b60006126ab888289016124dd565b95505060206126bc8882890161249e565b94505060406126cd888289016124c8565b93505060606126de888289016124c8565b92505060806126ef888289016124dd565b9150509295509295909350565b60006020828403121561270e57600080fd5b600061271c848285016124f2565b91505092915050565b61272e81612e4d565b82525050565b61273d81612dc5565b82525050565b61274c81612db3565b82525050565b61275b81612e5f565b82525050565b61276a81612e83565b82525050565b61277981612ea7565b82525050565b600061278c600d83612ab1565b915061279782612fc0565b602082019050919050565b60006127af601983612ab1565b91506127ba82612fe9565b602082019050919050565b60006127d2602683612ab1565b91506127dd82613012565b604082019050919050565b60006127f5602083612ab1565b915061280082613061565b602082019050919050565b6000612818601583612ab1565b91506128238261308a565b602082019050919050565b600061283b601f83612ab1565b9150612846826130b3565b602082019050919050565b61285a81612e20565b82525050565b60006020820190506128756000830184612743565b92915050565b60006040820190506128906000830185612725565b61289d6020830184612851565b9392505050565b60006060820190506128b96000830186612743565b6128c66020830185612743565b6128d36040830184612851565b949350505050565b60006040820190506128f06000830185612743565b6128fd6020830184612851565b9392505050565b60006020820190506129196000830184612752565b92915050565b60006020820190506129346000830184612761565b92915050565b600060208201905081810360008301526129538161277f565b9050919050565b60006020820190508181036000830152612973816127a2565b9050919050565b60006020820190508181036000830152612993816127c5565b9050919050565b600060208201905081810360008301526129b3816127e8565b9050919050565b600060208201905081810360008301526129d38161280b565b9050919050565b600060208201905081810360008301526129f38161282e565b9050919050565b6000602082019050612a0f6000830184612851565b92915050565b600061014082019050612a2b600083018d612851565b612a38602083018c612851565b612a45604083018b612851565b612a52606083018a612851565b612a5f6080830189612851565b612a6c60a0830188612851565b612a7960c0830187612851565b612a8660e0830186612770565b612a94610100830185612734565b612aa2610120830184612734565b9b9a5050505050505050505050565b600082825260208201905092915050565b6000612acd82612e20565b9150612ad883612e20565b9250827fffffffffffffffffffffffffffffffffffffffffffffffffffffffffffffffff03821115612b0d57612b0c612f26565b5b828201905092915050565b6000612b2382612e2a565b9150612b2e83612e2a565b92508260ff03821115612b4457612b43612f26565b5b828201905092915050565b6000612b5a82612e20565b9150612b6583612e20565b925082612b7557612b74612f55565b5b828204905092915050565b6000808291508390505b6001851115612bca57808604811115612ba657612ba5612f26565b5b6001851615612bb55780820291505b8081029050612bc385612fb3565b9450612b8a565b94509492505050565b6000612bde82612e20565b9150612be983612e2a565b9250612c167fffffffffffffffffffffffffffffffffffffffffffffffffffffffffffffffff8484612c1e565b905092915050565b600082612c2e5760019050612cea565b81612c3c5760009050612cea565b8160018114612c525760028114612c5c57612c8b565b6001915050612cea565b60ff841115612c6e57612c6d612f26565b5b8360020a915084821115612c8557612c84612f26565b5b50612cea565b5060208310610133831016604e8410600b8410161715612cc05782820a905083811115612cbb57612cba612f26565b5b612cea565b612ccd8484846001612b80565b92509050818404811115612ce457612ce3612f26565b5b81810290505b9392505050565b6000612cfc82612e20565b9150612d0783612e20565b9250817fffffffffffffffffffffffffffffffffffffffffffffffffffffffffffffffff0483118215151615612d4057612d3f612f26565b5b828202905092915050565b6000612d5682612e20565b9150612d6183612e20565b925082821015612d7457612d73612f26565b5b828203905092915050565b6000612d8a82612e2a565b9150612d9583612e2a565b925082821015612da857612da7612f26565b5b828203905092915050565b6000612dbe82612e00565b9050919050565b6000612dd082612e00565b9050919050565b60008115159050919050565b6000819050612df1826130dc565b919050565b6000819050919050565b600073ffffffffffffffffffffffffffffffffffffffff82169050919050565b6000819050919050565b600060ff82169050919050565b600069ffffffffffffffffffff82169050919050565b6000612e5882612eb9565b9050919050565b6000612e6a82612e71565b9050919050565b6000612e7c82612e00565b9050919050565b6000612e8e82612e95565b9050919050565b6000612ea082612e00565b9050919050565b6000612eb282612de3565b9050919050565b6000612ec482612ecb565b9050919050565b6000612ed682612e00565b9050919050565b6000612ee882612e20565b91507fffffffffffffffffffffffffffffffffffffffffffffffffffffffffffffffff821415612f1b57612f1a612f26565b5b600182019050919050565b7f4e487b7100000000000000000000000000000000000000000000000000000000600052601160045260246000fd5b7f4e487b7100000000000000000000000000000000000000000000000000000000600052601260045260246000fd5b7f4e487b7100000000000000000000000000000000000000000000000000000000600052602160045260246000fd5b60008160011c9050919050565b7f45544820213d20616d6f756e7400000000000000000000000000000000000000600082015250565b7f41677265656d656e74206e6f7420736574746c65642079657400000000000000600082015250565b7f4f776e61626c653a206e6577206f776e657220697320746865207a65726f206160008201527f6464726573730000000000000000000000000000000000000000000000000000602082015250565b7f4f776e61626c653a2063616c6c6572206973206e6f7420746865206f776e6572600082015250565b7f4e6f7420656e6f75676820636f6c6c61746572616c0000000000000000000000600082015250565b7f5265656e7472616e637947756172643a207265656e7472616e742063616c6c00600082015250565b600481106130ed576130ec612f84565b5b50565b6130f981612db3565b811461310457600080fd5b50565b61311081612dd7565b811461311b57600080fd5b50565b61312781612df6565b811461313257600080fd5b50565b61313e81612e20565b811461314957600080fd5b50565b61315581612e2a565b811461316057600080fd5b50565b61316c81612e37565b811461317757600080fd5b5056fea26469706673582212209a669b253a42f53a90c347cc1a54df372d8ee2318d52134cd919913c4d07e45664736f6c63430008040033",
  "devdoc": {
    "kind": "dev",
    "methods": {
      "owner()": {
        "details": "Returns the address of the current owner."
      },
      "renounceOwnership()": {
        "details": "Leaves the contract without owner. It will not be possible to call `onlyOwner` functions anymore. Can only be called by the current owner. NOTE: Renouncing ownership will leave the contract without an owner, thereby removing any functionality that is only available to the owner."
      },
      "transferOwnership(address)": {
        "details": "Transfers ownership of the contract to a new account (`newOwner`). Can only be called by the current owner."
      }
    },
    "version": 1
  },
  "userdoc": {
    "kind": "user",
    "methods": {},
    "version": 1
  },
  "storageLayout": {
    "storage": [
      {
        "astId": 311,
        "contract": "contracts/Exchange.sol:Exchange",
        "label": "_status",
        "offset": 0,
        "slot": "0",
        "type": "t_uint256"
      },
      {
        "astId": 111,
        "contract": "contracts/Exchange.sol:Exchange",
        "label": "_owner",
        "offset": 0,
        "slot": "1",
        "type": "t_address"
      },
      {
        "astId": 658,
        "contract": "contracts/Exchange.sol:Exchange",
        "label": "s_idToAgreement",
        "offset": 0,
        "slot": "2",
        "type": "t_mapping(t_uint256,t_struct(Agreement)639_storage)"
      },
      {
        "astId": 663,
        "contract": "contracts/Exchange.sol:Exchange",
        "label": "s_accountToIDs",
        "offset": 0,
        "slot": "3",
        "type": "t_mapping(t_address,t_array(t_uint256)dyn_storage)"
      },
      {
        "astId": 665,
        "contract": "contracts/Exchange.sol:Exchange",
        "label": "s_numIDs",
        "offset": 0,
        "slot": "4",
        "type": "t_uint256"
      },
      {
        "astId": 668,
        "contract": "contracts/Exchange.sol:Exchange",
        "label": "s_lenderToken",
        "offset": 0,
        "slot": "5",
        "type": "t_contract(IToken)1909"
      },
      {
        "astId": 671,
        "contract": "contracts/Exchange.sol:Exchange",
        "label": "s_priceFeed",
        "offset": 0,
        "slot": "6",
        "type": "t_contract(AggregatorV3Interface)84"
      }
    ],
    "types": {
      "t_address": {
        "encoding": "inplace",
        "label": "address",
        "numberOfBytes": "20"
      },
      "t_address_payable": {
        "encoding": "inplace",
        "label": "address payable",
        "numberOfBytes": "20"
      },
      "t_array(t_uint256)dyn_storage": {
        "base": "t_uint256",
        "encoding": "dynamic_array",
        "label": "uint256[]",
        "numberOfBytes": "32"
      },
      "t_contract(AggregatorV3Interface)84": {
        "encoding": "inplace",
        "label": "contract AggregatorV3Interface",
        "numberOfBytes": "20"
      },
      "t_contract(IToken)1909": {
        "encoding": "inplace",
        "label": "contract IToken",
        "numberOfBytes": "20"
      },
      "t_enum(Status)617": {
        "encoding": "inplace",
        "label": "enum Status",
        "numberOfBytes": "1"
      },
      "t_mapping(t_address,t_array(t_uint256)dyn_storage)": {
        "encoding": "mapping",
        "key": "t_address",
        "label": "mapping(address => uint256[])",
        "numberOfBytes": "32",
        "value": "t_array(t_uint256)dyn_storage"
      },
      "t_mapping(t_uint256,t_struct(Agreement)639_storage)": {
        "encoding": "mapping",
        "key": "t_uint256",
        "label": "mapping(uint256 => struct Agreement)",
        "numberOfBytes": "32",
        "value": "t_struct(Agreement)639_storage"
      },
      "t_struct(Agreement)639_storage": {
        "encoding": "inplace",
        "label": "struct Agreement",
        "members": [
          {
            "astId": 619,
            "contract": "contracts/Exchange.sol:Exchange",
            "label": "deposit",
            "offset": 0,
            "slot": "0",
            "type": "t_uint256"
          },
          {
            "astId": 621,
            "contract": "contracts/Exchange.sol:Exchange",
            "label": "collateral",
            "offset": 0,
            "slot": "1",
            "type": "t_uint256"
          },
          {
            "astId": 623,
            "contract": "contracts/Exchange.sol:Exchange",
            "label": "repaidAmt",
            "offset": 0,
            "slot": "2",
            "type": "t_uint256"
          },
          {
            "astId": 625,
            "contract": "contracts/Exchange.sol:Exchange",
            "label": "futureValue",
            "offset": 0,
            "slot": "3",
            "type": "t_uint256"
          },
          {
            "astId": 627,
            "contract": "contracts/Exchange.sol:Exchange",
            "label": "start",
            "offset": 0,
            "slot": "4",
            "type": "t_uint256"
          },
          {
            "astId": 629,
            "contract": "contracts/Exchange.sol:Exchange",
            "label": "duration",
            "offset": 0,
            "slot": "5",
            "type": "t_uint256"
          },
          {
            "astId": 631,
            "contract": "contracts/Exchange.sol:Exchange",
            "label": "rate",
            "offset": 0,
            "slot": "6",
            "type": "t_uint256"
          },
          {
            "astId": 634,
            "contract": "contracts/Exchange.sol:Exchange",
            "label": "status",
            "offset": 0,
            "slot": "7",
            "type": "t_enum(Status)617"
          },
          {
            "astId": 636,
            "contract": "contracts/Exchange.sol:Exchange",
            "label": "lender",
            "offset": 1,
            "slot": "7",
            "type": "t_address_payable"
          },
          {
            "astId": 638,
            "contract": "contracts/Exchange.sol:Exchange",
            "label": "borrower",
            "offset": 0,
            "slot": "8",
            "type": "t_address_payable"
          }
        ],
        "numberOfBytes": "288"
      },
      "t_uint256": {
        "encoding": "inplace",
        "label": "uint256",
        "numberOfBytes": "32"
      }
    }
  }
}