{
  "address": "0x2279B7A0a67DB372996a5FaB50D91eAA73d2eBe6",
  "abi": [
    {
      "inputs": [],
      "name": "NeedsMoreThanZero",
      "type": "error"
    },
    {
      "inputs": [],
      "name": "NeedsToBeActive",
      "type": "error"
    },
    {
      "inputs": [],
      "name": "NeedsToBeBorrower",
      "type": "error"
    },
    {
      "inputs": [],
      "name": "NeedsToBeLender",
      "type": "error"
    },
    {
      "inputs": [],
      "name": "OnlySimulatedBackend",
      "type": "error"
    },
    {
      "inputs": [],
      "name": "TransferFailed",
      "type": "error"
    },
    {
      "anonymous": false,
      "inputs": [
        {
          "indexed": true,
          "internalType": "address",
          "name": "borrower",
          "type": "address"
        },
        {
          "indexed": true,
          "internalType": "uint256",
          "name": "id",
          "type": "uint256"
        },
        {
          "indexed": true,
          "internalType": "uint256",
          "name": "amount",
          "type": "uint256"
        }
      ],
      "name": "Activate",
      "type": "event"
    },
    {
      "anonymous": false,
      "inputs": [
        {
          "indexed": true,
          "internalType": "address",
          "name": "borrower",
          "type": "address"
        },
        {
          "indexed": true,
          "internalType": "uint256",
          "name": "id",
          "type": "uint256"
        },
        {
          "indexed": true,
          "internalType": "uint256",
          "name": "amount",
          "type": "uint256"
        }
      ],
      "name": "AddCollateral",
      "type": "event"
    },
    {
      "anonymous": false,
      "inputs": [
        {
          "indexed": true,
          "internalType": "address",
          "name": "lender",
          "type": "address"
        },
        {
          "indexed": true,
          "internalType": "address",
          "name": "borrower",
          "type": "address"
        },
        {
          "indexed": true,
          "internalType": "uint256",
          "name": "id",
          "type": "uint256"
        }
      ],
      "name": "Closed",
      "type": "event"
    },
    {
      "anonymous": false,
      "inputs": [
        {
          "indexed": true,
          "internalType": "address",
          "name": "borrower",
          "type": "address"
        },
        {
          "indexed": false,
          "internalType": "uint256",
          "name": "remainingValue",
          "type": "uint256"
        }
      ],
      "name": "Liquidate",
      "type": "event"
    },
    {
      "anonymous": false,
      "inputs": [
        {
          "indexed": true,
          "internalType": "address",
          "name": "previousOwner",
          "type": "address"
        },
        {
          "indexed": true,
          "internalType": "address",
          "name": "newOwner",
          "type": "address"
        }
      ],
      "name": "OwnershipTransferred",
      "type": "event"
    },
    {
      "anonymous": false,
      "inputs": [
        {
          "indexed": false,
          "internalType": "address",
          "name": "account",
          "type": "address"
        }
      ],
      "name": "Paused",
      "type": "event"
    },
    {
      "anonymous": false,
      "inputs": [
        {
          "indexed": true,
          "internalType": "address",
          "name": "lender",
          "type": "address"
        },
        {
          "indexed": true,
          "internalType": "uint256",
          "name": "id",
          "type": "uint256"
        },
        {
          "indexed": true,
          "internalType": "uint256",
          "name": "amount",
          "type": "uint256"
        }
      ],
      "name": "Propose",
      "type": "event"
    },
    {
      "anonymous": false,
      "inputs": [
        {
          "indexed": false,
          "internalType": "address",
          "name": "sender",
          "type": "address"
        },
        {
          "indexed": false,
          "internalType": "uint256",
          "name": "amount",
          "type": "uint256"
        }
      ],
      "name": "Received",
      "type": "event"
    },
    {
      "anonymous": false,
      "inputs": [
        {
          "indexed": true,
          "internalType": "address",
          "name": "lender",
          "type": "address"
        },
        {
          "indexed": true,
          "internalType": "uint256",
          "name": "id",
          "type": "uint256"
        },
        {
          "indexed": true,
          "internalType": "uint256",
          "name": "amount",
          "type": "uint256"
        }
      ],
      "name": "Repaid",
      "type": "event"
    },
    {
      "anonymous": false,
      "inputs": [
        {
          "indexed": true,
          "internalType": "address",
          "name": "borrower",
          "type": "address"
        },
        {
          "indexed": true,
          "internalType": "uint256",
          "name": "id",
          "type": "uint256"
        },
        {
          "indexed": true,
          "internalType": "uint256",
          "name": "amount",
          "type": "uint256"
        }
      ],
      "name": "Repay",
      "type": "event"
    },
    {
      "anonymous": false,
      "inputs": [
        {
          "indexed": false,
          "internalType": "address",
          "name": "account",
          "type": "address"
        }
      ],
      "name": "Unpaused",
      "type": "event"
    },
    {
      "anonymous": false,
      "inputs": [
        {
          "indexed": true,
          "internalType": "address",
          "name": "borrower",
          "type": "address"
        },
        {
          "indexed": true,
          "internalType": "uint256",
          "name": "id",
          "type": "uint256"
        },
        {
          "indexed": true,
          "internalType": "uint256",
          "name": "amount",
          "type": "uint256"
        }
      ],
      "name": "WithdrawCollateral",
      "type": "event"
    },
    {
      "inputs": [],
      "name": "LIQUIDATION_THRESHOLD",
      "outputs": [
        {
          "internalType": "uint256",
          "name": "",
          "type": "uint256"
        }
      ],
      "stateMutability": "view",
      "type": "function"
    },
    {
      "inputs": [],
      "name": "POLL_FEE",
      "outputs": [
        {
          "internalType": "uint24",
          "name": "",
          "type": "uint24"
        }
      ],
      "stateMutability": "view",
      "type": "function"
    },
    {
      "inputs": [
        {
          "internalType": "uint256",
          "name": "id",
          "type": "uint256"
        },
        {
          "internalType": "uint256",
          "name": "amount",
          "type": "uint256"
        }
      ],
      "name": "activate",
      "outputs": [],
      "stateMutability": "payable",
      "type": "function"
    },
    {
      "inputs": [
        {
          "internalType": "uint256",
          "name": "id",
          "type": "uint256"
        },
        {
          "internalType": "uint256",
          "name": "amount",
          "type": "uint256"
        }
      ],
      "name": "addCollateral",
      "outputs": [],
      "stateMutability": "payable",
      "type": "function"
    },
    {
      "inputs": [
        {
          "internalType": "bytes",
          "name": "",
          "type": "bytes"
        }
      ],
      "name": "checkUpkeep",
      "outputs": [
        {
          "internalType": "bool",
          "name": "upkeepNeeded",
          "type": "bool"
        },
        {
          "internalType": "bytes",
          "name": "performData",
          "type": "bytes"
        }
      ],
      "stateMutability": "view",
      "type": "function"
    },
    {
      "inputs": [
        {
          "internalType": "uint256",
          "name": "id",
          "type": "uint256"
        }
      ],
      "name": "close",
      "outputs": [],
      "stateMutability": "nonpayable",
      "type": "function"
    },
    {
      "inputs": [
        {
          "internalType": "uint256",
          "name": "amount",
          "type": "uint256"
        }
      ],
      "name": "getEthValueFromToken",
      "outputs": [
        {
          "internalType": "uint256",
          "name": "",
          "type": "uint256"
        }
      ],
      "stateMutability": "view",
      "type": "function"
    },
    {
      "inputs": [],
      "name": "getLiquidatableAgreements",
      "outputs": [
        {
          "internalType": "uint256[]",
          "name": "",
          "type": "uint256[]"
        }
      ],
      "stateMutability": "view",
      "type": "function"
    },
    {
      "inputs": [
        {
          "internalType": "uint256",
          "name": "id",
          "type": "uint256"
        }
      ],
      "name": "getMinReqCollateral",
      "outputs": [
        {
          "internalType": "uint256",
          "name": "",
          "type": "uint256"
        }
      ],
      "stateMutability": "view",
      "type": "function"
    },
    {
      "inputs": [
        {
          "internalType": "uint256",
          "name": "id",
          "type": "uint256"
        }
      ],
      "name": "isLiquidationRequired",
      "outputs": [
        {
          "internalType": "bool",
          "name": "",
          "type": "bool"
        }
      ],
      "stateMutability": "view",
      "type": "function"
    },
    {
      "inputs": [
        {
          "internalType": "uint256[]",
          "name": "idsToLiquidate",
          "type": "uint256[]"
        }
      ],
      "name": "liquidate",
      "outputs": [],
      "stateMutability": "nonpayable",
      "type": "function"
    },
    {
      "inputs": [
        {
          "internalType": "address",
          "name": "account",
          "type": "address"
        },
        {
          "internalType": "uint256",
          "name": "amount",
          "type": "uint256"
        }
      ],
      "name": "mint",
      "outputs": [],
      "stateMutability": "nonpayable",
      "type": "function"
    },
    {
      "inputs": [],
      "name": "owner",
      "outputs": [
        {
          "internalType": "address",
          "name": "",
          "type": "address"
        }
      ],
      "stateMutability": "view",
      "type": "function"
    },
    {
      "inputs": [],
      "name": "paused",
      "outputs": [
        {
          "internalType": "bool",
          "name": "",
          "type": "bool"
        }
      ],
      "stateMutability": "view",
      "type": "function"
    },
    {
      "inputs": [
        {
          "internalType": "bytes",
          "name": "performData",
          "type": "bytes"
        }
      ],
      "name": "performUpkeep",
      "outputs": [],
      "stateMutability": "nonpayable",
      "type": "function"
    },
    {
      "inputs": [
        {
          "internalType": "uint256",
          "name": "amount",
          "type": "uint256"
        },
        {
          "internalType": "uint256",
          "name": "duration",
          "type": "uint256"
        },
        {
          "internalType": "uint256",
          "name": "rate",
          "type": "uint256"
        }
      ],
      "name": "propose",
      "outputs": [
        {
          "internalType": "uint256",
          "name": "id",
          "type": "uint256"
        }
      ],
      "stateMutability": "nonpayable",
      "type": "function"
    },
    {
      "inputs": [],
      "name": "renounceOwnership",
      "outputs": [],
      "stateMutability": "nonpayable",
      "type": "function"
    },
    {
      "inputs": [
        {
          "internalType": "uint256",
          "name": "id",
          "type": "uint256"
        },
        {
          "internalType": "uint256",
          "name": "amount",
          "type": "uint256"
        }
      ],
      "name": "repay",
      "outputs": [],
      "stateMutability": "nonpayable",
      "type": "function"
    },
    {
      "inputs": [
        {
          "internalType": "address",
          "name": "",
          "type": "address"
        },
        {
          "internalType": "uint256",
          "name": "",
          "type": "uint256"
        }
      ],
      "name": "s_accountToIDs",
      "outputs": [
        {
          "internalType": "uint256",
          "name": "",
          "type": "uint256"
        }
      ],
      "stateMutability": "view",
      "type": "function"
    },
    {
      "inputs": [
        {
          "internalType": "uint256",
          "name": "",
          "type": "uint256"
        }
      ],
      "name": "s_idToAgreement",
      "outputs": [
        {
          "internalType": "uint256",
          "name": "deposit",
          "type": "uint256"
        },
        {
          "internalType": "uint256",
          "name": "collateral",
          "type": "uint256"
        },
        {
          "internalType": "uint256",
          "name": "repaidAmt",
          "type": "uint256"
        },
        {
          "internalType": "uint256",
          "name": "futureValue",
          "type": "uint256"
        },
        {
          "internalType": "uint256",
          "name": "start",
          "type": "uint256"
        },
        {
          "internalType": "uint256",
          "name": "duration",
          "type": "uint256"
        },
        {
          "internalType": "uint256",
          "name": "rate",
          "type": "uint256"
        },
        {
          "internalType": "enum Status",
          "name": "status",
          "type": "uint8"
        },
        {
          "internalType": "address payable",
          "name": "lender",
          "type": "address"
        },
        {
          "internalType": "address payable",
          "name": "borrower",
          "type": "address"
        }
      ],
      "stateMutability": "view",
      "type": "function"
    },
    {
      "inputs": [],
      "name": "s_keeperRegistryAddress",
      "outputs": [
        {
          "internalType": "address",
          "name": "",
          "type": "address"
        }
      ],
      "stateMutability": "view",
      "type": "function"
    },
    {
      "inputs": [],
      "name": "s_lenderToken",
      "outputs": [
        {
          "internalType": "contract IToken",
          "name": "",
          "type": "address"
        }
      ],
      "stateMutability": "view",
      "type": "function"
    },
    {
      "inputs": [],
      "name": "s_numIDs",
      "outputs": [
        {
          "internalType": "uint256",
          "name": "",
          "type": "uint256"
        }
      ],
      "stateMutability": "view",
      "type": "function"
    },
    {
      "inputs": [],
      "name": "s_priceFeed",
      "outputs": [
        {
          "internalType": "contract AggregatorV3Interface",
          "name": "",
          "type": "address"
        }
      ],
      "stateMutability": "view",
      "type": "function"
    },
    {
      "inputs": [],
      "name": "s_swapRouter",
      "outputs": [
        {
          "internalType": "contract IUniswapRouter",
          "name": "",
          "type": "address"
        }
      ],
      "stateMutability": "view",
      "type": "function"
    },
    {
      "inputs": [],
      "name": "s_wethToken",
      "outputs": [
        {
          "internalType": "contract IWETH",
          "name": "",
          "type": "address"
        }
      ],
      "stateMutability": "view",
      "type": "function"
    },
    {
      "inputs": [
        {
          "internalType": "address",
          "name": "keeperRegistryAddress",
          "type": "address"
        }
      ],
      "name": "setKeeperRegistryAddress",
      "outputs": [],
      "stateMutability": "nonpayable",
      "type": "function"
    },
    {
      "inputs": [
        {
          "internalType": "address",
          "name": "token",
          "type": "address"
        },
        {
          "internalType": "address",
          "name": "priceFeed",
          "type": "address"
        }
      ],
      "name": "setLenderToken",
      "outputs": [],
      "stateMutability": "nonpayable",
      "type": "function"
    },
    {
      "inputs": [
        {
          "internalType": "address",
          "name": "swapRouter",
          "type": "address"
        },
        {
          "internalType": "address",
          "name": "wethToken",
          "type": "address"
        }
      ],
      "name": "setSwapRouter",
      "outputs": [],
      "stateMutability": "nonpayable",
      "type": "function"
    },
    {
      "inputs": [
        {
          "internalType": "address",
          "name": "newOwner",
          "type": "address"
        }
      ],
      "name": "transferOwnership",
      "outputs": [],
      "stateMutability": "nonpayable",
      "type": "function"
    },
    {
      "inputs": [
        {
          "internalType": "uint256",
          "name": "id",
          "type": "uint256"
        },
        {
          "internalType": "uint256",
          "name": "amount",
          "type": "uint256"
        }
      ],
      "name": "withdrawCollateral",
      "outputs": [],
      "stateMutability": "nonpayable",
      "type": "function"
    },
    {
      "stateMutability": "payable",
      "type": "receive"
    }
  ],
  "transactionHash": "0x0bfe5c1e543849369dfcce514c7f5d7ef9a501fb2d3e8b8ad139add9ce1e6194",
  "args": [],
  "numDeployments": 1,
  "solcInputHash": "44c3a8ec557a809c977182606f276b9b",
  "bytecode": "0x60806040523480156200001157600080fd5b5060016000819055506000600160006101000a81548160ff02191690831515021790555062000055620000496200005b60201b60201c565b6200006360201b60201c565b62000126565b600033905090565b600060018054906101000a900473ffffffffffffffffffffffffffffffffffffffff169050816001806101000a81548173ffffffffffffffffffffffffffffffffffffffff021916908373ffffffffffffffffffffffffffffffffffffffff1602179055508173ffffffffffffffffffffffffffffffffffffffff168173ffffffffffffffffffffffffffffffffffffffff167f8be0079c531659141344cd1fd0a4f28419497f9722a3daafe3b4186f6b6457e060405160405180910390a35050565b61466380620001366000396000f3fe6080604052600436106101dc5760003560e01c8063715018a611610102578063a32d196811610095578063d8aed14511610064578063d8aed145146106f2578063dc40e2d01461071b578063e05acb5114610744578063f2fde38b1461076f5761021c565b8063a32d196814610643578063a8f35adf1461066e578063d35b0adc1461068a578063d51ac144146106c75761021c565b80638ea8f83c116100d15780638ea8f83c1461058d57806390a8ae9b146105a957806394555114146105d45780639bf9e715146105fd5761021c565b8063715018a6146104f7578063767a7b051461050e578063771b081e146105375780638da5cb5b146105625761021c565b806340376d561161017a5780635177e342116101495780635177e342146104285780635c975abb1461046557806365cad891146104905780636e04ff0d146104b95761021c565b806340376d561461035c57806340c10f19146103995780634585e33b146103c2578063482ae59b146103eb5761021c565b80630ec3b027116101b65780630ec3b027146102b25780631f9ff79d146102dd578063266a1b341461030657806330c71853146103315761021c565b8063030fdffb14610221578063034e30311461025e5780630aebeb4e146102895761021c565b3661021c577f88a5966d370b9919b20f3e2c13ff65706f196a4e32cc2c12bf57088f885258743334604051610212929190613aca565b60405180910390a1005b600080fd5b34801561022d57600080fd5b50610248600480360381019061024391906135ab565b610798565b6040516102559190613ce3565b60405180910390f35b34801561026a57600080fd5b506102736109cd565b6040516102809190613cc8565b60405180910390f35b34801561029557600080fd5b506102b060048036038101906102ab91906135ab565b6109d3565b005b3480156102be57600080fd5b506102c7610df9565b6040516102d49190613b60565b60405180910390f35b3480156102e957600080fd5b5061030460048036038101906102ff9190613484565b610e1f565b005b34801561031257600080fd5b5061031b610f21565b6040516103289190613af3565b60405180910390f35b34801561033d57600080fd5b50610346611044565b6040516103539190613bb1565b60405180910390f35b34801561036857600080fd5b50610383600480360381019061037e9190613639565b61106a565b6040516103909190613ce3565b60405180910390f35b3480156103a557600080fd5b506103c060048036038101906103bb91906134c0565b6114e8565b005b3480156103ce57600080fd5b506103e960048036038101906103e49190613566565b61157b565b005b3480156103f757600080fd5b50610412600480360381019061040d91906135ab565b6115e4565b60405161041f9190613b15565b60405180910390f35b34801561043457600080fd5b5061044f600480360381019061044a91906134c0565b611828565b60405161045c9190613ce3565b60405180910390f35b34801561047157600080fd5b5061047a611859565b6040516104879190613b15565b60405180910390f35b34801561049c57600080fd5b506104b760048036038101906104b291906134fc565b611870565b005b3480156104c557600080fd5b506104e060048036038101906104db9190613566565b611ac9565b6040516104ee929190613b30565b60405180910390f35b34801561050357600080fd5b5061050c611b52565b005b34801561051a57600080fd5b50610535600480360381019061053091906135fd565b611bda565b005b34801561054357600080fd5b5061054c612067565b6040516105599190613a4f565b60405180910390f35b34801561056e57600080fd5b5061057761208d565b6040516105849190613a4f565b60405180910390f35b6105a760048036038101906105a291906135fd565b6120b5565b005b3480156105b557600080fd5b506105be6123cc565b6040516105cb9190613ce3565b60405180910390f35b3480156105e057600080fd5b506105fb60048036038101906105f6919061345b565b6123d1565b005b34801561060957600080fd5b50610624600480360381019061061f91906135ab565b6124cb565b60405161063a9a99989796959493929190613cfe565b60405180910390f35b34801561064f57600080fd5b5061065861256c565b6040516106659190613ce3565b60405180910390f35b610688600480360381019061068391906135fd565b612572565b005b34801561069657600080fd5b506106b160048036038101906106ac91906135ab565b6127b6565b6040516106be9190613ce3565b60405180910390f35b3480156106d357600080fd5b506106dc612992565b6040516106e99190613b7b565b60405180910390f35b3480156106fe57600080fd5b50610719600480360381019061071491906135fd565b6129b8565b005b34801561072757600080fd5b50610742600480360381019061073d9190613484565b612da6565b005b34801561075057600080fd5b50610759612ee2565b6040516107669190613b96565b60405180910390f35b34801561077b57600080fd5b506107966004803603810190610791919061345b565b612f08565b005b600080600660009054906101000a900473ffffffffffffffffffffffffffffffffffffffff1673ffffffffffffffffffffffffffffffffffffffff1663feaf968c6040518163ffffffff1660e01b815260040160a06040518083038186803b15801561080357600080fd5b505afa158015610817573d6000803e3d6000fd5b505050506040513d601f19601f8201168201806040525081019061083b9190613688565b5050509150506000600660009054906101000a900473ffffffffffffffffffffffffffffffffffffffff1673ffffffffffffffffffffffffffffffffffffffff1663313ce5676040518163ffffffff1660e01b815260040160206040518083038186803b1580156108ab57600080fd5b505afa1580156108bf573d6000803e3d6000fd5b505050506040513d601f19601f820116820180604052508101906108e391906136ff565b90506000600560009054906101000a900473ffffffffffffffffffffffffffffffffffffffff1673ffffffffffffffffffffffffffffffffffffffff1663313ce5676040518163ffffffff1660e01b815260040160206040518083038186803b15801561094f57600080fd5b505afa158015610963573d6000803e3d6000fd5b505050506040513d601f19601f8201168201806040525081019061098791906136ff565b905082818360126109989190613ea7565b6109a2919061410e565b600a6109ae9190613f62565b866109b99190614080565b6109c39190613ede565b9350505050919050565b610bb881565b60026000541415610a19576040517f08c379a0000000000000000000000000000000000000000000000000000000008152600401610a1090613c8c565b60405180910390fd5b6002600081905550803373ffffffffffffffffffffffffffffffffffffffff166002600083815260200190815260200160002060070160019054906101000a900473ffffffffffffffffffffffffffffffffffffffff1673ffffffffffffffffffffffffffffffffffffffff1614610abd576040517f3a7d412400000000000000000000000000000000000000000000000000000000815260040160405180910390fd5b8160026003811115610af8577f4e487b7100000000000000000000000000000000000000000000000000000000600052602160045260246000fd5b6002600083815260200190815260200160002060070160009054906101000a900460ff166003811115610b54577f4e487b7100000000000000000000000000000000000000000000000000000000600052602160045260246000fd5b14610b8b576040517f9206086a00000000000000000000000000000000000000000000000000000000815260040160405180910390fd5b600060026000858152602001908152602001600020905060008160030154905080826002015414610be5577f4e487b7100000000000000000000000000000000000000000000000000000000600052600160045260246000fd5b6000600560009054906101000a900473ffffffffffffffffffffffffffffffffffffffff1673ffffffffffffffffffffffffffffffffffffffff1663a9059cbb8460070160019054906101000a900473ffffffffffffffffffffffffffffffffffffffff16846040518363ffffffff1660e01b8152600401610c68929190613a6a565b602060405180830381600087803b158015610c8257600080fd5b505af1158015610c96573d6000803e3d6000fd5b505050506040513d601f19601f82011682018060405250810190610cba919061353d565b905080610cf3576040517f90b8ec1800000000000000000000000000000000000000000000000000000000815260040160405180910390fd5b858360080160009054906101000a900473ffffffffffffffffffffffffffffffffffffffff1673ffffffffffffffffffffffffffffffffffffffff168460070160019054906101000a900473ffffffffffffffffffffffffffffffffffffffff1673ffffffffffffffffffffffffffffffffffffffff167f62d095e2c4513ab737ede7cbd30334eccb10424cbc543ebb5c458b5174cddcd560405160405180910390a460038360070160006101000a81548160ff02191690836003811115610de4577f4e487b7100000000000000000000000000000000000000000000000000000000600052602160045260246000fd5b02179055505050505050600160008190555050565b600660009054906101000a900473ffffffffffffffffffffffffffffffffffffffff1681565b610e27613000565b73ffffffffffffffffffffffffffffffffffffffff16610e4561208d565b73ffffffffffffffffffffffffffffffffffffffff1614610e9b576040517f08c379a0000000000000000000000000000000000000000000000000000000008152600401610e9290613c4c565b60405180910390fd5b81600560006101000a81548173ffffffffffffffffffffffffffffffffffffffff021916908373ffffffffffffffffffffffffffffffffffffffff16021790555080600660006101000a81548173ffffffffffffffffffffffffffffffffffffffff021916908373ffffffffffffffffffffffffffffffffffffffff1602179055505050565b6060600060045467ffffffffffffffff811115610f67577f4e487b7100000000000000000000000000000000000000000000000000000000600052604160045260246000fd5b604051908082528060200260200182016040528015610f955781602001602082028036833780820191505090505b50905060008080600190505b600454811161102d57610fb3816115e4565b9150811561101c578084600183610fca91906140da565b81518110611001577f4e487b7100000000000000000000000000000000000000000000000000000000600052603260045260246000fd5b602002602001018181525050828061101890614327565b9350505b8061102690614327565b9050610fa1565b50600454821461103b578183525b82935050505090565b600860009054906101000a900473ffffffffffffffffffffffffffffffffffffffff1681565b6000600260005414156110b2576040517f08c379a00000000000000000000000000000000000000000000000000000000081526004016110a990613c8c565b60405180910390fd5b60026000819055508360008114156110f6576040517ff45911f000000000000000000000000000000000000000000000000000000000815260040160405180910390fd5b60006103e885856103e861110a9190613e51565b886111159190614080565b61111f9190614080565b6111299190613ede565b90506000604051806101400160405280888152602001600081526020016000815260200183815260200160008152602001878152602001868152602001600060038111156111a0577f4e487b7100000000000000000000000000000000000000000000000000000000600052602160045260246000fd5b81526020013373ffffffffffffffffffffffffffffffffffffffff168152602001600073ffffffffffffffffffffffffffffffffffffffff1681525090506000600560009054906101000a900473ffffffffffffffffffffffffffffffffffffffff1673ffffffffffffffffffffffffffffffffffffffff166323b872dd33308b6040518463ffffffff1660e01b815260040161123f93929190613a93565b602060405180830381600087803b15801561125957600080fd5b505af115801561126d573d6000803e3d6000fd5b505050506040513d601f19601f82011682018060405250810190611291919061353d565b9050806112ca576040517f90b8ec1800000000000000000000000000000000000000000000000000000000815260040160405180910390fd5b600460008154809291906112dd90614327565b919050555060045494508160026000878152602001908152602001600020600082015181600001556020820151816001015560408201518160020155606082015181600301556080820151816004015560a0820151816005015560c0820151816006015560e08201518160070160006101000a81548160ff02191690836003811115611392577f4e487b7100000000000000000000000000000000000000000000000000000000600052602160045260246000fd5b02179055506101008201518160070160016101000a81548173ffffffffffffffffffffffffffffffffffffffff021916908373ffffffffffffffffffffffffffffffffffffffff1602179055506101208201518160080160006101000a81548173ffffffffffffffffffffffffffffffffffffffff021916908373ffffffffffffffffffffffffffffffffffffffff160217905550905050600360003373ffffffffffffffffffffffffffffffffffffffff1673ffffffffffffffffffffffffffffffffffffffff16815260200190815260200160002085908060018154018082558091505060019003906000526020600020016000909190919091505587853373ffffffffffffffffffffffffffffffffffffffff167ffcb5913d5cff8e37667ef76381030e4118bc2091969ecf14726dd959e0e15c0760405160405180910390a45050505060016000819055509392505050565b600560009054906101000a900473ffffffffffffffffffffffffffffffffffffffff1673ffffffffffffffffffffffffffffffffffffffff166340c10f1983836040518363ffffffff1660e01b8152600401611545929190613aca565b600060405180830381600087803b15801561155f57600080fd5b505af1158015611573573d6000803e3d6000fd5b505050505050565b611583611859565b156115c3576040517f08c379a00000000000000000000000000000000000000000000000000000000081526004016115ba90613c2c565b60405180910390fd5b600082828101906115d491906134fc565b90506115df81611870565b505050565b6000806002600084815260200190815260200160002060405180610140016040529081600082015481526020016001820154815260200160028201548152602001600382015481526020016004820154815260200160058201548152602001600682015481526020016007820160009054906101000a900460ff166003811115611697577f4e487b7100000000000000000000000000000000000000000000000000000000600052602160045260246000fd5b60038111156116cf577f4e487b7100000000000000000000000000000000000000000000000000000000600052602160045260246000fd5b81526020016007820160019054906101000a900473ffffffffffffffffffffffffffffffffffffffff1673ffffffffffffffffffffffffffffffffffffffff1673ffffffffffffffffffffffffffffffffffffffff1681526020016008820160009054906101000a900473ffffffffffffffffffffffffffffffffffffffff1673ffffffffffffffffffffffffffffffffffffffff1673ffffffffffffffffffffffffffffffffffffffff1681525050905060008160800151905060008260a00151905060006301e13380905060008460400151905060008560600151905060006117b9896127b6565b90506000876020015190508181116117dc57600198505050505050505050611823565b84866117e89190614080565b87426117f491906140da565b11801561180057508284105b1561181657600198505050505050505050611823565b6000985050505050505050505b919050565b6003602052816000526040600020818154811061184457600080fd5b90600052602060002001600091509150505481565b6000600160009054906101000a900460ff16905090565b611878611859565b156118b8576040517f08c379a00000000000000000000000000000000000000000000000000000000081526004016118af90613c2c565b60405180910390fd5b600080600090505b8251811015611ac4576000838281518110611904577f4e487b7100000000000000000000000000000000000000000000000000000000600052603260045260246000fd5b60200260200101519050600260008281526020019081526020016000209250600061192e826115e4565b90508015611ab15760008460020154856003015461194c91906140da565b9050600061195f30838860010154613008565b905060028660070160006101000a81548160ff021916908360038111156119af577f4e487b7100000000000000000000000000000000000000000000000000000000600052602160045260246000fd5b0217905550808660010160008282546119c891906140da565b925050819055508560080160009054906101000a900473ffffffffffffffffffffffffffffffffffffffff1673ffffffffffffffffffffffffffffffffffffffff167f08813a3631e12129135cc9440d3fea50eec346f1673b20b994b0456d5d46ccb98760010154604051611a3d9190613ce3565b60405180910390a281848760070160019054906101000a900473ffffffffffffffffffffffffffffffffffffffff1673ffffffffffffffffffffffffffffffffffffffff167f1b8cd61ed43bec7c6bdad3a18ffee613f99c853d16c50678d248d879e1b4343860405160405180910390a450505b505080611abd90614327565b90506118c0565b505050565b60006060611ad5611859565b15611b15576040517f08c379a0000000000000000000000000000000000000000000000000000000008152600401611b0c90613c2c565b60405180910390fd5b6000611b1f610f21565b90506000815111925080604051602001611b399190613af3565b6040516020818303038152906040529150509250929050565b611b5a613000565b73ffffffffffffffffffffffffffffffffffffffff16611b7861208d565b73ffffffffffffffffffffffffffffffffffffffff1614611bce576040517f08c379a0000000000000000000000000000000000000000000000000000000008152600401611bc590613c4c565b60405180910390fd5b611bd86000613225565b565b60026000541415611c20576040517f08c379a0000000000000000000000000000000000000000000000000000000008152600401611c1790613c8c565b60405180910390fd5b6002600081905550813373ffffffffffffffffffffffffffffffffffffffff166002600083815260200190815260200160002060080160009054906101000a900473ffffffffffffffffffffffffffffffffffffffff1673ffffffffffffffffffffffffffffffffffffffff1614611cc4576040517fc0e58a0500000000000000000000000000000000000000000000000000000000815260040160405180910390fd5b816000811415611d00576040517ff45911f000000000000000000000000000000000000000000000000000000000815260040160405180910390fd5b600060026000868152602001908152602001600020905060008160070160009054906101000a900460ff1690506000826001015490506000611d41886127b6565b905060016003811115611d7d577f4e487b7100000000000000000000000000000000000000000000000000000000600052602160045260246000fd5b836003811115611db6577f4e487b7100000000000000000000000000000000000000000000000000000000600052602160045260246000fd5b1415611e0e57808783611dc991906140da565b11611e09576040517f08c379a0000000000000000000000000000000000000000000000000000000008152600401611e0090613c6c565b60405180910390fd5b611f3c565b60026003811115611e48577f4e487b7100000000000000000000000000000000000000000000000000000000600052602160045260246000fd5b836003811115611e81577f4e487b7100000000000000000000000000000000000000000000000000000000600052602160045260246000fd5b1480611efc5750600380811115611ec1577f4e487b7100000000000000000000000000000000000000000000000000000000600052602160045260246000fd5b836003811115611efa577f4e487b7100000000000000000000000000000000000000000000000000000000600052602160045260246000fd5b145b611f3b576040517f08c379a0000000000000000000000000000000000000000000000000000000008152600401611f3290613bec565b60405180910390fd5b5b86846001016000828254611f5091906140da565b9250508190555060008460080160009054906101000a900473ffffffffffffffffffffffffffffffffffffffff1673ffffffffffffffffffffffffffffffffffffffff166108fc899081150290604051600060405180830381858888f19350505050905080611feb576040517f90b8ec1800000000000000000000000000000000000000000000000000000000815260040160405180910390fd5b87898660080160009054906101000a900473ffffffffffffffffffffffffffffffffffffffff1673ffffffffffffffffffffffffffffffffffffffff167f627a692d5a03ab34732c0d2aa319f3ecdebdc4528f383eabcb25441dc0a70cfb60405160405180910390a45050505050505060016000819055505050565b600960009054906101000a900473ffffffffffffffffffffffffffffffffffffffff1681565b600060018054906101000a900473ffffffffffffffffffffffffffffffffffffffff16905090565b600260005414156120fb576040517f08c379a00000000000000000000000000000000000000000000000000000000081526004016120f290613c8c565b60405180910390fd5b600260008190555034600081141561213f576040517ff45911f000000000000000000000000000000000000000000000000000000000815260040160405180910390fd5b813414612181576040517f08c379a000000000000000000000000000000000000000000000000000000000815260040161217890613bcc565b60405180910390fd5b61218a836127b6565b82116121cb576040517f08c379a00000000000000000000000000000000000000000000000000000000081526004016121c290613c6c565b60405180910390fd5b6000600260008581526020019081526020016000209050428160040181905550338160080160006101000a81548173ffffffffffffffffffffffffffffffffffffffff021916908373ffffffffffffffffffffffffffffffffffffffff16021790555060018160070160006101000a81548160ff0219169083600381111561227c577f4e487b7100000000000000000000000000000000000000000000000000000000600052602160045260246000fd5b02179055508281600101819055506000600560009054906101000a900473ffffffffffffffffffffffffffffffffffffffff1673ffffffffffffffffffffffffffffffffffffffff1663a9059cbb3384600001546040518363ffffffff1660e01b81526004016122ed929190613aca565b602060405180830381600087803b15801561230757600080fd5b505af115801561231b573d6000803e3d6000fd5b505050506040513d601f19601f8201168201806040525081019061233f919061353d565b905080612378576040517f90b8ec1800000000000000000000000000000000000000000000000000000000815260040160405180910390fd5b83853373ffffffffffffffffffffffffffffffffffffffff167fbd91f62af1740ef6fd0b373ce523c11845b4c4699f80233ee0092bfd0a222ccf60405160405180910390a450505060016000819055505050565b605081565b6123d9613000565b73ffffffffffffffffffffffffffffffffffffffff166123f761208d565b73ffffffffffffffffffffffffffffffffffffffff161461244d576040517f08c379a000000000000000000000000000000000000000000000000000000000815260040161244490613c4c565b60405180910390fd5b600073ffffffffffffffffffffffffffffffffffffffff168173ffffffffffffffffffffffffffffffffffffffff16141561248757600080fd5b80600960006101000a81548173ffffffffffffffffffffffffffffffffffffffff021916908373ffffffffffffffffffffffffffffffffffffffff16021790555050565b60026020528060005260406000206000915090508060000154908060010154908060020154908060030154908060040154908060050154908060060154908060070160009054906101000a900460ff16908060070160019054906101000a900473ffffffffffffffffffffffffffffffffffffffff16908060080160009054906101000a900473ffffffffffffffffffffffffffffffffffffffff1690508a565b60045481565b600260005414156125b8576040517f08c379a00000000000000000000000000000000000000000000000000000000081526004016125af90613c8c565b60405180910390fd5b600260008190555081600160038111156125fb577f4e487b7100000000000000000000000000000000000000000000000000000000600052602160045260246000fd5b6002600083815260200190815260200160002060070160009054906101000a900460ff166003811115612657577f4e487b7100000000000000000000000000000000000000000000000000000000600052602160045260246000fd5b1461268e576040517f9206086a00000000000000000000000000000000000000000000000000000000815260040160405180910390fd5b8160008114156126ca576040517ff45911f000000000000000000000000000000000000000000000000000000000815260040160405180910390fd5b82341461270c576040517f08c379a000000000000000000000000000000000000000000000000000000000815260040161270390613bcc565b60405180910390fd5b6000600260008681526020019081526020016000209050838160010160008282546127379190613e51565b9250508190555083858260080160009054906101000a900473ffffffffffffffffffffffffffffffffffffffff1673ffffffffffffffffffffffffffffffffffffffff167fe3f4fa74d049cf7d64965afd6ce83c826cd313cec824ecfb9aacf36886090b4960405160405180910390a450505060016000819055505050565b6000806002600084815260200190815260200160002060405180610140016040529081600082015481526020016001820154815260200160028201548152602001600382015481526020016004820154815260200160058201548152602001600682015481526020016007820160009054906101000a900460ff166003811115612869577f4e487b7100000000000000000000000000000000000000000000000000000000600052602160045260246000fd5b60038111156128a1577f4e487b7100000000000000000000000000000000000000000000000000000000600052602160045260246000fd5b81526020016007820160019054906101000a900473ffffffffffffffffffffffffffffffffffffffff1673ffffffffffffffffffffffffffffffffffffffff1673ffffffffffffffffffffffffffffffffffffffff1681526020016008820160009054906101000a900473ffffffffffffffffffffffffffffffffffffffff1673ffffffffffffffffffffffffffffffffffffffff1673ffffffffffffffffffffffffffffffffffffffff1681525050905060006064605060c861296591906140da565b6129728460600151610798565b61297c9190614080565b6129869190613ede565b90508092505050919050565b600560009054906101000a900473ffffffffffffffffffffffffffffffffffffffff1681565b600260005414156129fe576040517f08c379a00000000000000000000000000000000000000000000000000000000081526004016129f590613c8c565b60405180910390fd5b60026000819055508160016003811115612a41577f4e487b7100000000000000000000000000000000000000000000000000000000600052602160045260246000fd5b6002600083815260200190815260200160002060070160009054906101000a900460ff166003811115612a9d577f4e487b7100000000000000000000000000000000000000000000000000000000600052602160045260246000fd5b14612ad4576040517f9206086a00000000000000000000000000000000000000000000000000000000815260040160405180910390fd5b816000811415612b10576040517ff45911f000000000000000000000000000000000000000000000000000000000815260040160405180910390fd5b6000600260008681526020019081526020016000209050600081600301549050600082600201549050818682612b469190613e51565b1115612b5b578082612b5891906140da565b95505b85836002016000828254612b6f9190613e51565b925050819055508183600201541415612c3f5760028360070160006101000a81548160ff02191690836003811115612bd0577f4e487b7100000000000000000000000000000000000000000000000000000000600052602160045260246000fd5b021790555081878460070160019054906101000a900473ffffffffffffffffffffffffffffffffffffffff1673ffffffffffffffffffffffffffffffffffffffff167f1b8cd61ed43bec7c6bdad3a18ffee613f99c853d16c50678d248d879e1b4343860405160405180910390a45b6000600560009054906101000a900473ffffffffffffffffffffffffffffffffffffffff1673ffffffffffffffffffffffffffffffffffffffff166323b872dd33308a6040518463ffffffff1660e01b8152600401612ca093929190613a93565b602060405180830381600087803b158015612cba57600080fd5b505af1158015612cce573d6000803e3d6000fd5b505050506040513d601f19601f82011682018060405250810190612cf2919061353d565b905080612d2b576040517f90b8ec1800000000000000000000000000000000000000000000000000000000815260040160405180910390fd5b86888560080160009054906101000a900473ffffffffffffffffffffffffffffffffffffffff1673ffffffffffffffffffffffffffffffffffffffff167f77c6871227e5d2dec8dadd5354f78453203e22e669cd0ec4c19d9a8c5edb31d060405160405180910390a450505050505060016000819055505050565b612dae613000565b73ffffffffffffffffffffffffffffffffffffffff16612dcc61208d565b73ffffffffffffffffffffffffffffffffffffffff1614612e22576040517f08c379a0000000000000000000000000000000000000000000000000000000008152600401612e1990613c4c565b60405180910390fd5b600073ffffffffffffffffffffffffffffffffffffffff168273ffffffffffffffffffffffffffffffffffffffff161415612e5c57600080fd5b81600760006101000a81548173ffffffffffffffffffffffffffffffffffffffff021916908373ffffffffffffffffffffffffffffffffffffffff16021790555080600860006101000a81548173ffffffffffffffffffffffffffffffffffffffff021916908373ffffffffffffffffffffffffffffffffffffffff1602179055505050565b600760009054906101000a900473ffffffffffffffffffffffffffffffffffffffff1681565b612f10613000565b73ffffffffffffffffffffffffffffffffffffffff16612f2e61208d565b73ffffffffffffffffffffffffffffffffffffffff1614612f84576040517f08c379a0000000000000000000000000000000000000000000000000000000008152600401612f7b90613c4c565b60405180910390fd5b600073ffffffffffffffffffffffffffffffffffffffff168173ffffffffffffffffffffffffffffffffffffffff161415612ff4576040517f08c379a0000000000000000000000000000000000000000000000000000000008152600401612feb90613c0c565b60405180910390fd5b612ffd81613225565b50565b600033905090565b600080604051806101000160405280600860009054906101000a900473ffffffffffffffffffffffffffffffffffffffff1673ffffffffffffffffffffffffffffffffffffffff168152602001600560009054906101000a900473ffffffffffffffffffffffffffffffffffffffff1673ffffffffffffffffffffffffffffffffffffffff168152602001610bb862ffffff1681526020018673ffffffffffffffffffffffffffffffffffffffff168152602001428152602001858152602001848152602001600073ffffffffffffffffffffffffffffffffffffffff168152509050600760009054906101000a900473ffffffffffffffffffffffffffffffffffffffff1673ffffffffffffffffffffffffffffffffffffffff1663db3e219884836040518363ffffffff1660e01b81526004016131479190613cac565b6020604051808303818588803b15801561316057600080fd5b505af1158015613174573d6000803e3d6000fd5b50505050506040513d601f19601f8201168201806040525081019061319991906135d4565b9150600760009054906101000a900473ffffffffffffffffffffffffffffffffffffffff1673ffffffffffffffffffffffffffffffffffffffff166312210e8a6040518163ffffffff1660e01b8152600401600060405180830381600087803b15801561320557600080fd5b505af1158015613219573d6000803e3d6000fd5b50505050509392505050565b600060018054906101000a900473ffffffffffffffffffffffffffffffffffffffff169050816001806101000a81548173ffffffffffffffffffffffffffffffffffffffff021916908373ffffffffffffffffffffffffffffffffffffffff1602179055508173ffffffffffffffffffffffffffffffffffffffff168173ffffffffffffffffffffffffffffffffffffffff167f8be0079c531659141344cd1fd0a4f28419497f9722a3daafe3b4186f6b6457e060405160405180910390a35050565b60006132fb6132f684613dbf565b613d9a565b9050808382526020820190508285602086028201111561331a57600080fd5b60005b8581101561334a57816133308882613407565b84526020840193506020830192505060018101905061331d565b5050509392505050565b600081359050613363816145a3565b92915050565b600082601f83011261337a57600080fd5b813561338a8482602086016132e8565b91505092915050565b6000815190506133a2816145ba565b92915050565b60008083601f8401126133ba57600080fd5b8235905067ffffffffffffffff8111156133d357600080fd5b6020830191508360018202830111156133eb57600080fd5b9250929050565b600081519050613401816145d1565b92915050565b600081359050613416816145e8565b92915050565b60008151905061342b816145e8565b92915050565b60008151905061344081614616565b92915050565b600081519050613455816145ff565b92915050565b60006020828403121561346d57600080fd5b600061347b84828501613354565b91505092915050565b6000806040838503121561349757600080fd5b60006134a585828601613354565b92505060206134b685828601613354565b9150509250929050565b600080604083850312156134d357600080fd5b60006134e185828601613354565b92505060206134f285828601613407565b9150509250929050565b60006020828403121561350e57600080fd5b600082013567ffffffffffffffff81111561352857600080fd5b61353484828501613369565b91505092915050565b60006020828403121561354f57600080fd5b600061355d84828501613393565b91505092915050565b6000806020838503121561357957600080fd5b600083013567ffffffffffffffff81111561359357600080fd5b61359f858286016133a8565b92509250509250929050565b6000602082840312156135bd57600080fd5b60006135cb84828501613407565b91505092915050565b6000602082840312156135e657600080fd5b60006135f48482850161341c565b91505092915050565b6000806040838503121561361057600080fd5b600061361e85828601613407565b925050602061362f85828601613407565b9150509250929050565b60008060006060848603121561364e57600080fd5b600061365c86828701613407565b935050602061366d86828701613407565b925050604061367e86828701613407565b9150509250925092565b600080600080600060a086880312156136a057600080fd5b60006136ae88828901613431565b95505060206136bf888289016133f2565b94505060406136d08882890161341c565b93505060606136e18882890161341c565b92505060806136f288828901613431565b9150509295509295909350565b60006020828403121561371157600080fd5b600061371f84828501613446565b91505092915050565b60006137348383613a31565b60208301905092915050565b613749816141eb565b82525050565b61375881614154565b82525050565b61376781614142565b82525050565b61377681614142565b82525050565b600061378782613dfb565b6137918185613e1e565b935061379c83613deb565b8060005b838110156137cd5781516137b48882613728565b97506137bf83613e11565b9250506001810190506137a0565b5085935050505092915050565b6137e381614166565b82525050565b60006137f482613e06565b6137fe8185613e2f565b935061380e8185602086016142c3565b6138178161442c565b840191505092915050565b61382b816141fd565b82525050565b61383a81614221565b82525050565b61384981614245565b82525050565b61385881614269565b82525050565b6138678161428d565b82525050565b600061387a600d83613e40565b91506138858261444a565b602082019050919050565b600061389d601983613e40565b91506138a882614473565b602082019050919050565b60006138c0602683613e40565b91506138cb8261449c565b604082019050919050565b60006138e3601083613e40565b91506138ee826144eb565b602082019050919050565b6000613906602083613e40565b915061391182614514565b602082019050919050565b6000613929601583613e40565b91506139348261453d565b602082019050919050565b600061394c601f83613e40565b915061395782614566565b602082019050919050565b61010082016000820151613979600085018261375e565b50602082015161398c602085018261375e565b50604082015161399f6040850182613a13565b5060608201516139b2606085018261375e565b5060808201516139c56080850182613a31565b5060a08201516139d860a0850182613a31565b5060c08201516139eb60c0850182613a31565b5060e08201516139fe60e0850182613a04565b50505050565b613a0d8161418f565b82525050565b613a1c816141af565b82525050565b613a2b816141af565b82525050565b613a3a816141be565b82525050565b613a49816141be565b82525050565b6000602082019050613a64600083018461376d565b92915050565b6000604082019050613a7f6000830185613740565b613a8c6020830184613a40565b9392505050565b6000606082019050613aa8600083018661376d565b613ab5602083018561376d565b613ac26040830184613a40565b949350505050565b6000604082019050613adf600083018561376d565b613aec6020830184613a40565b9392505050565b60006020820190508181036000830152613b0d818461377c565b905092915050565b6000602082019050613b2a60008301846137da565b92915050565b6000604082019050613b4560008301856137da565b8181036020830152613b5781846137e9565b90509392505050565b6000602082019050613b756000830184613822565b92915050565b6000602082019050613b906000830184613831565b92915050565b6000602082019050613bab6000830184613840565b92915050565b6000602082019050613bc6600083018461384f565b92915050565b60006020820190508181036000830152613be58161386d565b9050919050565b60006020820190508181036000830152613c0581613890565b9050919050565b60006020820190508181036000830152613c25816138b3565b9050919050565b60006020820190508181036000830152613c45816138d6565b9050919050565b60006020820190508181036000830152613c65816138f9565b9050919050565b60006020820190508181036000830152613c858161391c565b9050919050565b60006020820190508181036000830152613ca58161393f565b9050919050565b600061010082019050613cc26000830184613962565b92915050565b6000602082019050613cdd6000830184613a22565b92915050565b6000602082019050613cf86000830184613a40565b92915050565b600061014082019050613d14600083018d613a40565b613d21602083018c613a40565b613d2e604083018b613a40565b613d3b606083018a613a40565b613d486080830189613a40565b613d5560a0830188613a40565b613d6260c0830187613a40565b613d6f60e083018661385e565b613d7d61010083018561374f565b613d8b61012083018461374f565b9b9a5050505050505050505050565b6000613da4613db5565b9050613db082826142f6565b919050565b6000604051905090565b600067ffffffffffffffff821115613dda57613dd96143fd565b5b602082029050602081019050919050565b6000819050602082019050919050565b600081519050919050565b600081519050919050565b6000602082019050919050565b600082825260208201905092915050565b600082825260208201905092915050565b600082825260208201905092915050565b6000613e5c826141be565b9150613e67836141be565b9250827fffffffffffffffffffffffffffffffffffffffffffffffffffffffffffffffff03821115613e9c57613e9b614370565b5b828201905092915050565b6000613eb2826141c8565b9150613ebd836141c8565b92508260ff03821115613ed357613ed2614370565b5b828201905092915050565b6000613ee9826141be565b9150613ef4836141be565b925082613f0457613f0361439f565b5b828204905092915050565b6000808291508390505b6001851115613f5957808604811115613f3557613f34614370565b5b6001851615613f445780820291505b8081029050613f528561443d565b9450613f19565b94509492505050565b6000613f6d826141be565b9150613f78836141c8565b9250613fa57fffffffffffffffffffffffffffffffffffffffffffffffffffffffffffffffff8484613fad565b905092915050565b600082613fbd5760019050614079565b81613fcb5760009050614079565b8160018114613fe15760028114613feb5761401a565b6001915050614079565b60ff841115613ffd57613ffc614370565b5b8360020a91508482111561401457614013614370565b5b50614079565b5060208310610133831016604e8410600b841016171561404f5782820a90508381111561404a57614049614370565b5b614079565b61405c8484846001613f0f565b9250905081840481111561407357614072614370565b5b81810290505b9392505050565b600061408b826141be565b9150614096836141be565b9250817fffffffffffffffffffffffffffffffffffffffffffffffffffffffffffffffff04831182151516156140cf576140ce614370565b5b828202905092915050565b60006140e5826141be565b91506140f0836141be565b92508282101561410357614102614370565b5b828203905092915050565b6000614119826141c8565b9150614124836141c8565b92508282101561413757614136614370565b5b828203905092915050565b600061414d8261418f565b9050919050565b600061415f8261418f565b9050919050565b60008115159050919050565b60008190506141808261458f565b919050565b6000819050919050565b600073ffffffffffffffffffffffffffffffffffffffff82169050919050565b600062ffffff82169050919050565b6000819050919050565b600060ff82169050919050565b600069ffffffffffffffffffff82169050919050565b60006141f68261429f565b9050919050565b60006142088261420f565b9050919050565b600061421a8261418f565b9050919050565b600061422c82614233565b9050919050565b600061423e8261418f565b9050919050565b600061425082614257565b9050919050565b60006142628261418f565b9050919050565b60006142748261427b565b9050919050565b60006142868261418f565b9050919050565b600061429882614172565b9050919050565b60006142aa826142b1565b9050919050565b60006142bc8261418f565b9050919050565b60005b838110156142e15780820151818401526020810190506142c6565b838111156142f0576000848401525b50505050565b6142ff8261442c565b810181811067ffffffffffffffff8211171561431e5761431d6143fd565b5b80604052505050565b6000614332826141be565b91507fffffffffffffffffffffffffffffffffffffffffffffffffffffffffffffffff82141561436557614364614370565b5b600182019050919050565b7f4e487b7100000000000000000000000000000000000000000000000000000000600052601160045260246000fd5b7f4e487b7100000000000000000000000000000000000000000000000000000000600052601260045260246000fd5b7f4e487b7100000000000000000000000000000000000000000000000000000000600052602160045260246000fd5b7f4e487b7100000000000000000000000000000000000000000000000000000000600052604160045260246000fd5b6000601f19601f8301169050919050565b60008160011c9050919050565b7f45544820213d20616d6f756e7400000000000000000000000000000000000000600082015250565b7f41677265656d656e74206e6f7420736574746c65642079657400000000000000600082015250565b7f4f776e61626c653a206e6577206f776e657220697320746865207a65726f206160008201527f6464726573730000000000000000000000000000000000000000000000000000602082015250565b7f5061757361626c653a2070617573656400000000000000000000000000000000600082015250565b7f4f776e61626c653a2063616c6c6572206973206e6f7420746865206f776e6572600082015250565b7f4e6f7420656e6f75676820636f6c6c61746572616c0000000000000000000000600082015250565b7f5265656e7472616e637947756172643a207265656e7472616e742063616c6c00600082015250565b600481106145a05761459f6143ce565b5b50565b6145ac81614142565b81146145b757600080fd5b50565b6145c381614166565b81146145ce57600080fd5b50565b6145da81614185565b81146145e557600080fd5b50565b6145f1816141be565b81146145fc57600080fd5b50565b614608816141c8565b811461461357600080fd5b50565b61461f816141d5565b811461462a57600080fd5b5056fea2646970667358221220a36b7418f94ea2788dfb2a7c99722e461c6628edb9562cc1e02595959ad1be6464736f6c63430008040033",
  "devdoc": {
    "kind": "dev",
    "methods": {
      "owner()": {
        "details": "Returns the address of the current owner."
      },
      "paused()": {
        "details": "Returns true if the contract is paused, and false otherwise."
      },
      "performUpkeep(bytes)": {
        "details": "The input to this method should not be trusted, and the caller of the method should not even be restricted to any single registry. Anyone should be able call it, and the input should be validated, there is no guarantee that the data passed in is the performData returned from checkUpkeep. This could happen due to malicious keepers, racing keepers, or simply a state change while the performUpkeep transaction is waiting for confirmation. Always validate the data passed in.",
        "params": {
          "performData": "is the data which was passed back from the checkData simulation. If it is encoded, it can easily be decoded into other types by calling `abi.decode`. This data should not be trusted, and should be validated against the contract's current state."
        }
      },
      "renounceOwnership()": {
        "details": "Leaves the contract without owner. It will not be possible to call `onlyOwner` functions anymore. Can only be called by the current owner. NOTE: Renouncing ownership will leave the contract without an owner, thereby removing any functionality that is only available to the owner."
      },
      "transferOwnership(address)": {
        "details": "Transfers ownership of the contract to a new account (`newOwner`). Can only be called by the current owner."
      }
    },
    "version": 1
  },
  "userdoc": {
    "kind": "user",
    "methods": {
      "performUpkeep(bytes)": {
        "notice": "method that is actually executed by the keepers, via the registry. The data returned by the checkUpkeep simulation will be passed into this method to actually be executed."
      }
    },
    "version": 1
  },
  "storageLayout": {
    "storage": [
      {
        "astId": 311,
        "contract": "contracts/LiquidatableExchange.sol:LiquidatableExchange",
        "label": "_status",
        "offset": 0,
        "slot": "0",
        "type": "t_uint256"
      },
      {
        "astId": 226,
        "contract": "contracts/LiquidatableExchange.sol:LiquidatableExchange",
        "label": "_paused",
        "offset": 0,
        "slot": "1",
        "type": "t_bool"
      },
      {
        "astId": 111,
        "contract": "contracts/LiquidatableExchange.sol:LiquidatableExchange",
        "label": "_owner",
        "offset": 1,
        "slot": "1",
        "type": "t_address"
      },
      {
        "astId": 658,
        "contract": "contracts/LiquidatableExchange.sol:LiquidatableExchange",
        "label": "s_idToAgreement",
        "offset": 0,
        "slot": "2",
        "type": "t_mapping(t_uint256,t_struct(Agreement)639_storage)"
      },
      {
        "astId": 663,
        "contract": "contracts/LiquidatableExchange.sol:LiquidatableExchange",
        "label": "s_accountToIDs",
        "offset": 0,
        "slot": "3",
        "type": "t_mapping(t_address,t_array(t_uint256)dyn_storage)"
      },
      {
        "astId": 665,
        "contract": "contracts/LiquidatableExchange.sol:LiquidatableExchange",
        "label": "s_numIDs",
        "offset": 0,
        "slot": "4",
        "type": "t_uint256"
      },
      {
        "astId": 668,
        "contract": "contracts/LiquidatableExchange.sol:LiquidatableExchange",
        "label": "s_lenderToken",
        "offset": 0,
        "slot": "5",
        "type": "t_contract(IToken)1909"
      },
      {
        "astId": 671,
        "contract": "contracts/LiquidatableExchange.sol:LiquidatableExchange",
        "label": "s_priceFeed",
        "offset": 0,
        "slot": "6",
        "type": "t_contract(AggregatorV3Interface)84"
      },
      {
        "astId": 1475,
        "contract": "contracts/LiquidatableExchange.sol:LiquidatableExchange",
        "label": "s_swapRouter",
        "offset": 0,
        "slot": "7",
        "type": "t_contract(IUniswapRouter)1944"
      },
      {
        "astId": 1478,
        "contract": "contracts/LiquidatableExchange.sol:LiquidatableExchange",
        "label": "s_wethToken",
        "offset": 0,
        "slot": "8",
        "type": "t_contract(IWETH)1964"
      },
      {
        "astId": 1480,
        "contract": "contracts/LiquidatableExchange.sol:LiquidatableExchange",
        "label": "s_keeperRegistryAddress",
        "offset": 0,
        "slot": "9",
        "type": "t_address"
      }
    ],
    "types": {
      "t_address": {
        "encoding": "inplace",
        "label": "address",
        "numberOfBytes": "20"
      },
      "t_address_payable": {
        "encoding": "inplace",
        "label": "address payable",
        "numberOfBytes": "20"
      },
      "t_array(t_uint256)dyn_storage": {
        "base": "t_uint256",
        "encoding": "dynamic_array",
        "label": "uint256[]",
        "numberOfBytes": "32"
      },
      "t_bool": {
        "encoding": "inplace",
        "label": "bool",
        "numberOfBytes": "1"
      },
      "t_contract(AggregatorV3Interface)84": {
        "encoding": "inplace",
        "label": "contract AggregatorV3Interface",
        "numberOfBytes": "20"
      },
      "t_contract(IToken)1909": {
        "encoding": "inplace",
        "label": "contract IToken",
        "numberOfBytes": "20"
      },
      "t_contract(IUniswapRouter)1944": {
        "encoding": "inplace",
        "label": "contract IUniswapRouter",
        "numberOfBytes": "20"
      },
      "t_contract(IWETH)1964": {
        "encoding": "inplace",
        "label": "contract IWETH",
        "numberOfBytes": "20"
      },
      "t_enum(Status)617": {
        "encoding": "inplace",
        "label": "enum Status",
        "numberOfBytes": "1"
      },
      "t_mapping(t_address,t_array(t_uint256)dyn_storage)": {
        "encoding": "mapping",
        "key": "t_address",
        "label": "mapping(address => uint256[])",
        "numberOfBytes": "32",
        "value": "t_array(t_uint256)dyn_storage"
      },
      "t_mapping(t_uint256,t_struct(Agreement)639_storage)": {
        "encoding": "mapping",
        "key": "t_uint256",
        "label": "mapping(uint256 => struct Agreement)",
        "numberOfBytes": "32",
        "value": "t_struct(Agreement)639_storage"
      },
      "t_struct(Agreement)639_storage": {
        "encoding": "inplace",
        "label": "struct Agreement",
        "members": [
          {
            "astId": 619,
            "contract": "contracts/LiquidatableExchange.sol:LiquidatableExchange",
            "label": "deposit",
            "offset": 0,
            "slot": "0",
            "type": "t_uint256"
          },
          {
            "astId": 621,
            "contract": "contracts/LiquidatableExchange.sol:LiquidatableExchange",
            "label": "collateral",
            "offset": 0,
            "slot": "1",
            "type": "t_uint256"
          },
          {
            "astId": 623,
            "contract": "contracts/LiquidatableExchange.sol:LiquidatableExchange",
            "label": "repaidAmt",
            "offset": 0,
            "slot": "2",
            "type": "t_uint256"
          },
          {
            "astId": 625,
            "contract": "contracts/LiquidatableExchange.sol:LiquidatableExchange",
            "label": "futureValue",
            "offset": 0,
            "slot": "3",
            "type": "t_uint256"
          },
          {
            "astId": 627,
            "contract": "contracts/LiquidatableExchange.sol:LiquidatableExchange",
            "label": "start",
            "offset": 0,
            "slot": "4",
            "type": "t_uint256"
          },
          {
            "astId": 629,
            "contract": "contracts/LiquidatableExchange.sol:LiquidatableExchange",
            "label": "duration",
            "offset": 0,
            "slot": "5",
            "type": "t_uint256"
          },
          {
            "astId": 631,
            "contract": "contracts/LiquidatableExchange.sol:LiquidatableExchange",
            "label": "rate",
            "offset": 0,
            "slot": "6",
            "type": "t_uint256"
          },
          {
            "astId": 634,
            "contract": "contracts/LiquidatableExchange.sol:LiquidatableExchange",
            "label": "status",
            "offset": 0,
            "slot": "7",
            "type": "t_enum(Status)617"
          },
          {
            "astId": 636,
            "contract": "contracts/LiquidatableExchange.sol:LiquidatableExchange",
            "label": "lender",
            "offset": 1,
            "slot": "7",
            "type": "t_address_payable"
          },
          {
            "astId": 638,
            "contract": "contracts/LiquidatableExchange.sol:LiquidatableExchange",
            "label": "borrower",
            "offset": 0,
            "slot": "8",
            "type": "t_address_payable"
          }
        ],
        "numberOfBytes": "288"
      },
      "t_uint256": {
        "encoding": "inplace",
        "label": "uint256",
        "numberOfBytes": "32"
      }
    }
  }
}