{
  "address": "0x2279B7A0a67DB372996a5FaB50D91eAA73d2eBe6",
  "abi": [
    {
      "inputs": [],
      "name": "NeedsMoreThanZero",
      "type": "error"
    },
    {
      "inputs": [],
      "name": "NeedsToBeActive",
      "type": "error"
    },
    {
      "inputs": [],
      "name": "NeedsToBeBorrower",
      "type": "error"
    },
    {
      "inputs": [],
      "name": "NeedsToBeLender",
      "type": "error"
    },
    {
      "inputs": [],
      "name": "OnlySimulatedBackend",
      "type": "error"
    },
    {
      "inputs": [],
      "name": "TransferFailed",
      "type": "error"
    },
    {
      "anonymous": false,
      "inputs": [
        {
          "indexed": true,
          "internalType": "address",
          "name": "borrower",
          "type": "address"
        },
        {
          "indexed": true,
          "internalType": "uint256",
          "name": "id",
          "type": "uint256"
        },
        {
          "indexed": true,
          "internalType": "uint256",
          "name": "amount",
          "type": "uint256"
        }
      ],
      "name": "Activate",
      "type": "event"
    },
    {
      "anonymous": false,
      "inputs": [
        {
          "indexed": true,
          "internalType": "address",
          "name": "borrower",
          "type": "address"
        },
        {
          "indexed": true,
          "internalType": "uint256",
          "name": "id",
          "type": "uint256"
        },
        {
          "indexed": true,
          "internalType": "uint256",
          "name": "amount",
          "type": "uint256"
        }
      ],
      "name": "AddCollateral",
      "type": "event"
    },
    {
      "anonymous": false,
      "inputs": [
        {
          "indexed": true,
          "internalType": "address",
          "name": "lender",
          "type": "address"
        },
        {
          "indexed": true,
          "internalType": "address",
          "name": "borrower",
          "type": "address"
        },
        {
          "indexed": true,
          "internalType": "uint256",
          "name": "id",
          "type": "uint256"
        }
      ],
      "name": "Closed",
      "type": "event"
    },
    {
      "anonymous": false,
      "inputs": [
        {
          "indexed": true,
          "internalType": "address",
          "name": "borrower",
          "type": "address"
        },
        {
          "indexed": false,
          "internalType": "uint256",
          "name": "remainingValue",
          "type": "uint256"
        }
      ],
      "name": "Liquidate",
      "type": "event"
    },
    {
      "anonymous": false,
      "inputs": [
        {
          "indexed": true,
          "internalType": "address",
          "name": "previousOwner",
          "type": "address"
        },
        {
          "indexed": true,
          "internalType": "address",
          "name": "newOwner",
          "type": "address"
        }
      ],
      "name": "OwnershipTransferred",
      "type": "event"
    },
    {
      "anonymous": false,
      "inputs": [
        {
          "indexed": false,
          "internalType": "address",
          "name": "account",
          "type": "address"
        }
      ],
      "name": "Paused",
      "type": "event"
    },
    {
      "anonymous": false,
      "inputs": [
        {
          "indexed": true,
          "internalType": "address",
          "name": "lender",
          "type": "address"
        },
        {
          "indexed": true,
          "internalType": "uint256",
          "name": "id",
          "type": "uint256"
        },
        {
          "indexed": true,
          "internalType": "uint256",
          "name": "amount",
          "type": "uint256"
        }
      ],
      "name": "Propose",
      "type": "event"
    },
    {
      "anonymous": false,
      "inputs": [
        {
          "indexed": false,
          "internalType": "address",
          "name": "sender",
          "type": "address"
        },
        {
          "indexed": false,
          "internalType": "uint256",
          "name": "amount",
          "type": "uint256"
        }
      ],
      "name": "Received",
      "type": "event"
    },
    {
      "anonymous": false,
      "inputs": [
        {
          "indexed": true,
          "internalType": "address",
          "name": "lender",
          "type": "address"
        },
        {
          "indexed": true,
          "internalType": "uint256",
          "name": "id",
          "type": "uint256"
        },
        {
          "indexed": true,
          "internalType": "uint256",
          "name": "amount",
          "type": "uint256"
        }
      ],
      "name": "Repaid",
      "type": "event"
    },
    {
      "anonymous": false,
      "inputs": [
        {
          "indexed": true,
          "internalType": "address",
          "name": "borrower",
          "type": "address"
        },
        {
          "indexed": true,
          "internalType": "uint256",
          "name": "id",
          "type": "uint256"
        },
        {
          "indexed": true,
          "internalType": "uint256",
          "name": "amount",
          "type": "uint256"
        }
      ],
      "name": "Repay",
      "type": "event"
    },
    {
      "anonymous": false,
      "inputs": [
        {
          "indexed": false,
          "internalType": "address",
          "name": "account",
          "type": "address"
        }
      ],
      "name": "Unpaused",
      "type": "event"
    },
    {
      "anonymous": false,
      "inputs": [
        {
          "indexed": true,
          "internalType": "address",
          "name": "borrower",
          "type": "address"
        },
        {
          "indexed": true,
          "internalType": "uint256",
          "name": "id",
          "type": "uint256"
        },
        {
          "indexed": true,
          "internalType": "uint256",
          "name": "amount",
          "type": "uint256"
        }
      ],
      "name": "WithdrawCollateral",
      "type": "event"
    },
    {
      "inputs": [],
      "name": "LIQUIDATION_THRESHOLD",
      "outputs": [
        {
          "internalType": "uint256",
          "name": "",
          "type": "uint256"
        }
      ],
      "stateMutability": "view",
      "type": "function"
    },
    {
      "inputs": [],
      "name": "POLL_FEE",
      "outputs": [
        {
          "internalType": "uint24",
          "name": "",
          "type": "uint24"
        }
      ],
      "stateMutability": "view",
      "type": "function"
    },
    {
      "inputs": [
        {
          "internalType": "uint256",
          "name": "id",
          "type": "uint256"
        },
        {
          "internalType": "uint256",
          "name": "amount",
          "type": "uint256"
        }
      ],
      "name": "activate",
      "outputs": [],
      "stateMutability": "payable",
      "type": "function"
    },
    {
      "inputs": [
        {
          "internalType": "uint256",
          "name": "id",
          "type": "uint256"
        },
        {
          "internalType": "uint256",
          "name": "amount",
          "type": "uint256"
        }
      ],
      "name": "addCollateral",
      "outputs": [],
      "stateMutability": "payable",
      "type": "function"
    },
    {
      "inputs": [
        {
          "internalType": "bytes",
          "name": "",
          "type": "bytes"
        }
      ],
      "name": "checkUpkeep",
      "outputs": [
        {
          "internalType": "bool",
          "name": "upkeepNeeded",
          "type": "bool"
        },
        {
          "internalType": "bytes",
          "name": "performData",
          "type": "bytes"
        }
      ],
      "stateMutability": "view",
      "type": "function"
    },
    {
      "inputs": [
        {
          "internalType": "uint256",
          "name": "id",
          "type": "uint256"
        }
      ],
      "name": "close",
      "outputs": [],
      "stateMutability": "nonpayable",
      "type": "function"
    },
    {
      "inputs": [
        {
          "internalType": "uint256",
          "name": "amount",
          "type": "uint256"
        }
      ],
      "name": "getEthValueFromToken",
      "outputs": [
        {
          "internalType": "uint256",
          "name": "",
          "type": "uint256"
        }
      ],
      "stateMutability": "view",
      "type": "function"
    },
    {
      "inputs": [],
      "name": "getLiquidatableAgreements",
      "outputs": [
        {
          "internalType": "uint256[]",
          "name": "",
          "type": "uint256[]"
        }
      ],
      "stateMutability": "view",
      "type": "function"
    },
    {
      "inputs": [
        {
          "internalType": "uint256",
          "name": "id",
          "type": "uint256"
        }
      ],
      "name": "getMinReqCollateral",
      "outputs": [
        {
          "internalType": "uint256",
          "name": "",
          "type": "uint256"
        }
      ],
      "stateMutability": "view",
      "type": "function"
    },
    {
      "inputs": [
        {
          "internalType": "uint256",
          "name": "id",
          "type": "uint256"
        }
      ],
      "name": "isLiquidationRequired",
      "outputs": [
        {
          "internalType": "bool",
          "name": "",
          "type": "bool"
        }
      ],
      "stateMutability": "view",
      "type": "function"
    },
    {
      "inputs": [
        {
          "internalType": "uint256[]",
          "name": "idsToLiquidate",
          "type": "uint256[]"
        }
      ],
      "name": "liquidate",
      "outputs": [],
      "stateMutability": "nonpayable",
      "type": "function"
    },
    {
      "inputs": [
        {
          "internalType": "address",
          "name": "account",
          "type": "address"
        },
        {
          "internalType": "uint256",
          "name": "amount",
          "type": "uint256"
        }
      ],
      "name": "mint",
      "outputs": [],
      "stateMutability": "nonpayable",
      "type": "function"
    },
    {
      "inputs": [],
      "name": "owner",
      "outputs": [
        {
          "internalType": "address",
          "name": "",
          "type": "address"
        }
      ],
      "stateMutability": "view",
      "type": "function"
    },
    {
      "inputs": [],
      "name": "paused",
      "outputs": [
        {
          "internalType": "bool",
          "name": "",
          "type": "bool"
        }
      ],
      "stateMutability": "view",
      "type": "function"
    },
    {
      "inputs": [
        {
          "internalType": "bytes",
          "name": "performData",
          "type": "bytes"
        }
      ],
      "name": "performUpkeep",
      "outputs": [],
      "stateMutability": "nonpayable",
      "type": "function"
    },
    {
      "inputs": [
        {
          "internalType": "uint256",
          "name": "amount",
          "type": "uint256"
        },
        {
          "internalType": "uint256",
          "name": "duration",
          "type": "uint256"
        },
        {
          "internalType": "uint256",
          "name": "rate",
          "type": "uint256"
        }
      ],
      "name": "propose",
      "outputs": [
        {
          "internalType": "uint256",
          "name": "id",
          "type": "uint256"
        }
      ],
      "stateMutability": "nonpayable",
      "type": "function"
    },
    {
      "inputs": [],
      "name": "renounceOwnership",
      "outputs": [],
      "stateMutability": "nonpayable",
      "type": "function"
    },
    {
      "inputs": [
        {
          "internalType": "uint256",
          "name": "id",
          "type": "uint256"
        },
        {
          "internalType": "uint256",
          "name": "amount",
          "type": "uint256"
        }
      ],
      "name": "repay",
      "outputs": [],
      "stateMutability": "nonpayable",
      "type": "function"
    },
    {
      "inputs": [
        {
          "internalType": "address",
          "name": "",
          "type": "address"
        },
        {
          "internalType": "uint256",
          "name": "",
          "type": "uint256"
        }
      ],
      "name": "s_accountToIDs",
      "outputs": [
        {
          "internalType": "uint256",
          "name": "",
          "type": "uint256"
        }
      ],
      "stateMutability": "view",
      "type": "function"
    },
    {
      "inputs": [
        {
          "internalType": "uint256",
          "name": "",
          "type": "uint256"
        }
      ],
      "name": "s_idToAgreement",
      "outputs": [
        {
          "internalType": "uint256",
          "name": "deposit",
          "type": "uint256"
        },
        {
          "internalType": "uint256",
          "name": "collateral",
          "type": "uint256"
        },
        {
          "internalType": "uint256",
          "name": "repaidAmt",
          "type": "uint256"
        },
        {
          "internalType": "uint256",
          "name": "futureValue",
          "type": "uint256"
        },
        {
          "internalType": "uint256",
          "name": "start",
          "type": "uint256"
        },
        {
          "internalType": "uint256",
          "name": "duration",
          "type": "uint256"
        },
        {
          "internalType": "uint256",
          "name": "rate",
          "type": "uint256"
        },
        {
          "internalType": "enum Status",
          "name": "status",
          "type": "uint8"
        },
        {
          "internalType": "address payable",
          "name": "lender",
          "type": "address"
        },
        {
          "internalType": "address payable",
          "name": "borrower",
          "type": "address"
        }
      ],
      "stateMutability": "view",
      "type": "function"
    },
    {
      "inputs": [],
      "name": "s_keeperRegistryAddress",
      "outputs": [
        {
          "internalType": "address",
          "name": "",
          "type": "address"
        }
      ],
      "stateMutability": "view",
      "type": "function"
    },
    {
      "inputs": [],
      "name": "s_lenderToken",
      "outputs": [
        {
          "internalType": "contract IToken",
          "name": "",
          "type": "address"
        }
      ],
      "stateMutability": "view",
      "type": "function"
    },
    {
      "inputs": [],
      "name": "s_numIDs",
      "outputs": [
        {
          "internalType": "uint256",
          "name": "",
          "type": "uint256"
        }
      ],
      "stateMutability": "view",
      "type": "function"
    },
    {
      "inputs": [],
      "name": "s_priceFeed",
      "outputs": [
        {
          "internalType": "contract AggregatorV3Interface",
          "name": "",
          "type": "address"
        }
      ],
      "stateMutability": "view",
      "type": "function"
    },
    {
      "inputs": [],
      "name": "s_swapRouter",
      "outputs": [
        {
          "internalType": "contract IUniswapRouter",
          "name": "",
          "type": "address"
        }
      ],
      "stateMutability": "view",
      "type": "function"
    },
    {
      "inputs": [],
      "name": "s_wethToken",
      "outputs": [
        {
          "internalType": "contract IWETH",
          "name": "",
          "type": "address"
        }
      ],
      "stateMutability": "view",
      "type": "function"
    },
    {
      "inputs": [
        {
          "internalType": "address",
          "name": "keeperRegistryAddress",
          "type": "address"
        }
      ],
      "name": "setKeeperRegistryAddress",
      "outputs": [],
      "stateMutability": "nonpayable",
      "type": "function"
    },
    {
      "inputs": [
        {
          "internalType": "address",
          "name": "token",
          "type": "address"
        },
        {
          "internalType": "address",
          "name": "priceFeed",
          "type": "address"
        }
      ],
      "name": "setLenderToken",
      "outputs": [],
      "stateMutability": "nonpayable",
      "type": "function"
    },
    {
      "inputs": [
        {
          "internalType": "address",
          "name": "swapRouter",
          "type": "address"
        },
        {
          "internalType": "address",
          "name": "wethToken",
          "type": "address"
        }
      ],
      "name": "setSwapRouter",
      "outputs": [],
      "stateMutability": "nonpayable",
      "type": "function"
    },
    {
      "inputs": [
        {
          "internalType": "address",
          "name": "newOwner",
          "type": "address"
        }
      ],
      "name": "transferOwnership",
      "outputs": [],
      "stateMutability": "nonpayable",
      "type": "function"
    },
    {
      "inputs": [
        {
          "internalType": "uint256",
          "name": "id",
          "type": "uint256"
        },
        {
          "internalType": "uint256",
          "name": "amount",
          "type": "uint256"
        }
      ],
      "name": "withdrawCollateral",
      "outputs": [],
      "stateMutability": "nonpayable",
      "type": "function"
    },
    {
      "stateMutability": "payable",
      "type": "receive"
    }
  ],
  "transactionHash": "0xcc6e9bc9786af871ffb9f2aa165a06a10d05acef46f99ee5b39366d5a7377ecc",
  "args": [],
  "numDeployments": 1,
  "solcInputHash": "6f4cdb8654d3c14f2eabd2f1dfaa27e7",
  "bytecode": "0x60806040523480156200001157600080fd5b5060016000819055506000600160006101000a81548160ff02191690831515021790555062000055620000496200005b60201b60201c565b6200006360201b60201c565b62000126565b600033905090565b600060018054906101000a900473ffffffffffffffffffffffffffffffffffffffff169050816001806101000a81548173ffffffffffffffffffffffffffffffffffffffff021916908373ffffffffffffffffffffffffffffffffffffffff1602179055508173ffffffffffffffffffffffffffffffffffffffff168173ffffffffffffffffffffffffffffffffffffffff167f8be0079c531659141344cd1fd0a4f28419497f9722a3daafe3b4186f6b6457e060405160405180910390a35050565b61461080620001366000396000f3fe6080604052600436106101dc5760003560e01c8063715018a611610102578063a32d196811610095578063d8aed14511610064578063d8aed145146106f2578063dc40e2d01461071b578063e05acb5114610744578063f2fde38b1461076f5761021c565b8063a32d196814610643578063a8f35adf1461066e578063d35b0adc1461068a578063d51ac144146106c75761021c565b80638ea8f83c116100d15780638ea8f83c1461058d57806390a8ae9b146105a957806394555114146105d45780639bf9e715146105fd5761021c565b8063715018a6146104f7578063767a7b051461050e578063771b081e146105375780638da5cb5b146105625761021c565b806340376d561161017a5780635177e342116101495780635177e342146104285780635c975abb1461046557806365cad891146104905780636e04ff0d146104b95761021c565b806340376d561461035c57806340c10f19146103995780634585e33b146103c2578063482ae59b146103eb5761021c565b80630ec3b027116101b65780630ec3b027146102b25780631f9ff79d146102dd578063266a1b341461030657806330c71853146103315761021c565b8063030fdffb14610221578063034e30311461025e5780630aebeb4e146102895761021c565b3661021c577f88a5966d370b9919b20f3e2c13ff65706f196a4e32cc2c12bf57088f885258743334604051610212929190613a77565b60405180910390a1005b600080fd5b34801561022d57600080fd5b5061024860048036038101906102439190613558565b610798565b6040516102559190613c90565b60405180910390f35b34801561026a57600080fd5b506102736109cd565b6040516102809190613c75565b60405180910390f35b34801561029557600080fd5b506102b060048036038101906102ab9190613558565b6109d3565b005b3480156102be57600080fd5b506102c7610da6565b6040516102d49190613b0d565b60405180910390f35b3480156102e957600080fd5b5061030460048036038101906102ff9190613431565b610dcc565b005b34801561031257600080fd5b5061031b610ece565b6040516103289190613aa0565b60405180910390f35b34801561033d57600080fd5b50610346610ff1565b6040516103539190613b5e565b60405180910390f35b34801561036857600080fd5b50610383600480360381019061037e91906135e6565b611017565b6040516103909190613c90565b60405180910390f35b3480156103a557600080fd5b506103c060048036038101906103bb919061346d565b611495565b005b3480156103ce57600080fd5b506103e960048036038101906103e49190613513565b611528565b005b3480156103f757600080fd5b50610412600480360381019061040d9190613558565b611591565b60405161041f9190613ac2565b60405180910390f35b34801561043457600080fd5b5061044f600480360381019061044a919061346d565b6117d5565b60405161045c9190613c90565b60405180910390f35b34801561047157600080fd5b5061047a611806565b6040516104879190613ac2565b60405180910390f35b34801561049c57600080fd5b506104b760048036038101906104b291906134a9565b61181d565b005b3480156104c557600080fd5b506104e060048036038101906104db9190613513565b611a76565b6040516104ee929190613add565b60405180910390f35b34801561050357600080fd5b5061050c611aff565b005b34801561051a57600080fd5b50610535600480360381019061053091906135aa565b611b87565b005b34801561054357600080fd5b5061054c612014565b60405161055991906139fc565b60405180910390f35b34801561056e57600080fd5b5061057761203a565b60405161058491906139fc565b60405180910390f35b6105a760048036038101906105a291906135aa565b612062565b005b3480156105b557600080fd5b506105be612379565b6040516105cb9190613c90565b60405180910390f35b3480156105e057600080fd5b506105fb60048036038101906105f69190613408565b61237e565b005b34801561060957600080fd5b50610624600480360381019061061f9190613558565b612478565b60405161063a9a99989796959493929190613cab565b60405180910390f35b34801561064f57600080fd5b50610658612519565b6040516106659190613c90565b60405180910390f35b610688600480360381019061068391906135aa565b61251f565b005b34801561069657600080fd5b506106b160048036038101906106ac9190613558565b612763565b6040516106be9190613c90565b60405180910390f35b3480156106d357600080fd5b506106dc61293f565b6040516106e99190613b28565b60405180910390f35b3480156106fe57600080fd5b50610719600480360381019061071491906135aa565b612965565b005b34801561072757600080fd5b50610742600480360381019061073d9190613431565b612d53565b005b34801561075057600080fd5b50610759612e8f565b6040516107669190613b43565b60405180910390f35b34801561077b57600080fd5b5061079660048036038101906107919190613408565b612eb5565b005b600080600660009054906101000a900473ffffffffffffffffffffffffffffffffffffffff1673ffffffffffffffffffffffffffffffffffffffff1663feaf968c6040518163ffffffff1660e01b815260040160a06040518083038186803b15801561080357600080fd5b505afa158015610817573d6000803e3d6000fd5b505050506040513d601f19601f8201168201806040525081019061083b9190613635565b5050509150506000600660009054906101000a900473ffffffffffffffffffffffffffffffffffffffff1673ffffffffffffffffffffffffffffffffffffffff1663313ce5676040518163ffffffff1660e01b815260040160206040518083038186803b1580156108ab57600080fd5b505afa1580156108bf573d6000803e3d6000fd5b505050506040513d601f19601f820116820180604052508101906108e391906136ac565b90506000600560009054906101000a900473ffffffffffffffffffffffffffffffffffffffff1673ffffffffffffffffffffffffffffffffffffffff1663313ce5676040518163ffffffff1660e01b815260040160206040518083038186803b15801561094f57600080fd5b505afa158015610963573d6000803e3d6000fd5b505050506040513d601f19601f8201168201806040525081019061098791906136ac565b905082818360126109989190613e54565b6109a291906140bb565b600a6109ae9190613f0f565b866109b9919061402d565b6109c39190613e8b565b9350505050919050565b610bb881565b60026000541415610a19576040517f08c379a0000000000000000000000000000000000000000000000000000000008152600401610a1090613c39565b60405180910390fd5b6002600081905550803373ffffffffffffffffffffffffffffffffffffffff166002600083815260200190815260200160002060070160019054906101000a900473ffffffffffffffffffffffffffffffffffffffff1673ffffffffffffffffffffffffffffffffffffffff1614610abd576040517f3a7d412400000000000000000000000000000000000000000000000000000000815260040160405180910390fd5b8160026003811115610af8577f4e487b7100000000000000000000000000000000000000000000000000000000600052602160045260246000fd5b6002600083815260200190815260200160002060070160009054906101000a900460ff166003811115610b54577f4e487b7100000000000000000000000000000000000000000000000000000000600052602160045260246000fd5b14610b8b576040517f9206086a00000000000000000000000000000000000000000000000000000000815260040160405180910390fd5b600060026000858152602001908152602001600020905060008160030154905080826002015414610be5577f4e487b7100000000000000000000000000000000000000000000000000000000600052600160045260246000fd5b6000600560009054906101000a900473ffffffffffffffffffffffffffffffffffffffff1673ffffffffffffffffffffffffffffffffffffffff1663a9059cbb8460070160019054906101000a900473ffffffffffffffffffffffffffffffffffffffff16846040518363ffffffff1660e01b8152600401610c68929190613a17565b602060405180830381600087803b158015610c8257600080fd5b505af1158015610c96573d6000803e3d6000fd5b505050506040513d601f19601f82011682018060405250810190610cba91906134ea565b905080610cf3576040517f90b8ec1800000000000000000000000000000000000000000000000000000000815260040160405180910390fd5b858360080160009054906101000a900473ffffffffffffffffffffffffffffffffffffffff1673ffffffffffffffffffffffffffffffffffffffff168460070160019054906101000a900473ffffffffffffffffffffffffffffffffffffffff1673ffffffffffffffffffffffffffffffffffffffff167f62d095e2c4513ab737ede7cbd30334eccb10424cbc543ebb5c458b5174cddcd560405160405180910390a45050505050600160008190555050565b600660009054906101000a900473ffffffffffffffffffffffffffffffffffffffff1681565b610dd4612fad565b73ffffffffffffffffffffffffffffffffffffffff16610df261203a565b73ffffffffffffffffffffffffffffffffffffffff1614610e48576040517f08c379a0000000000000000000000000000000000000000000000000000000008152600401610e3f90613bf9565b60405180910390fd5b81600560006101000a81548173ffffffffffffffffffffffffffffffffffffffff021916908373ffffffffffffffffffffffffffffffffffffffff16021790555080600660006101000a81548173ffffffffffffffffffffffffffffffffffffffff021916908373ffffffffffffffffffffffffffffffffffffffff1602179055505050565b6060600060045467ffffffffffffffff811115610f14577f4e487b7100000000000000000000000000000000000000000000000000000000600052604160045260246000fd5b604051908082528060200260200182016040528015610f425781602001602082028036833780820191505090505b50905060008080600190505b6004548111610fda57610f6081611591565b91508115610fc9578084600183610f779190614087565b81518110610fae577f4e487b7100000000000000000000000000000000000000000000000000000000600052603260045260246000fd5b6020026020010181815250508280610fc5906142d4565b9350505b80610fd3906142d4565b9050610f4e565b506004548214610fe8578183525b82935050505090565b600860009054906101000a900473ffffffffffffffffffffffffffffffffffffffff1681565b60006002600054141561105f576040517f08c379a000000000000000000000000000000000000000000000000000000000815260040161105690613c39565b60405180910390fd5b60026000819055508360008114156110a3576040517ff45911f000000000000000000000000000000000000000000000000000000000815260040160405180910390fd5b60006103e885856103e86110b79190613dfe565b886110c2919061402d565b6110cc919061402d565b6110d69190613e8b565b905060006040518061014001604052808881526020016000815260200160008152602001838152602001600081526020018781526020018681526020016000600381111561114d577f4e487b7100000000000000000000000000000000000000000000000000000000600052602160045260246000fd5b81526020013373ffffffffffffffffffffffffffffffffffffffff168152602001600073ffffffffffffffffffffffffffffffffffffffff1681525090506000600560009054906101000a900473ffffffffffffffffffffffffffffffffffffffff1673ffffffffffffffffffffffffffffffffffffffff166323b872dd33308b6040518463ffffffff1660e01b81526004016111ec93929190613a40565b602060405180830381600087803b15801561120657600080fd5b505af115801561121a573d6000803e3d6000fd5b505050506040513d601f19601f8201168201806040525081019061123e91906134ea565b905080611277576040517f90b8ec1800000000000000000000000000000000000000000000000000000000815260040160405180910390fd5b6004600081548092919061128a906142d4565b919050555060045494508160026000878152602001908152602001600020600082015181600001556020820151816001015560408201518160020155606082015181600301556080820151816004015560a0820151816005015560c0820151816006015560e08201518160070160006101000a81548160ff0219169083600381111561133f577f4e487b7100000000000000000000000000000000000000000000000000000000600052602160045260246000fd5b02179055506101008201518160070160016101000a81548173ffffffffffffffffffffffffffffffffffffffff021916908373ffffffffffffffffffffffffffffffffffffffff1602179055506101208201518160080160006101000a81548173ffffffffffffffffffffffffffffffffffffffff021916908373ffffffffffffffffffffffffffffffffffffffff160217905550905050600360003373ffffffffffffffffffffffffffffffffffffffff1673ffffffffffffffffffffffffffffffffffffffff16815260200190815260200160002085908060018154018082558091505060019003906000526020600020016000909190919091505587853373ffffffffffffffffffffffffffffffffffffffff167ffcb5913d5cff8e37667ef76381030e4118bc2091969ecf14726dd959e0e15c0760405160405180910390a45050505060016000819055509392505050565b600560009054906101000a900473ffffffffffffffffffffffffffffffffffffffff1673ffffffffffffffffffffffffffffffffffffffff166340c10f1983836040518363ffffffff1660e01b81526004016114f2929190613a77565b600060405180830381600087803b15801561150c57600080fd5b505af1158015611520573d6000803e3d6000fd5b505050505050565b611530611806565b15611570576040517f08c379a000000000000000000000000000000000000000000000000000000000815260040161156790613bd9565b60405180910390fd5b6000828281019061158191906134a9565b905061158c8161181d565b505050565b6000806002600084815260200190815260200160002060405180610140016040529081600082015481526020016001820154815260200160028201548152602001600382015481526020016004820154815260200160058201548152602001600682015481526020016007820160009054906101000a900460ff166003811115611644577f4e487b7100000000000000000000000000000000000000000000000000000000600052602160045260246000fd5b600381111561167c577f4e487b7100000000000000000000000000000000000000000000000000000000600052602160045260246000fd5b81526020016007820160019054906101000a900473ffffffffffffffffffffffffffffffffffffffff1673ffffffffffffffffffffffffffffffffffffffff1673ffffffffffffffffffffffffffffffffffffffff1681526020016008820160009054906101000a900473ffffffffffffffffffffffffffffffffffffffff1673ffffffffffffffffffffffffffffffffffffffff1673ffffffffffffffffffffffffffffffffffffffff1681525050905060008160800151905060008260a00151905060006301e133809050600084604001519050600085606001519050600061176689612763565b9050600087602001519050818111611789576001985050505050505050506117d0565b8486611795919061402d565b87426117a19190614087565b1180156117ad57508284105b156117c3576001985050505050505050506117d0565b6000985050505050505050505b919050565b600360205281600052604060002081815481106117f157600080fd5b90600052602060002001600091509150505481565b6000600160009054906101000a900460ff16905090565b611825611806565b15611865576040517f08c379a000000000000000000000000000000000000000000000000000000000815260040161185c90613bd9565b60405180910390fd5b600080600090505b8251811015611a715760008382815181106118b1577f4e487b7100000000000000000000000000000000000000000000000000000000600052603260045260246000fd5b6020026020010151905060026000828152602001908152602001600020925060006118db82611591565b90508015611a5e576000846002015485600301546118f99190614087565b9050600061190c30838860010154612fb5565b905060028660070160006101000a81548160ff0219169083600381111561195c577f4e487b7100000000000000000000000000000000000000000000000000000000600052602160045260246000fd5b0217905550808660010160008282546119759190614087565b925050819055508560080160009054906101000a900473ffffffffffffffffffffffffffffffffffffffff1673ffffffffffffffffffffffffffffffffffffffff167f08813a3631e12129135cc9440d3fea50eec346f1673b20b994b0456d5d46ccb987600101546040516119ea9190613c90565b60405180910390a281848760070160019054906101000a900473ffffffffffffffffffffffffffffffffffffffff1673ffffffffffffffffffffffffffffffffffffffff167f1b8cd61ed43bec7c6bdad3a18ffee613f99c853d16c50678d248d879e1b4343860405160405180910390a450505b505080611a6a906142d4565b905061186d565b505050565b60006060611a82611806565b15611ac2576040517f08c379a0000000000000000000000000000000000000000000000000000000008152600401611ab990613bd9565b60405180910390fd5b6000611acc610ece565b90506000815111925080604051602001611ae69190613aa0565b6040516020818303038152906040529150509250929050565b611b07612fad565b73ffffffffffffffffffffffffffffffffffffffff16611b2561203a565b73ffffffffffffffffffffffffffffffffffffffff1614611b7b576040517f08c379a0000000000000000000000000000000000000000000000000000000008152600401611b7290613bf9565b60405180910390fd5b611b8560006131d2565b565b60026000541415611bcd576040517f08c379a0000000000000000000000000000000000000000000000000000000008152600401611bc490613c39565b60405180910390fd5b6002600081905550813373ffffffffffffffffffffffffffffffffffffffff166002600083815260200190815260200160002060080160009054906101000a900473ffffffffffffffffffffffffffffffffffffffff1673ffffffffffffffffffffffffffffffffffffffff1614611c71576040517fc0e58a0500000000000000000000000000000000000000000000000000000000815260040160405180910390fd5b816000811415611cad576040517ff45911f000000000000000000000000000000000000000000000000000000000815260040160405180910390fd5b600060026000868152602001908152602001600020905060008160070160009054906101000a900460ff1690506000826001015490506000611cee88612763565b905060016003811115611d2a577f4e487b7100000000000000000000000000000000000000000000000000000000600052602160045260246000fd5b836003811115611d63577f4e487b7100000000000000000000000000000000000000000000000000000000600052602160045260246000fd5b1415611dbb57808783611d769190614087565b11611db6576040517f08c379a0000000000000000000000000000000000000000000000000000000008152600401611dad90613c19565b60405180910390fd5b611ee9565b60026003811115611df5577f4e487b7100000000000000000000000000000000000000000000000000000000600052602160045260246000fd5b836003811115611e2e577f4e487b7100000000000000000000000000000000000000000000000000000000600052602160045260246000fd5b1480611ea95750600380811115611e6e577f4e487b7100000000000000000000000000000000000000000000000000000000600052602160045260246000fd5b836003811115611ea7577f4e487b7100000000000000000000000000000000000000000000000000000000600052602160045260246000fd5b145b611ee8576040517f08c379a0000000000000000000000000000000000000000000000000000000008152600401611edf90613b99565b60405180910390fd5b5b86846001016000828254611efd9190614087565b9250508190555060008460080160009054906101000a900473ffffffffffffffffffffffffffffffffffffffff1673ffffffffffffffffffffffffffffffffffffffff166108fc899081150290604051600060405180830381858888f19350505050905080611f98576040517f90b8ec1800000000000000000000000000000000000000000000000000000000815260040160405180910390fd5b87898660080160009054906101000a900473ffffffffffffffffffffffffffffffffffffffff1673ffffffffffffffffffffffffffffffffffffffff167f627a692d5a03ab34732c0d2aa319f3ecdebdc4528f383eabcb25441dc0a70cfb60405160405180910390a45050505050505060016000819055505050565b600960009054906101000a900473ffffffffffffffffffffffffffffffffffffffff1681565b600060018054906101000a900473ffffffffffffffffffffffffffffffffffffffff16905090565b600260005414156120a8576040517f08c379a000000000000000000000000000000000000000000000000000000000815260040161209f90613c39565b60405180910390fd5b60026000819055503460008114156120ec576040517ff45911f000000000000000000000000000000000000000000000000000000000815260040160405180910390fd5b81341461212e576040517f08c379a000000000000000000000000000000000000000000000000000000000815260040161212590613b79565b60405180910390fd5b61213783612763565b8211612178576040517f08c379a000000000000000000000000000000000000000000000000000000000815260040161216f90613c19565b60405180910390fd5b6000600260008581526020019081526020016000209050428160040181905550338160080160006101000a81548173ffffffffffffffffffffffffffffffffffffffff021916908373ffffffffffffffffffffffffffffffffffffffff16021790555060018160070160006101000a81548160ff02191690836003811115612229577f4e487b7100000000000000000000000000000000000000000000000000000000600052602160045260246000fd5b02179055508281600101819055506000600560009054906101000a900473ffffffffffffffffffffffffffffffffffffffff1673ffffffffffffffffffffffffffffffffffffffff1663a9059cbb3384600001546040518363ffffffff1660e01b815260040161229a929190613a77565b602060405180830381600087803b1580156122b457600080fd5b505af11580156122c8573d6000803e3d6000fd5b505050506040513d601f19601f820116820180604052508101906122ec91906134ea565b905080612325576040517f90b8ec1800000000000000000000000000000000000000000000000000000000815260040160405180910390fd5b83853373ffffffffffffffffffffffffffffffffffffffff167fbd91f62af1740ef6fd0b373ce523c11845b4c4699f80233ee0092bfd0a222ccf60405160405180910390a450505060016000819055505050565b605081565b612386612fad565b73ffffffffffffffffffffffffffffffffffffffff166123a461203a565b73ffffffffffffffffffffffffffffffffffffffff16146123fa576040517f08c379a00000000000000000000000000000000000000000000000000000000081526004016123f190613bf9565b60405180910390fd5b600073ffffffffffffffffffffffffffffffffffffffff168173ffffffffffffffffffffffffffffffffffffffff16141561243457600080fd5b80600960006101000a81548173ffffffffffffffffffffffffffffffffffffffff021916908373ffffffffffffffffffffffffffffffffffffffff16021790555050565b60026020528060005260406000206000915090508060000154908060010154908060020154908060030154908060040154908060050154908060060154908060070160009054906101000a900460ff16908060070160019054906101000a900473ffffffffffffffffffffffffffffffffffffffff16908060080160009054906101000a900473ffffffffffffffffffffffffffffffffffffffff1690508a565b60045481565b60026000541415612565576040517f08c379a000000000000000000000000000000000000000000000000000000000815260040161255c90613c39565b60405180910390fd5b600260008190555081600160038111156125a8577f4e487b7100000000000000000000000000000000000000000000000000000000600052602160045260246000fd5b6002600083815260200190815260200160002060070160009054906101000a900460ff166003811115612604577f4e487b7100000000000000000000000000000000000000000000000000000000600052602160045260246000fd5b1461263b576040517f9206086a00000000000000000000000000000000000000000000000000000000815260040160405180910390fd5b816000811415612677576040517ff45911f000000000000000000000000000000000000000000000000000000000815260040160405180910390fd5b8234146126b9576040517f08c379a00000000000000000000000000000000000000000000000000000000081526004016126b090613b79565b60405180910390fd5b6000600260008681526020019081526020016000209050838160010160008282546126e49190613dfe565b9250508190555083858260080160009054906101000a900473ffffffffffffffffffffffffffffffffffffffff1673ffffffffffffffffffffffffffffffffffffffff167fe3f4fa74d049cf7d64965afd6ce83c826cd313cec824ecfb9aacf36886090b4960405160405180910390a450505060016000819055505050565b6000806002600084815260200190815260200160002060405180610140016040529081600082015481526020016001820154815260200160028201548152602001600382015481526020016004820154815260200160058201548152602001600682015481526020016007820160009054906101000a900460ff166003811115612816577f4e487b7100000000000000000000000000000000000000000000000000000000600052602160045260246000fd5b600381111561284e577f4e487b7100000000000000000000000000000000000000000000000000000000600052602160045260246000fd5b81526020016007820160019054906101000a900473ffffffffffffffffffffffffffffffffffffffff1673ffffffffffffffffffffffffffffffffffffffff1673ffffffffffffffffffffffffffffffffffffffff1681526020016008820160009054906101000a900473ffffffffffffffffffffffffffffffffffffffff1673ffffffffffffffffffffffffffffffffffffffff1673ffffffffffffffffffffffffffffffffffffffff1681525050905060006064605060c86129129190614087565b61291f8460600151610798565b612929919061402d565b6129339190613e8b565b90508092505050919050565b600560009054906101000a900473ffffffffffffffffffffffffffffffffffffffff1681565b600260005414156129ab576040517f08c379a00000000000000000000000000000000000000000000000000000000081526004016129a290613c39565b60405180910390fd5b600260008190555081600160038111156129ee577f4e487b7100000000000000000000000000000000000000000000000000000000600052602160045260246000fd5b6002600083815260200190815260200160002060070160009054906101000a900460ff166003811115612a4a577f4e487b7100000000000000000000000000000000000000000000000000000000600052602160045260246000fd5b14612a81576040517f9206086a00000000000000000000000000000000000000000000000000000000815260040160405180910390fd5b816000811415612abd576040517ff45911f000000000000000000000000000000000000000000000000000000000815260040160405180910390fd5b6000600260008681526020019081526020016000209050600081600301549050600082600201549050818682612af39190613dfe565b1115612b08578082612b059190614087565b95505b85836002016000828254612b1c9190613dfe565b925050819055508183600201541415612bec5760028360070160006101000a81548160ff02191690836003811115612b7d577f4e487b7100000000000000000000000000000000000000000000000000000000600052602160045260246000fd5b021790555081878460070160019054906101000a900473ffffffffffffffffffffffffffffffffffffffff1673ffffffffffffffffffffffffffffffffffffffff167f1b8cd61ed43bec7c6bdad3a18ffee613f99c853d16c50678d248d879e1b4343860405160405180910390a45b6000600560009054906101000a900473ffffffffffffffffffffffffffffffffffffffff1673ffffffffffffffffffffffffffffffffffffffff166323b872dd33308a6040518463ffffffff1660e01b8152600401612c4d93929190613a40565b602060405180830381600087803b158015612c6757600080fd5b505af1158015612c7b573d6000803e3d6000fd5b505050506040513d601f19601f82011682018060405250810190612c9f91906134ea565b905080612cd8576040517f90b8ec1800000000000000000000000000000000000000000000000000000000815260040160405180910390fd5b86888560080160009054906101000a900473ffffffffffffffffffffffffffffffffffffffff1673ffffffffffffffffffffffffffffffffffffffff167f77c6871227e5d2dec8dadd5354f78453203e22e669cd0ec4c19d9a8c5edb31d060405160405180910390a450505050505060016000819055505050565b612d5b612fad565b73ffffffffffffffffffffffffffffffffffffffff16612d7961203a565b73ffffffffffffffffffffffffffffffffffffffff1614612dcf576040517f08c379a0000000000000000000000000000000000000000000000000000000008152600401612dc690613bf9565b60405180910390fd5b600073ffffffffffffffffffffffffffffffffffffffff168273ffffffffffffffffffffffffffffffffffffffff161415612e0957600080fd5b81600760006101000a81548173ffffffffffffffffffffffffffffffffffffffff021916908373ffffffffffffffffffffffffffffffffffffffff16021790555080600860006101000a81548173ffffffffffffffffffffffffffffffffffffffff021916908373ffffffffffffffffffffffffffffffffffffffff1602179055505050565b600760009054906101000a900473ffffffffffffffffffffffffffffffffffffffff1681565b612ebd612fad565b73ffffffffffffffffffffffffffffffffffffffff16612edb61203a565b73ffffffffffffffffffffffffffffffffffffffff1614612f31576040517f08c379a0000000000000000000000000000000000000000000000000000000008152600401612f2890613bf9565b60405180910390fd5b600073ffffffffffffffffffffffffffffffffffffffff168173ffffffffffffffffffffffffffffffffffffffff161415612fa1576040517f08c379a0000000000000000000000000000000000000000000000000000000008152600401612f9890613bb9565b60405180910390fd5b612faa816131d2565b50565b600033905090565b600080604051806101000160405280600860009054906101000a900473ffffffffffffffffffffffffffffffffffffffff1673ffffffffffffffffffffffffffffffffffffffff168152602001600560009054906101000a900473ffffffffffffffffffffffffffffffffffffffff1673ffffffffffffffffffffffffffffffffffffffff168152602001610bb862ffffff1681526020018673ffffffffffffffffffffffffffffffffffffffff168152602001428152602001858152602001848152602001600073ffffffffffffffffffffffffffffffffffffffff168152509050600760009054906101000a900473ffffffffffffffffffffffffffffffffffffffff1673ffffffffffffffffffffffffffffffffffffffff1663db3e219884836040518363ffffffff1660e01b81526004016130f49190613c59565b6020604051808303818588803b15801561310d57600080fd5b505af1158015613121573d6000803e3d6000fd5b50505050506040513d601f19601f820116820180604052508101906131469190613581565b9150600760009054906101000a900473ffffffffffffffffffffffffffffffffffffffff1673ffffffffffffffffffffffffffffffffffffffff166312210e8a6040518163ffffffff1660e01b8152600401600060405180830381600087803b1580156131b257600080fd5b505af11580156131c6573d6000803e3d6000fd5b50505050509392505050565b600060018054906101000a900473ffffffffffffffffffffffffffffffffffffffff169050816001806101000a81548173ffffffffffffffffffffffffffffffffffffffff021916908373ffffffffffffffffffffffffffffffffffffffff1602179055508173ffffffffffffffffffffffffffffffffffffffff168173ffffffffffffffffffffffffffffffffffffffff167f8be0079c531659141344cd1fd0a4f28419497f9722a3daafe3b4186f6b6457e060405160405180910390a35050565b60006132a86132a384613d6c565b613d47565b905080838252602082019050828560208602820111156132c757600080fd5b60005b858110156132f757816132dd88826133b4565b8452602084019350602083019250506001810190506132ca565b5050509392505050565b60008135905061331081614550565b92915050565b600082601f83011261332757600080fd5b8135613337848260208601613295565b91505092915050565b60008151905061334f81614567565b92915050565b60008083601f84011261336757600080fd5b8235905067ffffffffffffffff81111561338057600080fd5b60208301915083600182028301111561339857600080fd5b9250929050565b6000815190506133ae8161457e565b92915050565b6000813590506133c381614595565b92915050565b6000815190506133d881614595565b92915050565b6000815190506133ed816145c3565b92915050565b600081519050613402816145ac565b92915050565b60006020828403121561341a57600080fd5b600061342884828501613301565b91505092915050565b6000806040838503121561344457600080fd5b600061345285828601613301565b925050602061346385828601613301565b9150509250929050565b6000806040838503121561348057600080fd5b600061348e85828601613301565b925050602061349f858286016133b4565b9150509250929050565b6000602082840312156134bb57600080fd5b600082013567ffffffffffffffff8111156134d557600080fd5b6134e184828501613316565b91505092915050565b6000602082840312156134fc57600080fd5b600061350a84828501613340565b91505092915050565b6000806020838503121561352657600080fd5b600083013567ffffffffffffffff81111561354057600080fd5b61354c85828601613355565b92509250509250929050565b60006020828403121561356a57600080fd5b6000613578848285016133b4565b91505092915050565b60006020828403121561359357600080fd5b60006135a1848285016133c9565b91505092915050565b600080604083850312156135bd57600080fd5b60006135cb858286016133b4565b92505060206135dc858286016133b4565b9150509250929050565b6000806000606084860312156135fb57600080fd5b6000613609868287016133b4565b935050602061361a868287016133b4565b925050604061362b868287016133b4565b9150509250925092565b600080600080600060a0868803121561364d57600080fd5b600061365b888289016133de565b955050602061366c8882890161339f565b945050604061367d888289016133c9565b935050606061368e888289016133c9565b925050608061369f888289016133de565b9150509295509295909350565b6000602082840312156136be57600080fd5b60006136cc848285016133f3565b91505092915050565b60006136e183836139de565b60208301905092915050565b6136f681614198565b82525050565b61370581614101565b82525050565b613714816140ef565b82525050565b613723816140ef565b82525050565b600061373482613da8565b61373e8185613dcb565b935061374983613d98565b8060005b8381101561377a57815161376188826136d5565b975061376c83613dbe565b92505060018101905061374d565b5085935050505092915050565b61379081614113565b82525050565b60006137a182613db3565b6137ab8185613ddc565b93506137bb818560208601614270565b6137c4816143d9565b840191505092915050565b6137d8816141aa565b82525050565b6137e7816141ce565b82525050565b6137f6816141f2565b82525050565b61380581614216565b82525050565b6138148161423a565b82525050565b6000613827600d83613ded565b9150613832826143f7565b602082019050919050565b600061384a601983613ded565b915061385582614420565b602082019050919050565b600061386d602683613ded565b915061387882614449565b604082019050919050565b6000613890601083613ded565b915061389b82614498565b602082019050919050565b60006138b3602083613ded565b91506138be826144c1565b602082019050919050565b60006138d6601583613ded565b91506138e1826144ea565b602082019050919050565b60006138f9601f83613ded565b915061390482614513565b602082019050919050565b61010082016000820151613926600085018261370b565b506020820151613939602085018261370b565b50604082015161394c60408501826139c0565b50606082015161395f606085018261370b565b50608082015161397260808501826139de565b5060a082015161398560a08501826139de565b5060c082015161399860c08501826139de565b5060e08201516139ab60e08501826139b1565b50505050565b6139ba8161413c565b82525050565b6139c98161415c565b82525050565b6139d88161415c565b82525050565b6139e78161416b565b82525050565b6139f68161416b565b82525050565b6000602082019050613a11600083018461371a565b92915050565b6000604082019050613a2c60008301856136ed565b613a3960208301846139ed565b9392505050565b6000606082019050613a55600083018661371a565b613a62602083018561371a565b613a6f60408301846139ed565b949350505050565b6000604082019050613a8c600083018561371a565b613a9960208301846139ed565b9392505050565b60006020820190508181036000830152613aba8184613729565b905092915050565b6000602082019050613ad76000830184613787565b92915050565b6000604082019050613af26000830185613787565b8181036020830152613b048184613796565b90509392505050565b6000602082019050613b2260008301846137cf565b92915050565b6000602082019050613b3d60008301846137de565b92915050565b6000602082019050613b5860008301846137ed565b92915050565b6000602082019050613b7360008301846137fc565b92915050565b60006020820190508181036000830152613b928161381a565b9050919050565b60006020820190508181036000830152613bb28161383d565b9050919050565b60006020820190508181036000830152613bd281613860565b9050919050565b60006020820190508181036000830152613bf281613883565b9050919050565b60006020820190508181036000830152613c12816138a6565b9050919050565b60006020820190508181036000830152613c32816138c9565b9050919050565b60006020820190508181036000830152613c52816138ec565b9050919050565b600061010082019050613c6f600083018461390f565b92915050565b6000602082019050613c8a60008301846139cf565b92915050565b6000602082019050613ca560008301846139ed565b92915050565b600061014082019050613cc1600083018d6139ed565b613cce602083018c6139ed565b613cdb604083018b6139ed565b613ce8606083018a6139ed565b613cf560808301896139ed565b613d0260a08301886139ed565b613d0f60c08301876139ed565b613d1c60e083018661380b565b613d2a6101008301856136fc565b613d386101208301846136fc565b9b9a5050505050505050505050565b6000613d51613d62565b9050613d5d82826142a3565b919050565b6000604051905090565b600067ffffffffffffffff821115613d8757613d866143aa565b5b602082029050602081019050919050565b6000819050602082019050919050565b600081519050919050565b600081519050919050565b6000602082019050919050565b600082825260208201905092915050565b600082825260208201905092915050565b600082825260208201905092915050565b6000613e098261416b565b9150613e148361416b565b9250827fffffffffffffffffffffffffffffffffffffffffffffffffffffffffffffffff03821115613e4957613e4861431d565b5b828201905092915050565b6000613e5f82614175565b9150613e6a83614175565b92508260ff03821115613e8057613e7f61431d565b5b828201905092915050565b6000613e968261416b565b9150613ea18361416b565b925082613eb157613eb061434c565b5b828204905092915050565b6000808291508390505b6001851115613f0657808604811115613ee257613ee161431d565b5b6001851615613ef15780820291505b8081029050613eff856143ea565b9450613ec6565b94509492505050565b6000613f1a8261416b565b9150613f2583614175565b9250613f527fffffffffffffffffffffffffffffffffffffffffffffffffffffffffffffffff8484613f5a565b905092915050565b600082613f6a5760019050614026565b81613f785760009050614026565b8160018114613f8e5760028114613f9857613fc7565b6001915050614026565b60ff841115613faa57613fa961431d565b5b8360020a915084821115613fc157613fc061431d565b5b50614026565b5060208310610133831016604e8410600b8410161715613ffc5782820a905083811115613ff757613ff661431d565b5b614026565b6140098484846001613ebc565b925090508184048111156140205761401f61431d565b5b81810290505b9392505050565b60006140388261416b565b91506140438361416b565b9250817fffffffffffffffffffffffffffffffffffffffffffffffffffffffffffffffff048311821515161561407c5761407b61431d565b5b828202905092915050565b60006140928261416b565b915061409d8361416b565b9250828210156140b0576140af61431d565b5b828203905092915050565b60006140c682614175565b91506140d183614175565b9250828210156140e4576140e361431d565b5b828203905092915050565b60006140fa8261413c565b9050919050565b600061410c8261413c565b9050919050565b60008115159050919050565b600081905061412d8261453c565b919050565b6000819050919050565b600073ffffffffffffffffffffffffffffffffffffffff82169050919050565b600062ffffff82169050919050565b6000819050919050565b600060ff82169050919050565b600069ffffffffffffffffffff82169050919050565b60006141a38261424c565b9050919050565b60006141b5826141bc565b9050919050565b60006141c78261413c565b9050919050565b60006141d9826141e0565b9050919050565b60006141eb8261413c565b9050919050565b60006141fd82614204565b9050919050565b600061420f8261413c565b9050919050565b600061422182614228565b9050919050565b60006142338261413c565b9050919050565b60006142458261411f565b9050919050565b60006142578261425e565b9050919050565b60006142698261413c565b9050919050565b60005b8381101561428e578082015181840152602081019050614273565b8381111561429d576000848401525b50505050565b6142ac826143d9565b810181811067ffffffffffffffff821117156142cb576142ca6143aa565b5b80604052505050565b60006142df8261416b565b91507fffffffffffffffffffffffffffffffffffffffffffffffffffffffffffffffff8214156143125761431161431d565b5b600182019050919050565b7f4e487b7100000000000000000000000000000000000000000000000000000000600052601160045260246000fd5b7f4e487b7100000000000000000000000000000000000000000000000000000000600052601260045260246000fd5b7f4e487b7100000000000000000000000000000000000000000000000000000000600052602160045260246000fd5b7f4e487b7100000000000000000000000000000000000000000000000000000000600052604160045260246000fd5b6000601f19601f8301169050919050565b60008160011c9050919050565b7f45544820213d20616d6f756e7400000000000000000000000000000000000000600082015250565b7f41677265656d656e74206e6f7420736574746c65642079657400000000000000600082015250565b7f4f776e61626c653a206e6577206f776e657220697320746865207a65726f206160008201527f6464726573730000000000000000000000000000000000000000000000000000602082015250565b7f5061757361626c653a2070617573656400000000000000000000000000000000600082015250565b7f4f776e61626c653a2063616c6c6572206973206e6f7420746865206f776e6572600082015250565b7f4e6f7420656e6f75676820636f6c6c61746572616c0000000000000000000000600082015250565b7f5265656e7472616e637947756172643a207265656e7472616e742063616c6c00600082015250565b6004811061454d5761454c61437b565b5b50565b614559816140ef565b811461456457600080fd5b50565b61457081614113565b811461457b57600080fd5b50565b61458781614132565b811461459257600080fd5b50565b61459e8161416b565b81146145a957600080fd5b50565b6145b581614175565b81146145c057600080fd5b50565b6145cc81614182565b81146145d757600080fd5b5056fea26469706673582212209925d9c55f2074b9ffa1f23a5f2880fb79e593c913305d265c295df0b08c362e64736f6c63430008040033",
  "devdoc": {
    "kind": "dev",
    "methods": {
      "owner()": {
        "details": "Returns the address of the current owner."
      },
      "paused()": {
        "details": "Returns true if the contract is paused, and false otherwise."
      },
      "performUpkeep(bytes)": {
        "details": "The input to this method should not be trusted, and the caller of the method should not even be restricted to any single registry. Anyone should be able call it, and the input should be validated, there is no guarantee that the data passed in is the performData returned from checkUpkeep. This could happen due to malicious keepers, racing keepers, or simply a state change while the performUpkeep transaction is waiting for confirmation. Always validate the data passed in.",
        "params": {
          "performData": "is the data which was passed back from the checkData simulation. If it is encoded, it can easily be decoded into other types by calling `abi.decode`. This data should not be trusted, and should be validated against the contract's current state."
        }
      },
      "renounceOwnership()": {
        "details": "Leaves the contract without owner. It will not be possible to call `onlyOwner` functions anymore. Can only be called by the current owner. NOTE: Renouncing ownership will leave the contract without an owner, thereby removing any functionality that is only available to the owner."
      },
      "transferOwnership(address)": {
        "details": "Transfers ownership of the contract to a new account (`newOwner`). Can only be called by the current owner."
      }
    },
    "version": 1
  },
  "userdoc": {
    "kind": "user",
    "methods": {
      "performUpkeep(bytes)": {
        "notice": "method that is actually executed by the keepers, via the registry. The data returned by the checkUpkeep simulation will be passed into this method to actually be executed."
      }
    },
    "version": 1
  },
  "storageLayout": {
    "storage": [
      {
        "astId": 311,
        "contract": "contracts/LiquidatableExchange.sol:LiquidatableExchange",
        "label": "_status",
        "offset": 0,
        "slot": "0",
        "type": "t_uint256"
      },
      {
        "astId": 226,
        "contract": "contracts/LiquidatableExchange.sol:LiquidatableExchange",
        "label": "_paused",
        "offset": 0,
        "slot": "1",
        "type": "t_bool"
      },
      {
        "astId": 111,
        "contract": "contracts/LiquidatableExchange.sol:LiquidatableExchange",
        "label": "_owner",
        "offset": 1,
        "slot": "1",
        "type": "t_address"
      },
      {
        "astId": 658,
        "contract": "contracts/LiquidatableExchange.sol:LiquidatableExchange",
        "label": "s_idToAgreement",
        "offset": 0,
        "slot": "2",
        "type": "t_mapping(t_uint256,t_struct(Agreement)639_storage)"
      },
      {
        "astId": 663,
        "contract": "contracts/LiquidatableExchange.sol:LiquidatableExchange",
        "label": "s_accountToIDs",
        "offset": 0,
        "slot": "3",
        "type": "t_mapping(t_address,t_array(t_uint256)dyn_storage)"
      },
      {
        "astId": 665,
        "contract": "contracts/LiquidatableExchange.sol:LiquidatableExchange",
        "label": "s_numIDs",
        "offset": 0,
        "slot": "4",
        "type": "t_uint256"
      },
      {
        "astId": 668,
        "contract": "contracts/LiquidatableExchange.sol:LiquidatableExchange",
        "label": "s_lenderToken",
        "offset": 0,
        "slot": "5",
        "type": "t_contract(IToken)1900"
      },
      {
        "astId": 671,
        "contract": "contracts/LiquidatableExchange.sol:LiquidatableExchange",
        "label": "s_priceFeed",
        "offset": 0,
        "slot": "6",
        "type": "t_contract(AggregatorV3Interface)84"
      },
      {
        "astId": 1466,
        "contract": "contracts/LiquidatableExchange.sol:LiquidatableExchange",
        "label": "s_swapRouter",
        "offset": 0,
        "slot": "7",
        "type": "t_contract(IUniswapRouter)1935"
      },
      {
        "astId": 1469,
        "contract": "contracts/LiquidatableExchange.sol:LiquidatableExchange",
        "label": "s_wethToken",
        "offset": 0,
        "slot": "8",
        "type": "t_contract(IWETH)1955"
      },
      {
        "astId": 1471,
        "contract": "contracts/LiquidatableExchange.sol:LiquidatableExchange",
        "label": "s_keeperRegistryAddress",
        "offset": 0,
        "slot": "9",
        "type": "t_address"
      }
    ],
    "types": {
      "t_address": {
        "encoding": "inplace",
        "label": "address",
        "numberOfBytes": "20"
      },
      "t_address_payable": {
        "encoding": "inplace",
        "label": "address payable",
        "numberOfBytes": "20"
      },
      "t_array(t_uint256)dyn_storage": {
        "base": "t_uint256",
        "encoding": "dynamic_array",
        "label": "uint256[]",
        "numberOfBytes": "32"
      },
      "t_bool": {
        "encoding": "inplace",
        "label": "bool",
        "numberOfBytes": "1"
      },
      "t_contract(AggregatorV3Interface)84": {
        "encoding": "inplace",
        "label": "contract AggregatorV3Interface",
        "numberOfBytes": "20"
      },
      "t_contract(IToken)1900": {
        "encoding": "inplace",
        "label": "contract IToken",
        "numberOfBytes": "20"
      },
      "t_contract(IUniswapRouter)1935": {
        "encoding": "inplace",
        "label": "contract IUniswapRouter",
        "numberOfBytes": "20"
      },
      "t_contract(IWETH)1955": {
        "encoding": "inplace",
        "label": "contract IWETH",
        "numberOfBytes": "20"
      },
      "t_enum(Status)617": {
        "encoding": "inplace",
        "label": "enum Status",
        "numberOfBytes": "1"
      },
      "t_mapping(t_address,t_array(t_uint256)dyn_storage)": {
        "encoding": "mapping",
        "key": "t_address",
        "label": "mapping(address => uint256[])",
        "numberOfBytes": "32",
        "value": "t_array(t_uint256)dyn_storage"
      },
      "t_mapping(t_uint256,t_struct(Agreement)639_storage)": {
        "encoding": "mapping",
        "key": "t_uint256",
        "label": "mapping(uint256 => struct Agreement)",
        "numberOfBytes": "32",
        "value": "t_struct(Agreement)639_storage"
      },
      "t_struct(Agreement)639_storage": {
        "encoding": "inplace",
        "label": "struct Agreement",
        "members": [
          {
            "astId": 619,
            "contract": "contracts/LiquidatableExchange.sol:LiquidatableExchange",
            "label": "deposit",
            "offset": 0,
            "slot": "0",
            "type": "t_uint256"
          },
          {
            "astId": 621,
            "contract": "contracts/LiquidatableExchange.sol:LiquidatableExchange",
            "label": "collateral",
            "offset": 0,
            "slot": "1",
            "type": "t_uint256"
          },
          {
            "astId": 623,
            "contract": "contracts/LiquidatableExchange.sol:LiquidatableExchange",
            "label": "repaidAmt",
            "offset": 0,
            "slot": "2",
            "type": "t_uint256"
          },
          {
            "astId": 625,
            "contract": "contracts/LiquidatableExchange.sol:LiquidatableExchange",
            "label": "futureValue",
            "offset": 0,
            "slot": "3",
            "type": "t_uint256"
          },
          {
            "astId": 627,
            "contract": "contracts/LiquidatableExchange.sol:LiquidatableExchange",
            "label": "start",
            "offset": 0,
            "slot": "4",
            "type": "t_uint256"
          },
          {
            "astId": 629,
            "contract": "contracts/LiquidatableExchange.sol:LiquidatableExchange",
            "label": "duration",
            "offset": 0,
            "slot": "5",
            "type": "t_uint256"
          },
          {
            "astId": 631,
            "contract": "contracts/LiquidatableExchange.sol:LiquidatableExchange",
            "label": "rate",
            "offset": 0,
            "slot": "6",
            "type": "t_uint256"
          },
          {
            "astId": 634,
            "contract": "contracts/LiquidatableExchange.sol:LiquidatableExchange",
            "label": "status",
            "offset": 0,
            "slot": "7",
            "type": "t_enum(Status)617"
          },
          {
            "astId": 636,
            "contract": "contracts/LiquidatableExchange.sol:LiquidatableExchange",
            "label": "lender",
            "offset": 1,
            "slot": "7",
            "type": "t_address_payable"
          },
          {
            "astId": 638,
            "contract": "contracts/LiquidatableExchange.sol:LiquidatableExchange",
            "label": "borrower",
            "offset": 0,
            "slot": "8",
            "type": "t_address_payable"
          }
        ],
        "numberOfBytes": "288"
      },
      "t_uint256": {
        "encoding": "inplace",
        "label": "uint256",
        "numberOfBytes": "32"
      }
    }
  }
}