{
  "address": "0x0165878A594ca255338adfa4d48449f69242Eb8F",
  "abi": [
    {
      "anonymous": false,
      "inputs": [
        {
          "indexed": true,
          "internalType": "address",
          "name": "previousOwner",
          "type": "address"
        },
        {
          "indexed": true,
          "internalType": "address",
          "name": "newOwner",
          "type": "address"
        }
      ],
      "name": "OwnershipTransferred",
      "type": "event"
    },
    {
      "inputs": [
        {
          "components": [
            {
              "internalType": "address",
              "name": "tokenIn",
              "type": "address"
            },
            {
              "internalType": "address",
              "name": "tokenOut",
              "type": "address"
            },
            {
              "internalType": "uint24",
              "name": "fee",
              "type": "uint24"
            },
            {
              "internalType": "address",
              "name": "recipient",
              "type": "address"
            },
            {
              "internalType": "uint256",
              "name": "deadline",
              "type": "uint256"
            },
            {
              "internalType": "uint256",
              "name": "amountOut",
              "type": "uint256"
            },
            {
              "internalType": "uint256",
              "name": "amountInMaximum",
              "type": "uint256"
            },
            {
              "internalType": "uint160",
              "name": "sqrtPriceLimitX96",
              "type": "uint160"
            }
          ],
          "internalType": "struct IUniswapRouter.ExactOutputSingleParams",
          "name": "params",
          "type": "tuple"
        }
      ],
      "name": "exactOutputSingle",
      "outputs": [
        {
          "internalType": "uint256",
          "name": "amountIn",
          "type": "uint256"
        }
      ],
      "stateMutability": "payable",
      "type": "function"
    },
    {
      "inputs": [],
      "name": "owner",
      "outputs": [
        {
          "internalType": "address",
          "name": "",
          "type": "address"
        }
      ],
      "stateMutability": "view",
      "type": "function"
    },
    {
      "inputs": [
        {
          "internalType": "address",
          "name": "",
          "type": "address"
        }
      ],
      "name": "refundBalance",
      "outputs": [
        {
          "internalType": "uint256",
          "name": "",
          "type": "uint256"
        }
      ],
      "stateMutability": "view",
      "type": "function"
    },
    {
      "inputs": [],
      "name": "refundETH",
      "outputs": [],
      "stateMutability": "payable",
      "type": "function"
    },
    {
      "inputs": [],
      "name": "renounceOwnership",
      "outputs": [],
      "stateMutability": "nonpayable",
      "type": "function"
    },
    {
      "inputs": [],
      "name": "s_priceFeed",
      "outputs": [
        {
          "internalType": "contract AggregatorV3Interface",
          "name": "",
          "type": "address"
        }
      ],
      "stateMutability": "view",
      "type": "function"
    },
    {
      "inputs": [
        {
          "internalType": "address",
          "name": "priceFeed",
          "type": "address"
        }
      ],
      "name": "setPriceFeed",
      "outputs": [],
      "stateMutability": "nonpayable",
      "type": "function"
    },
    {
      "inputs": [
        {
          "internalType": "address",
          "name": "newOwner",
          "type": "address"
        }
      ],
      "name": "transferOwnership",
      "outputs": [],
      "stateMutability": "nonpayable",
      "type": "function"
    }
  ],
  "transactionHash": "0xf17f192815850baa27791bc88ff63a5a2a7e5d37fc7fb28a3a567e752382e5aa",
  "args": [],
  "numDeployments": 1,
  "solcInputHash": "49818a67b38e9de24632cf4cd2fa931b",
  "bytecode": "0x608060405234801561001057600080fd5b5061002d61002261003260201b60201c565b61003a60201b60201c565b6100fe565b600033905090565b60008060009054906101000a900473ffffffffffffffffffffffffffffffffffffffff169050816000806101000a81548173ffffffffffffffffffffffffffffffffffffffff021916908373ffffffffffffffffffffffffffffffffffffffff1602179055508173ffffffffffffffffffffffffffffffffffffffff168173ffffffffffffffffffffffffffffffffffffffff167f8be0079c531659141344cd1fd0a4f28419497f9722a3daafe3b4186f6b6457e060405160405180910390a35050565b6114d28061010d6000396000f3fe60806040526004361061007b5760003560e01c8063724e78da1161004e578063724e78da146101095780638da5cb5b14610132578063db3e21981461015d578063f2fde38b1461018d5761007b565b80630ec3b0271461008057806312210e8a146100ab57806356c8e12e146100b5578063715018a6146100f2575b600080fd5b34801561008c57600080fd5b506100956101b6565b6040516100a29190610d1a565b60405180910390f35b6100b36101dc565b005b3480156100c157600080fd5b506100dc60048036038101906100d79190610b2a565b6102e2565b6040516100e99190610db5565b60405180910390f35b3480156100fe57600080fd5b506101076102fa565b005b34801561011557600080fd5b50610130600480360381019061012b9190610b2a565b610382565b005b34801561013e57600080fd5b50610147610442565b6040516101549190610cd6565b60405180910390f35b61017760048036038101906101729190610b53565b61046b565b6040516101849190610db5565b60405180910390f35b34801561019957600080fd5b506101b460048036038101906101af9190610b2a565b61085e565b005b600160009054906101000a900473ffffffffffffffffffffffffffffffffffffffff1681565b6000600260003373ffffffffffffffffffffffffffffffffffffffff1673ffffffffffffffffffffffffffffffffffffffff1681526020019081526020016000205490506000600260003373ffffffffffffffffffffffffffffffffffffffff1673ffffffffffffffffffffffffffffffffffffffff1681526020019081526020016000208190555060003373ffffffffffffffffffffffffffffffffffffffff166108fc839081150290604051600060405180830381858888f193505050509050806102de576040517f08c379a00000000000000000000000000000000000000000000000000000000081526004016102d590610d95565b60405180910390fd5b5050565b60026020528060005260406000206000915090505481565b610302610956565b73ffffffffffffffffffffffffffffffffffffffff16610320610442565b73ffffffffffffffffffffffffffffffffffffffff1614610376576040517f08c379a000000000000000000000000000000000000000000000000000000000815260040161036d90610d75565b60405180910390fd5b610380600061095e565b565b61038a610956565b73ffffffffffffffffffffffffffffffffffffffff166103a8610442565b73ffffffffffffffffffffffffffffffffffffffff16146103fe576040517f08c379a00000000000000000000000000000000000000000000000000000000081526004016103f590610d75565b60405180910390fd5b80600160006101000a81548173ffffffffffffffffffffffffffffffffffffffff021916908373ffffffffffffffffffffffffffffffffffffffff16021790555050565b60008060009054906101000a900473ffffffffffffffffffffffffffffffffffffffff16905090565b600080600160009054906101000a900473ffffffffffffffffffffffffffffffffffffffff1673ffffffffffffffffffffffffffffffffffffffff1663feaf968c6040518163ffffffff1660e01b815260040160a06040518083038186803b1580156104d657600080fd5b505afa1580156104ea573d6000803e3d6000fd5b505050506040513d601f19601f8201168201806040525081019061050e9190610b7d565b5050509150506000600160009054906101000a900473ffffffffffffffffffffffffffffffffffffffff1673ffffffffffffffffffffffffffffffffffffffff1663313ce5676040518163ffffffff1660e01b815260040160206040518083038186803b15801561057e57600080fd5b505afa158015610592573d6000803e3d6000fd5b505050506040513d601f19601f820116820180604052508101906105b69190610bf4565b905060008460000160208101906105cd9190610b2a565b73ffffffffffffffffffffffffffffffffffffffff1663313ce5676040518163ffffffff1660e01b815260040160206040518083038186803b15801561061257600080fd5b505afa158015610626573d6000803e3d6000fd5b505050506040513d601f19601f8201168201806040525081019061064a9190610bf4565b905060008560200160208101906106619190610b2a565b73ffffffffffffffffffffffffffffffffffffffff1663313ce5676040518163ffffffff1660e01b815260040160206040518083038186803b1580156106a657600080fd5b505afa1580156106ba573d6000803e3d6000fd5b505050506040513d601f19601f820116820180604052508101906106de9190610bf4565b90506106eb848483610a22565b935060008483600a6106fd9190610f70565b8860a0013561070c91906111a5565b6107169190610ea1565b90503481111561075b576040517f08c379a000000000000000000000000000000000000000000000000000000000815260040161075290610d55565b60405180910390fd5b803461076791906111ff565b600260003373ffffffffffffffffffffffffffffffffffffffff1673ffffffffffffffffffffffffffffffffffffffff16815260200190815260200160002060008282546107b59190610de1565b925050819055508660200160208101906107cf9190610b2a565b73ffffffffffffffffffffffffffffffffffffffff166340c10f198860600160208101906107fd9190610b2a565b8960a001356040518363ffffffff1660e01b815260040161081f929190610cf1565b600060405180830381600087803b15801561083957600080fd5b505af115801561084d573d6000803e3d6000fd5b505050508095505050505050919050565b610866610956565b73ffffffffffffffffffffffffffffffffffffffff16610884610442565b73ffffffffffffffffffffffffffffffffffffffff16146108da576040517f08c379a00000000000000000000000000000000000000000000000000000000081526004016108d190610d75565b60405180910390fd5b600073ffffffffffffffffffffffffffffffffffffffff168173ffffffffffffffffffffffffffffffffffffffff16141561094a576040517f08c379a000000000000000000000000000000000000000000000000000000000815260040161094190610d35565b60405180910390fd5b6109538161095e565b50565b600033905090565b60008060009054906101000a900473ffffffffffffffffffffffffffffffffffffffff169050816000806101000a81548173ffffffffffffffffffffffffffffffffffffffff021916908373ffffffffffffffffffffffffffffffffffffffff1602179055508173ffffffffffffffffffffffffffffffffffffffff168173ffffffffffffffffffffffffffffffffffffffff167f8be0079c531659141344cd1fd0a4f28419497f9722a3daafe3b4186f6b6457e060405160405180910390a35050565b60008160ff168360ff161015610a5f578282610a3e9190611233565b60ff16600a610a4d9190610f25565b84610a58919061108e565b9050610a9e565b8160ff168360ff161115610a9a578183610a799190611233565b60ff16600a610a889190610f25565b84610a939190610e37565b9050610a9e565b8390505b9392505050565b600081359050610ab481611429565b92915050565b600081519050610ac981611440565b92915050565b60006101008284031215610ae257600080fd5b81905092915050565b600081519050610afa81611457565b92915050565b600081519050610b0f81611485565b92915050565b600081519050610b248161146e565b92915050565b600060208284031215610b3c57600080fd5b6000610b4a84828501610aa5565b91505092915050565b60006101008284031215610b6657600080fd5b6000610b7484828501610acf565b91505092915050565b600080600080600060a08688031215610b9557600080fd5b6000610ba388828901610b00565b9550506020610bb488828901610aba565b9450506040610bc588828901610aeb565b9350506060610bd688828901610aeb565b9250506080610be788828901610b00565b9150509295509295909350565b600060208284031215610c0657600080fd5b6000610c1484828501610b15565b91505092915050565b610c2681611267565b82525050565b610c35816112d0565b82525050565b6000610c48602683610dd0565b9150610c538261135f565b604082019050919050565b6000610c6b601783610dd0565b9150610c76826113ae565b602082019050919050565b6000610c8e602083610dd0565b9150610c99826113d7565b602082019050919050565b6000610cb1600d83610dd0565b9150610cbc82611400565b602082019050919050565b610cd0816112a3565b82525050565b6000602082019050610ceb6000830184610c1d565b92915050565b6000604082019050610d066000830185610c1d565b610d136020830184610cc7565b9392505050565b6000602082019050610d2f6000830184610c2c565b92915050565b60006020820190508181036000830152610d4e81610c3b565b9050919050565b60006020820190508181036000830152610d6e81610c5e565b9050919050565b60006020820190508181036000830152610d8e81610c81565b9050919050565b60006020820190508181036000830152610dae81610ca4565b9050919050565b6000602082019050610dca6000830184610cc7565b92915050565b600082825260208201905092915050565b6000610dec826112a3565b9150610df7836112a3565b9250827fffffffffffffffffffffffffffffffffffffffffffffffffffffffffffffffff03821115610e2c57610e2b6112f4565b5b828201905092915050565b6000610e4282611279565b9150610e4d83611279565b925082610e5d57610e5c611323565b5b600160000383147f800000000000000000000000000000000000000000000000000000000000000083141615610e9657610e956112f4565b5b828205905092915050565b6000610eac826112a3565b9150610eb7836112a3565b925082610ec757610ec6611323565b5b828204905092915050565b6000808291508390505b6001851115610f1c57808604811115610ef857610ef76112f4565b5b6001851615610f075780820291505b8081029050610f1585611352565b9450610edc565b94509492505050565b6000610f30826112a3565b9150610f3b836112a3565b9250610f687fffffffffffffffffffffffffffffffffffffffffffffffffffffffffffffffff8484610fbb565b905092915050565b6000610f7b826112a3565b9150610f86836112ad565b9250610fb37fffffffffffffffffffffffffffffffffffffffffffffffffffffffffffffffff8484610fbb565b905092915050565b600082610fcb5760019050611087565b81610fd95760009050611087565b8160018114610fef5760028114610ff957611028565b6001915050611087565b60ff84111561100b5761100a6112f4565b5b8360020a915084821115611022576110216112f4565b5b50611087565b5060208310610133831016604e8410600b841016171561105d5782820a905083811115611058576110576112f4565b5b611087565b61106a8484846001610ed2565b92509050818404811115611081576110806112f4565b5b81810290505b9392505050565b600061109982611279565b91506110a483611279565b9250827f7fffffffffffffffffffffffffffffffffffffffffffffffffffffffffffffff04821160008413600084131616156110e3576110e26112f4565b5b817f800000000000000000000000000000000000000000000000000000000000000005831260008412600084131616156111205761111f6112f4565b5b827f8000000000000000000000000000000000000000000000000000000000000000058212600084136000841216161561115d5761115c6112f4565b5b827f7fffffffffffffffffffffffffffffffffffffffffffffffffffffffffffffff058212600084126000841216161561119a576111996112f4565b5b828202905092915050565b60006111b0826112a3565b91506111bb836112a3565b9250817fffffffffffffffffffffffffffffffffffffffffffffffffffffffffffffffff04831182151516156111f4576111f36112f4565b5b828202905092915050565b600061120a826112a3565b9150611215836112a3565b925082821015611228576112276112f4565b5b828203905092915050565b600061123e826112ad565b9150611249836112ad565b92508282101561125c5761125b6112f4565b5b828203905092915050565b600061127282611283565b9050919050565b6000819050919050565b600073ffffffffffffffffffffffffffffffffffffffff82169050919050565b6000819050919050565b600060ff82169050919050565b600069ffffffffffffffffffff82169050919050565b60006112db826112e2565b9050919050565b60006112ed82611283565b9050919050565b7f4e487b7100000000000000000000000000000000000000000000000000000000600052601160045260246000fd5b7f4e487b7100000000000000000000000000000000000000000000000000000000600052601260045260246000fd5b60008160011c9050919050565b7f4f776e61626c653a206e6577206f776e657220697320746865207a65726f206160008201527f6464726573730000000000000000000000000000000000000000000000000000602082015250565b7f4e6f7420656e6f75676820696e70757420746f6b656e21000000000000000000600082015250565b7f4f776e61626c653a2063616c6c6572206973206e6f7420746865206f776e6572600082015250565b7f726566756e64206661696c656400000000000000000000000000000000000000600082015250565b61143281611267565b811461143d57600080fd5b50565b61144981611279565b811461145457600080fd5b50565b611460816112a3565b811461146b57600080fd5b50565b611477816112ad565b811461148257600080fd5b50565b61148e816112ba565b811461149957600080fd5b5056fea26469706673582212202af3b4053cd341c7064ddc1429902c7b7a2f768eb50cdb1767716be16937e77364736f6c63430008040033",
  "devdoc": {
    "kind": "dev",
    "methods": {
      "exactOutputSingle((address,address,uint24,address,uint256,uint256,uint256,uint160))": {
        "params": {
          "params": "The parameters necessary for the swap, encoded as `ExactOutputSingleParams` in calldata"
        },
        "returns": {
          "amountIn": "The amount of the input token"
        }
      },
      "owner()": {
        "details": "Returns the address of the current owner."
      },
      "renounceOwnership()": {
        "details": "Leaves the contract without owner. It will not be possible to call `onlyOwner` functions anymore. Can only be called by the current owner. NOTE: Renouncing ownership will leave the contract without an owner, thereby removing any functionality that is only available to the owner."
      },
      "transferOwnership(address)": {
        "details": "Transfers ownership of the contract to a new account (`newOwner`). Can only be called by the current owner."
      }
    },
    "version": 1
  },
  "userdoc": {
    "kind": "user",
    "methods": {
      "exactOutputSingle((address,address,uint24,address,uint256,uint256,uint256,uint160))": {
        "notice": "Swaps as little as possible of one token for `amountOut` of another token"
      }
    },
    "version": 1
  },
  "storageLayout": {
    "storage": [
      {
        "astId": 111,
        "contract": "contracts/test/MockSwapRouter.sol:MockSwapRouter",
        "label": "_owner",
        "offset": 0,
        "slot": "0",
        "type": "t_address"
      },
      {
        "astId": 2614,
        "contract": "contracts/test/MockSwapRouter.sol:MockSwapRouter",
        "label": "s_priceFeed",
        "offset": 0,
        "slot": "1",
        "type": "t_contract(AggregatorV3Interface)84"
      },
      {
        "astId": 2618,
        "contract": "contracts/test/MockSwapRouter.sol:MockSwapRouter",
        "label": "refundBalance",
        "offset": 0,
        "slot": "2",
        "type": "t_mapping(t_address,t_uint256)"
      }
    ],
    "types": {
      "t_address": {
        "encoding": "inplace",
        "label": "address",
        "numberOfBytes": "20"
      },
      "t_contract(AggregatorV3Interface)84": {
        "encoding": "inplace",
        "label": "contract AggregatorV3Interface",
        "numberOfBytes": "20"
      },
      "t_mapping(t_address,t_uint256)": {
        "encoding": "mapping",
        "key": "t_address",
        "label": "mapping(address => uint256)",
        "numberOfBytes": "32",
        "value": "t_uint256"
      },
      "t_uint256": {
        "encoding": "inplace",
        "label": "uint256",
        "numberOfBytes": "32"
      }
    }
  }
}